:020000040800F2
:1000000000000220E1050008DD050008294F000876
:10001000DD050008DD050008DD0500080000000022
:10002000000000000000000000000000DD050008E6
:10003000DD05000800000000DD050008AD4E0008E9
:10004000DD050008DD050008DD050008DD05000808
:10005000DD050008DD050008DD050008DD050008F8
:10006000DD050008DD050008DD050008E53C0008A9
:10007000F13C0008B12B0008FD3C0008093D0008D8
:10008000AD4B000885310008DD050008DD050008DE
:10009000DD050008DD050008DD050008DD050008B8
:1000A000DD050008DD050008DD050008DD050008A8
:1000B000CD000108D9000108E5000108B9310008A8
:1000C000DD050008C5310008DD0500083DF9000820
:1000D00049F90008E1490008114A0008454A0008AA
:1000E000DD050008DD05000800000000DD05000852
:1000F000DD050008DD050008DD050008DD05000858
:10010000DD050008DD050008F100010855F90008CB
:10011000794A0008AD4A0008DD050008DD05000841
:10012000DD050008DD05000879F90008ADF90008D3
:10013000E14B0008DD050008DD050008DD050008CD
:1001400000000000000000000000000000000000AF
:10015000DD050008DD050008DD050008E14A0008AE
:10016000D1310008DD050008BD4E0008E14E000851
:10017000DD050008054F0008DD050008DD05000865
:10018000DD050008DD050008154B0008454B00089B
:1001900061F900086DF90008DD050008DD050008BB
:1001A000DD050008DD050008DD050008DD050008A7
:1001B00079390008DD050008DD050008DD050008C7
:1001C000DD050008DD050008DD050008DD05000887
:1001D000DD050008DD050008DD050008DD05000877
:1001E000DD050008DD050008DD050008DD05000867
:1001F000DD050008DD050008DD050008DD05000857
:10020000DD050008DD050008DD050008DD05000846
:10021000DD050008DD050008DD050008DD05000836
:10022000DD050008DD050008DD0500080000000010
:10023000DD050008DD05000800000000DD05000800
:10024000DD050008DD050008DD050008DD05000806
:10025000DD050008DD050008DD050008DD050008F6
:10026000DD050008DD050008DD050008DD050008E6
:10027000DD050008DD050008794B000800000000DE
:10028000DD050008DD050008DD05000800000000B0
:0802900000000000DD0500087C
:1002980010B5054C237833B9044B13B10448AFF3B8
:1002A80000800123237010BD5004002400000000CA
:1002B800F039010808B5034B1BB103490348AFF3F4
:1002C800008008BD0000000054040024F039010833
:1002D80053B94AB9002908BF00281CBF4FF0FF31A5
:1002E8004FF0FF3000F074B9ADF1080C6DE904CEA1
:1002F80000F006F8DDF804E0DDE9022304B07047F9
:100308002DE9F047089D04468E46002B4DD18A42C0
:10031800944669D9B2FA82F252B101FA02F3C2F1F3
:10032800200120FA01F10CFA02FC41EA030E944084
:100338004FEA1C48210CBEFBF8F61FFA8CF708FBA5
:1003480016E341EA034306FB07F199420AD91CEB7D
:10035800030306F1FF3080F01F81994240F21C81AF
:10036800023E63445B1AA4B2B3FBF8F008FB1033F7
:1003780044EA034400FB07F7A7420AD91CEB04042C
:1003880000F1FF3380F00A81A74240F207816444FC
:10039800023840EA0640E41B00261DB1D440002381
:1003A800C5E900433146BDE8F0878B4209D9002DE5
:1003B80000F0EF800026C5E9000130463146BDE86F
:1003C800F087B3FA83F6002E4AD18B4202D38242D9
:1003D80000F2F980841A61EB030301209E46002D88
:1003E800E0D0C5E9004EDDE702B9FFDEB2FA82F2DD
:1003F800002A40F09280A1EB0C014FEA1C471FFA3B
:100408008CFE0126200CB1FBF7F307FB131140EA21
:1004180001410EFB03F0884208D91CEB010103F1EE
:10042800FF3802D2884200F2CB804346091AA4B2B0
:10043800B1FBF7F007FB101144EA01440EFB00FE84
:10044800A64508D91CEB040400F1FF3102D2A645E9
:1004580000F2BB800846A4EB0E0440EA03409CE788
:10046800C6F12007B34022FA07FC4CEA030C20FA35
:1004780007F401FA06F31C43F9404FEA1C4900FA55
:1004880006F3B1FBF9F8200C1FFA8CFE09FB1811D2
:1004980040EA014108FB0EF0884202FA06F20BD945
:1004A8001CEB010108F1FF3A80F08880884240F295
:1004B8008580A8F102086144091AA4B2B1FBF9F0D9
:1004C80009FB101144EA014100FB0EFE8E4508D9D4
:1004D8001CEB010100F1FF346CD28E456AD9023859
:1004E800614440EA0840A0FB0294A1EB0E01A1423E
:1004F800C846A64656D353D05DB1B3EB080261EBAC
:100508000E0101FA07F722FA06F3F1401F43C5E985
:10051800007100263146BDE8F087C2F12003D840BB
:100528000CFA02FC21FA03F3914001434FEA1C47FD
:100538001FFA8CFEB3FBF7F007FB10360B0C43EAEF
:10054800064300FB0EF69E4204FA02F408D91CEB9F
:10055800030300F1FF382FD29E422DD9023863449D
:100568009B1B89B2B3FBF7F607FB163341EA03413D
:1005780006FB0EF38B4208D91CEB010106F1FF388C
:1005880016D28B4214D9023E6144C91A46EA004683
:1005980038E72E46284605E70646E3E61846F8E615
:1005A8004B45A9D2B9EB020864EB0C0E0138A3E75E
:1005B8004646EAE7204694E74046D1E7D0467BE73F
:1005C800023B614432E7304609E76444023842E7B7
:1005D800704700BFFEE700BF0B480C4A904203D0AB
:1005E800121A0B4910F0AEFF0A480B4A904203D08A
:1005F800121A002110F0B4FF04F0BCFE10F07EFFC8
:1006080000F02AF9FEE700BF000000244C04002493
:10061800203A010850040024F8CC0124704700BF98
:10062800F7EE000A9FED010A03F0DAB900000000B6
:100638002DE9F041744C0D46164620462DED028BEF
:1006480082B000F001FB204600F014FB94F8B630AD
:10065800FF2B5AD1002E53D00024DFF8F8816B4FBE
:10066800D8F800306A496B487BBB0A6800EB820007
:10067800013290ED008A0F2AD8BF1346B8EEC88A17
:100688000B60B0EE480A00F071F9634B634883EDE4
:10069800000A00F0D7F99FED627AF3EE087A9FED31
:1006A800611A38EE478A6048F0EE410A88EE270A58
:1006B8008DED010A01F094FF9FED5A1A9DED010A94
:1006C800F0EE410A594801F08BFF544800F094F9C4
:1006D800D8F800303A6800210133C8F80030934256
:1006E800D5E90023A8BFC8F8001002EB840203EB89
:1006F8008403013482ED000AA64283ED000AAFD1DB
:1007080002B0BDEC028BBDE8F0812046002100F06C
:10071800A7FA9FED477ADFED477A2046DFF8F880A1
:100728000121E0EE077A444FC8ED007A00F098FA0C
:100738009FED427A2046DFED427A0021E0EE077A0B
:10074800C7ED007A00F08CFADFED3E7A20463E4B8A
:10075800012120EE270ABDEEC00A10EE102A53F838
:10076800224000F07DFADFED397A04F13C0360EEB7
:10077800277A00EE103AFDEEE77AB8EEC00A17EED7
:10078800904A00F0F3F888ED000A04F13C0300EE0B
:10079800103AB8EEC00A00F0E9F8F0EE407A1F48C7
:1007A80098ED000AC7ED007A00F04CF997ED000AC1
:1007B800274800F047F9002EA2D00024174800F07F
:1007C8001BF92348B0EE408A00F016F9B6EE006B2C
:1007D8002A68B7EEC00A6B68B7EEC88A02EB8402D3
:1007E80003EB8403013420EE060BA642A8EE060BA9
:1007F800B7EEC00B82ED000A83ED000ADED102B02D
:10080800BDEC028BBDE8F0816C0400246C00002470
:10081800009701242C00002424000024F4960124CD
:100828000000404200000000400500249405002418
:100838000000254400005C43280000240000DC433D
:100848000000C842CFF7FF40040000240AD74F41F8
:10085800F8960124FC96012408B50021204800F0F0
:10086800BBFA04211E4800F0BFF903211C4800F020
:10087800D1F903F097F81A4800F0E2F91949184835
:1008880000F0B0F9184B4FF6FF729FED180A18499F
:10089800184800F0E5F81749174800F091F815498D
:1008A800164800F08DF89FED160A134800F0CAF8B4
:1008B8009FED140A114800F0C5F80121084800F01E
:1008C80073FB4FF4FA71064800F08AF900210448D6
:1008D80000F06AFB4FF4FA71014800F081F9ECE787
:1008E8006C040024390600082906000800803B47EC
:1008F800F4960024A4960024F4960124F896012482
:100908000000DC4300005C4313480022134900F553
:100918001043B1F804C000B5B1F800E00260104916
:1009280042610262C0F87C21C3F82422A3F82AC2DB
:100938004FF0070CC3F82C224FF60F02C3F8301201
:10094800A3F8342283F836C2A3F828E2054A0649F8
:100958005DF804EB10F018BD6C040024781501084C
:1009680080707FF000000024250600089FED0F7AB4
:10097800DFED0F7A06E0B4EEE70AF1EE10FA09DDD2
:10098800B0EE670AB4EEC70AF1EE10FAF3D89FED9D
:10099800090A7047DFED087A08B520EE270A10F03B
:1009A80027FDDFED067A20EE270A08BD0080BBC4CC
:1009B8000060BB440000000020986C3D13D0024149
:1009C80038B58C6905461820214600F095F862680C
:1009D8009FED087A0023D2ED017A40F2FF72286079
:1009E80067EE877A04604261C0E90133C0ED047A9A
:1009F80038BD00BF0000804F006810499FED107A95
:100A0800D0E9013213445A0D4360C3F3140340691B
:100A180007EE903A01EB82030132F8EEE77A93EDA4
:100A2800000A024001EB820267EE877A92ED007AB3
:100A380037EE407AA7EE270A704700BFBC150108B9
:100A4800040000350368D3ED047A83ED030A20EE31
:100A5800270ABDEEC00A83ED020A7047704700BF3F
:100A680038B5006204461D462DED028BB0EE408A73
:100A780000F02AF8F7EE006ADFED0C7A00220C4B42
:100A880084ED008A86EE887A25616261BDEC028B6E
:100A9800C4E90E32C4E91022C4E9122267EE277AAB
:100AA80084ED017AC4ED037A38BD00BFDB0FC9407D
:100AB800650A000810B400EB81020124836BD4633B
:100AC8005DF8044B184700BF30B41025046A0023B2
:100AD800AA42656301EB050438BF2A46C0E9091339
:100AE800C262103A0C6000F11C04CA60C1E901330B
:100AF8008461016330BC70472DE9F8434D684E6945
:100B0800AB6C0133AB64002E56D0C21D344622F0C4
:100B1800070202E06468002C3DD0E3689342F9D3F1
:100B28009F1A686BE260B84242D2D1F808C03B1AFB
:100B38000244A4EB0C073A440CEB0207D4E9018EFB
:100B480007EB00094CF80290FB60E368C7E9018EE7
:100B58006268A64208BF4F610AB1A6689660A66897
:100B680006B17260CA686D69024400201A44854261
:100B7800C4E90100CA600ADD256873B36A1E13461A
:100B880002F8010FE16802335B1B9942F7D8246829
:100B98002046BDE8F883D1E903239B1A83422846FF
:100BA8008CBF01212146FFF785FF2046BDE8F88369
:100BB8006768E3603A46CCE7D1E903239B1A83428E
:100BC80005D9012128463446FFF774FFE0E731468E
:100BD80028463446FFF76EFFDAE72C46D8E700BF11
:100BE80000F09EB900F0A0B938B5044600F0BCF991
:100BF800D4F8A450204600F0D3F9284601F02EFC82
:100C0800D4F8A850204600F0CBF92846BDE8384073
:100C180001F024BC38B5044600F08AF9D4F8A45091
:100C2800204600F0BDF9284601F018FCD4F8A85079
:100C3800204600F0B5F92846BDE8384001F00EBC62
:100C4800183001F045BF00BF10B50446643001F00C
:100C5800E1FB04F18400BDE8104001F0DBBB00BFFC
:100C6800022928BF002100EB8101D1F8A43093EDBF
:100C7800030A704710B504463C3001F04BFC04F100
:100C8800AC0001F005FD04F1BC00BDE8104001F026
:100C9800FFBC00BFF0B504468DB01420012500F05C
:100CA80029F90346132004F1D407ADF80C3000F0FD
:100CB80021F90346122004F5947406AEADF81030FD
:100CC80000F018F90399ADF8140038460095DDE9ED
:100CD800042301F05DFC112000F00CF903461820F4
:100CE800ADF80C3000F006F9ADF81000172000F050
:100CF80001F9ADF81400059B2046049A0399009564
:100D080009AD01F045FC3046072104F06DFC96E87A
:100D1800070085E807002946384601F07BFC96E87D
:100D2800070085E807002946204601F073FC38468D
:100D380001F086FC20460DB0BDE8F04001F080BC13
:100D48002DE9F04104461520002504F1180704F1A7
:100D5800A4062DED028B8EB09FED1E8A00F0CAF816
:100D6800034605A8ADF80C30039901F0BFFC0F202D
:100D780000F0C0F803460DF12500ADF810300499D5
:100D880001F0B4FC0423022205A9384601F0BCFC9A
:100D980004F1640204F18403C4E92923294638468E
:100DA80056F8048B01F0AAFE01462046019100F096
:100DB800F7F80023F0EE480A019940461A4601F078
:100DC800F7FA25B10EB0BDEC028BBDE8F081012524
:100DD800E4E700BF6F12033B70B59FED420A8EB087
:100DE80004468DED010A009100F082F80099204632
:100DF80000F046F91B2000F07DF8034604F1AC062C
:100E08009DED010AADF8143004F1BC050599304692
:100E18008DED000A01F022FC1C2000F06BF8ADF803
:100E280018009DED000A2846069901F017FC1A20C3
:100E3800C4E9336500F05EF8034619200025ADF8D3
:100E48000C3000F057F803460D2004F51046ADF8B5
:100E5800103000F04FF8ADF81C0004F13C009DED97
:100E6800000A049A0399079B01F024FB2046FFF728
:100E780011FF2046FFF764FF01231B4A49F22C208B
:100E8800099307A90C9347F6122320440A950D935A
:100E9800022308950B93154BC6E98952079303F073
:100EA800C1FE0A23C6F818523021C6F8145220464B
:100EB80084F8843184F8805100F056F8D4F8A450AE
:100EC800204600F06DF8284601F0C8FAD4F8A8507A
:100ED800204600F065F828460EB0BDE8704001F0E5
:100EE800BDBA00BF000000000107010601060107A6
:100EF800704700BF202882B009D8084B03EB400296
:100F080013F81030507843EA002002B070470123EC
:100F18000C2043EA002002B0704700BFBC3501082E
:100F2800084604F06FB800BF143001F00DBA00BFD6
:100F380038B500F1140504462DED028B284601F062
:100F4800BFF9284601F0B8F92846B0EE408A01F00A
:100F5800A1F9D0ED007AF8EE677A88EE277ABDEC31
:100F6800028B84ED0E7A38BD38B500F114050446BD
:100F78002DED028B284601F091F9284601F09CF9E5
:100F88002846B0EE408A01F085F9D0ED007AF8EEF7
:100F9800677A88EE277ABDEC028B84ED0E7A38BD2D
:100FA80090ED0E0A704700BF253001F093BF00BFD7
:100FB800F0B5032399B000270125129306462C4B60
:100FC80009A81595CDE90E7340F20453ADF84030E9
:100FD800284BCDE91357099301F092FE09A801F0B7
:100FE8006BFF002836D1244B04AF04460090CDF89F
:100FF80042301023394604958DF820301F4BCDE937
:101008001650CDE906506846059302F0E3F8082328
:10101800009A01A909A8ADF804508DF80640099472
:101028000295039300F0E4F800230EA93846302413
:10103800049302F0E1FE03224FF07E5309A906F162
:1010480014000B930C93CDE90942049A01F0EAF8D5
:1010580019B0F0BD40F60132074B169704AFADF852
:1010680024200998CDF84230179500F081F8DBE785
:101078000402040403030001040604030704010B2B
:101088002DE9F04304462DED028B83B0002948D0AA
:10109800012140F2011200230091ADF804208DF8DF
:1010A8000630304A0126304B271D304904F1290803
:1010B800626040F20272A36040F60663E16004F1E8
:1010C80025092682A4F8252084F82760A4F8293069
:1010D80084F82B6004F004F96946054648B304F126
:1010E80030008DF8066004F059F8072D34D104F16A
:1010F80014052046FFF75CFF284601F0DDF8284676
:10110800B0EE408A01F0C6F8D0ED007AF8EE677AC2
:1011180088EE277A84ED0E7A03B0BDEC028BBDE829
:10112800F08340F2011300918DF80610ADF80430F9
:10113800B7E704F1300004F031F83946204602F0F0
:1011480093FA484601F0DCFD404601F0D9FD04F170
:10115800120000F077F9CAE73946204602F084FA0F
:10116800C5E700BF0508050905070506050A0606BF
:1011780010B584B003460124ADF8040003A8ADF807
:101188000C30ADF80E4001F0BBFD214603A801F07C
:10119800A1FE204603F036FF002103A801F09AFEC5
:1011A800204603F02FFF214603A801F093FE04B068
:1011B80010BD00BF10B5C2F3002384B00C46017CFB
:1011C8008DF80D2043EA4402FA2402238DF80C20FE
:1011D80003AA009402F094F818B10124204604B040
:1011E80010BD04460A2003F00DFF204604B010BDD0
:1011F800034670B543F8042B044684B007C983E856
:101208000700A37983B91A210B461E22FA252374F5
:101218002046ADF80C20022303AA009502F070F8CE
:1012280028B1012004B070BD1B210B46EDE70A2050
:1012380003F0E8FE4FF4B85200950223ADF80C20F5
:10124800204603AA217C02F05BF80028E9D10A2095
:1012580003F0D8FE41F2027200950223ADF80C208B
:10126800204603AA217C02F04BF80028D9D10A2095
:1012780003F0C8FE042200950223ADF80C20204696
:1012880003AA217C02F03CF80028CAD10A2003F006
:10129800B9FE062200950223ADF80C20204603AAC9
:1012A800217C02F02DF80028BBD10A2003F0AAFE09
:1012B80041F2082200950223ADF80C20204603AA2B
:1012C800217C02F01DF80028ABD10A20064603F065
:1012D80099FE0095022303AA217C2046ADF80C60F4
:1012E80002F00EF800289CD1304603F08BFE0095E2
:1012F80022790C232046002A8DF80C3003AA4FF0DF
:10130800020314BF622142218DF80D10217C01F0E7
:10131800F7FF002885D1304603F074FE2279D4E91E
:1013280002310B43DBB20AB943F0400362790AB1D8
:1013380043F020030E22FA258DF80D302046009543
:1013480002238DF80C2003AA217C01F0D9FF002884
:101358007FF467AF0A2003F055FE102200950223A0
:10136800ADF80C20204603AA217C01F0C9FF002813
:101378007FF457AF0A2003F045FE1221009502239F
:10138800ADF80C1003AA217C204601F0B9FF002813
:101398007FF447AF0A2003F035FE012209212046D9
:1013A800FFF708FF003818BF01203BE7F0B510230E
:1013B80087B0234C012200250126002702A92046D8
:1013C8000195CDE902234FF48052CDE904670AF074
:1013D8004FFD642004F03AFA02A94FF480522046E7
:1013E800CDE9046702261027CDE902670AF040FD1F
:1013F8000322102302A92046CDE902230023042258
:10140800CDE904234FF480520AF032FD40F2322332
:10141800042202A9019310232046CDE90223019A50
:10142800012305924FF4805204930AF021FD40F6FF
:10143800060120460AF03CFD284607B0F0BD00BF73
:101448000C9701241C4B00221C494FF0400C30B56E
:10145800054689B00220596007219A601A62012462
:10146800DA620A224FF4006EDC6006922022CDE98F
:10147800000104200821CDE9020103201021CDE953
:10148800040108206946C3E904024FF4C072181D1C
:10149800C3E906C24FF48052C3E909E20AF0BEFC70
:1014A80038B92846FFF782FF003818BF012009B075
:1014B80030BD204609B030BD089701244041005294
:1014C800614A0021D0B513688EB00A91002B40F014
:1014D800B9805E4B01214FF683700C241160022104
:1014E800D3F8D4200026032742F48052C3F8D4202E
:1014F800D3F8D42002F480520092009AD3F8E02066
:1015080042F01002C3F8E020D3F8E02002F0100205
:101518000192019AD3F8E02042F04002C3F8E0209B
:10152800D3F8E02002F040020292029AD3F8E020B9
:1015380042F00802C3F8E020D3F8E02002F00802E5
:101548000392039AD3F8E02042F48072C3F8E020B3
:10155800D3F8E02002F480720492049AD3F8E020D1
:1015680042F08002C3F8E020D3F8E02002F08002C5
:101578000592059AD3F8E02042F02002C3F8E02053
:10158800D3F8E02002F020020692069AD3F8E02071
:1015980042F00402C3F8E020D3F8E0300C9403F0E2
:1015A800040307930323079A0B93CDE9080108A9BD
:1015B800274805F0D1FF48F23712022308A9254829
:1015C8000C94CDE90823CDE90A6705F0C5FF4CF274
:1015D8000372022308A920480C94CDE90823CDE919
:1015E8000A6705F0B9FF40F2FF62022308A91B4809
:1015F8000C94CDE90823CDE90A6705F0ADFF4FF655
:101608000C72022308A916480C94CDE90823CDE9E9
:101618000A6705F0A1FF4FF63F02022308A9114807
:101628000C94CDE90823CDE90A6705F095FF20223F
:10163800022308A90A480C94CDE90A67CDE90823D2
:1016480005F08AFF0EB0D0BD04970124004402586B
:101658000010025800180258000C025800200258C6
:10166800001C0258001402582DE9F04FDFF81084CE
:1016780006460D46144608F118002DED028B89B078
:1016880000AF02F0B1FCD8F8183073B3D8F81C30AA
:10169800D8F80490002B43690BBF4FF0080A4FF0AD
:1016A800100A4FF0020B4FF0040BB9F1000F2AD0CB
:1016B800A200EA46012B02F1070222F00702ADEB75
:1016C800020D6846ADEB020D694600F03F81022B22
:1016D80000F0D680002B6FD02246C847D546243765
:1016E800BD46BDEC028BBDE8F08FD8F81C30002B4E
:1016F800F5D0D8F804904FF0080A4FF0020B436970
:10170800B9F1000FD4D1FB61D8F80030BB61002BD0
:10171800E5D0D54802F0DAFC6B46BBF1020F7861E0
:1017280008EE103AFB6900F083816A465146A2EB45
:10173800C40295466200EA46B2FBFBF2AAEBC4007B
:1017480085460AEB8200EE46F861ADEB010DF869BB
:101758000EEB820CC7F810C0EC46ADEB010D00EBA8
:101768008201CCF80400CCF8081001EB820138693A
:10177800E946CCF80C1000EB8201CCF800A001EB94
:101788008202C9E900E0C9E90212012B00F0648372
:10179800022B00F06C82002B00F080816208494621
:1017A8006046BB69984718EE103A24379D46BD46F7
:1017B800BDEC028BBDE8F08F002C8DD01A46D8ED19
:1017C8000C6A9FEDB27A8446331D36F922E00CF19B
:1017D800080C07EE90EA33F922E00232F8EEE77AD5
:1017E800944267EE877A67EEA67A4CED027A07EEA6
:1017F80090EAF8EEE77A67EE877A67EEA67A4CED1C
:10180800017AE2D8F9612246C847984ED8ED0D6AA8
:101818000020F9692B1D9FED9E7A9FED9E6ADFEDF2
:101828009E5A22E0F4EEC67AF1EE10FAC0F2C884AD
:1018380047F6FE72D1ED017A45F8202066EEA77AC8
:10184800F4EEC77AF1EE10FA40F2F080F4EEC67AC0
:10185800F1EE10FAC0F2D58447F6FE7243F8202064
:101868000230083184427FF639AFD1ED007A66EE56
:10187800A77AF4EEC77AF1EE10FAD3D83246D9E750
:10188800002C3FF429AFD8ED0C6A84469FED787A96
:101898000022331D8E4656F822100CF1080C07EE74
:1018A800901A53F822100232F8EEE77A944267EE63
:1018B800877A67EEA67A4CED027A07EE901AF8EE70
:1018C800E77A67EE877A67EEA67A4CED017AE2D876
:1018D80071462246C7F81CE0C847664ED8ED0D6A27
:1018E8000020F9692B1D9FED6A7A9FED6A6ADFF87F
:1018F80094C120E0F4EEC67AF1EE10FAC0F27984D1
:101908003246D1ED017A45F8202066EEA77AF4EE4A
:10191800C77AF1EE10FA40F28780F4EEC67AF1EE5B
:1019280010FAC0F25E84324643F8202002300831B3
:1019380084427FF6D3AED1ED007A66EEA77AF4EE54
:10194800C77AF1EE10FAD5D86246DAE7002C3FF4F0
:10195800C3AED8ED0C6A86469FED477A4FF0000C6F
:10196800331D56F82C200EF1080E82F40002A2F561
:10197800000207EE902A53F82C200CF1020CF8EE26
:10198800E77A82F400026445A2F5000267EE877ADE
:1019980067EEA67A4EED027A07EE902AF8EEE77A1D
:1019A80067EE877A67EEA67A4EED017AD9D8F961A3
:1019B8002246C847314ED8ED0D6A0020F9692B1D23
:1019C8009FED337A9FED336ADFF8BCC01FE0F4EE79
:1019D800C67AF1EE10FAC0F2FC833246D1ED017AF4
:1019E80045F8202066EEA77AF4EEC77AF1EE10FAF1
:1019F80018D9F4EEC67AF1EE10FAC0F2DA8332465C
:101A080043F820200230083184427FF667AED1EDDA
:101A1800007A66EEA77AF4EEC77AF1EE10FAD6D815
:101A28006246DBE76246EBE762467DE7324615E74A
:101A3800A100D6466208073121F00701ADEB010D80
:101A4800EA46ADEB010D6946ADEB0E0D0AEB8200DF
:101A5800EC46ADEB0E0D01EB8202F861E946CCE9EC
:101A680000A0C9E9001290E65C9701240280FFFFFC
:101A7800000000300082FF7F0000003482FF7F00FA
:101A880040970124007E00807E0080FF000000381F
:101A980004FF7FBF04FF7F3F00FEFF46002C00F0DD
:101AA800C982BBF1020FD8F8242000F0FA827969C4
:101AB800C7F8049002EB810E5FED0C5A8A00DCF83F
:101AC80008100EF104007A611A46DCF80C303B610C
:101AD800331DD7F810903D61FD69C7E902CB8C46EC
:101AE800834636F92210D8ED0C7A06EE101A33F92F
:101AF800221006EE901A3EF92210B8EEC66A07EEDA
:101B0800101AF8EEE66A3BF92210B8EEC77A26EE0C
:101B1800256A66EEA56A27EE257A26EE276A66EE1E
:101B2800A76A27EE277A07EE901A51080232F8EED4
:101B3800E77A0AEB8100944280ED006A05EB8100A8
:101B480067EEA57AC0ED006A0CEB810009EB810114
:101B580080ED007A98ED0C7A67EE877AC1ED007A0D
:101B6800BFD8D7F804903D69D7E902CB6046620830
:101B7800BB6949469847D8F82C307A69D8ED0D6A80
:101B88001A441FED3D7A1FED3D6A2B1D904602F168
:101B9800040A5FED3F5A0022A84ED9E900EC51E053
:101BA800F4EEC67AF1EE10FAC0F2C78247F6FE707C
:101BB80045F822000CEB0100D0ED007A66EEA77A1A
:101BC800F4EEC77AF1EE10FA4BD9F4EEC67AF1EEDC
:101BD80010FAC0F2BA8247F6FE70BBF1020F43F862
:101BE80022002BD0D9F808000844D0ED007A66EE20
:101BF800A77AF4EEC77AF1EE10FA36D9F4EEC67A7F
:101C0800F1EE10FAC0F2CD8247F6FE7048F82200D5
:101C1800D9F80C000144D1ED007A66EEA77AF4EE0B
:101C2800C77AF1EE10FA1ED9F4EEC67AF1EE10FA80
:101C3800C0F2AF8247F6FE714AF82210023294428F
:101C48007FF6B1AD51080EEB81008900D0ED007A26
:101C580066EEA77AF4EEC77AF1EE10FAA0D830460D
:101C6800A6E73046B9E73146E6E73046CEE7002C2E
:101C780000F0E081BBF1020FD8F8243000F0E181D8
:101C88007A69DCF8081003EB820EC7F80490930019
:101C9800DFED6B5A0EF1040000227B61DCF80C309A
:101CA8003B61331DD7F810903D61FD69C7E902CB50
:101CB8008C46834656F82210D8ED0C7A07EE101A97
:101CC80053F82210B8EEC76A07EE101A5EF8221011
:101CD800F8EEC76A07EE101A26EE256A5BF822109E
:101CE800B8EEC77A66EEA56A26EE276A27EE257A49
:101CF80066EEA76A27EE277A07EE901A5108023295
:101D0800F8EEE77A0AEB8100944280ED006A05EB71
:101D1800810067EEA57AC0ED006A0CEB810009EB43
:101D2800810180ED007A98ED0C7A67EE877AC1ED33
:101D3800007ABFD8D7F804903D69D7E902CB60464E
:101D48006208BB6949469847D8F82C307A69D8EDBB
:101D58000D6A1A449FED3E7A9FED3E6A131D924626
:101D6800DFF8E4C00022FB612B1D364ED9E9008E56
:101D78004EE0F4EEC67AF1EE10FAC0F2FC8130467D
:101D880045F822000EEB0100D0ED007A66EEA77A46
:101D9800F4EEC77AF1EE10FA49D9F4EEC67AF1EE0C
:101DA80010FAC0F2EF813046BBF1020F43F822006F
:101DB8002AD0D9F808000844D0ED007A66EEA77A50
:101DC800F4EEC77AF1EE10FA35D9F4EEC67AF1EEF0
:101DD80010FAC0F2C98130464AF82200D9F80C003E
:101DE8000144D1ED007A66EEA77AF4EEC77AF1EEF7
:101DF80010FA1ED9F4EEC67AF1EE10FAC0F2AD81EF
:101E08003146F86940F82210023294427FF6CBAC92
:101E1800510808EB81008900D0ED007A66EEA77AB8
:101E2800F4EEC77AF1EE10FAA3D86046A8E7604648
:101E3800BAE76146E5E76046CEE700BF0280FFFFEC
:101E4800000000300082FF7F007E00800000003428
:101E580004FF7FBF04FF7F3F002C00F0EB807A690E
:101E68000021D8F82430C7F8109003EB820ED7F879
:101E78001C909300FD610EF104021FED0C6A7B615A
:101E8800331D154656F821204808D8ED0C6ABBF1D9
:101E9800020F82F40002A2F5000207EE902A53F81E
:101EA800212082F40002B8EEE77AA2F5000227EEBC
:101EB800067A07EE902A0AEB8002F8EEE77A27EE18
:101EC800267A67EE867A82ED007A09EB80024FEA7D
:101ED800800067EEA67AC2ED007A27D05EF821204E
:101EE80082F40002A2F5000207EE902A55F821209C
:101EF80082F40002B8EEE77AA2F5000227EE067A2D
:101F080007EE902ADCF80820F8EEE77A024427EE7C
:101F1800267A67EE867A82ED007A98ED0C7ADCF8FC
:101F28000C2067EE877A0244C2ED007A02318C42B7
:101F3800A8D8D7F8109060466208BB694946FD6981
:101F48009847D8F82C307A69D8ED0D6A1A441FEDF5
:101F5800407A1FED406A131D9246DFF8C4C2002282
:101F6800FB612B1DAB4ED9E9008E4EE0F4EEC67A2C
:101F7800F1EE10FAC0F2C580304645F822000EEBAB
:101F88000100D0ED007A66EEA77AF4EEC77AF1EE9A
:101F980010FA49D9F4EEC67AF1EE10FAC0F2BF8011
:101FA8003046BBF1020F43F822002AD0D9F80800C6
:101FB8000844D0ED007A66EEA77AF4EEC77AF1EE1F
:101FC80010FA35D9F4EEC67AF1EE10FAC0F2AE8006
:101FD80030464AF82200D9F80C000144D1ED007AC5
:101FE80066EEA77AF4EEC77AF1EE10FA1ED9F4EE8F
:101FF800C67AF1EE10FAC0F28B803146F86940F8E3
:102008002210023294427FF6CEAB510808EB8100D1
:102018008900D0ED007A66EEA77AF4EEC77AF1EE81
:1020280010FAA3D86046A8E76046BAE76146E5E734
:102038006046CEE7224649466046BB699847FFF7A7
:10204800B2BBC7F810B0002298ED0C6A331DDFED63
:10205800726AD7F81CB0786956F8221007EE901A01
:1020680053F82210B8EEE77A07EE901A51080232B8
:10207800F8EEE77A27EE267A0AEB810E94420BEB0C
:10208800810167EEA67A27EE067A67EE867A8EEDEC
:10209800007AC1ED007ADFD88300D7F810B07B61F1
:1020A8004DE61A46C7F810B098ED0C6A331DDFEDFF
:1020B8005B6AD7F81CB0786936F9221007EE101A57
:1020C80033F9221007EE901AB8EEC77A5108023297
:1020D800F8EEE77A27EE267A0AEB810E94420BEBAC
:1020E800810167EEA67A27EE067A67EE867A8EED8C
:1020F800007AC1ED007ADFD88300D7F810B07B6191
:1021080034E5F0EE675AFEEEE45A15EE900A34E72D
:10211800F0EE675AFEEEE45A15EE901A6EE7F0EE0E
:10212800675AFEEEE45A15EE900A3AE7F0EE675A5F
:10213800FEEEE45A15EE900A4BE767EEA57AFDEE3F
:10214800E77A17EE900A00B232E567EEA57AFDEE5F
:10215800E77A17EE900A00B23FE5F0EE675AFEEE16
:10216800E05A15EE901A4CE6F0EE675AFEEEE05A89
:1021780015EE900A30E6F0EE675AFEEEE05A15EEDC
:10218800900AFDE5F0EE675AFEEEE05A15EE900A69
:102198000AE667EEA57AFDEEE77A17EE901A09B21D
:1021A8004AE567EEA57AFDEEE77A17EE900A00B2E7
:1021B8002CE5F0EE675AFEEEE45A15EE902A1FE47D
:1021C80067EEA57AFDEEE77A17EE902A12B2FFF7CE
:1021D80031BBF0EE675AFEEEE45A15EE902AFFF78F
:1021E800FDBBF0EE675AFEEEE05A15EE902AFFF7B7
:1021F8009BBBF0EE675AFEEEE05A15EE902AFFF709
:1022080080BB67EEA57AFDEEE77A17EE902A12B248
:10221800FFF724BB82FF7F00000000300000003879
:102228007E0080FF30B5184C154685B0046004F177
:10223800080EEC460FC98EE80F00D4ED047AF5EECF
:10224800C07A8CE80F00F1EE10FA1ADDB7EE006ADA
:1022580094ED057A27EE277AC6EE276A84ED0D7A83
:10226800C4ED0C6A6DB1204640F8185F01F0BCFE61
:10227800064903690020064A2162A262E36005B0AC
:1022880030BD012005B030BD40970124002000304A
:102298000000003000680830704700BFB1F5807F4B
:1022A80003680A4628BF4FF48072B1F5807F9A60B0
:1022B80094BF0020012070470068183001F0F4BE78
:1022C80070B504688AB0A369E160CBB104F1180560
:1022D800284601F089FE8446EE46E668BCE80F0011
:1022E800AEE80F00BCE80F00AEE80F009CE8030062
:1022F8008EE8030069462846049601F07DFDF8B98A
:10230800E069D8B104F11C05284601F06DFE844649
:10231800EE46E468BCE80F00AEE80F00BCE80F002A
:10232800AEE80F009CE803008EE8030069462846E3
:10233800049401F061FD003818BF01200AB070BD97
:1023480001200AB070BD00BF30B5046883B00D46E7
:10235800E3694BB1A3680020E26A616A9B000090C0
:1023680004F11C0001F042FEA3680748A26A9B0022
:10237800216A009004F1180001F038FE0020C4E939
:10238800005003B030BD00BF7116000810B4074BF1
:102398004FF07E5130240022032019619C60D860E0
:1023A8005DF8044B5961C3E9062270474097012440
:1023B800F6EE007A9FED166A20EE207A0160F7EEBD
:1023C800006A80ED036A80ED020A27EE277AC6EEDE
:1023D800877AF4EEE67AF1EE10FA11DDF0EE667A1D
:1023E8004FF07E514FF0000C02760022C0ED017ACA
:1023F800C0F814C0016143768276C0ED070A7047C1
:10240800F4EEC67AF1EE10FAEAD5F0EE467AE7E78E
:10241800000000000268037E128807EE902AFBEE97
:10242800C87A1BB1B7EE007A77EE677AD0ED056A05
:1024380090ED047A77EEE67A437E67EE877A0BB101
:10244800F1EE677A90ED030A90ED017A77EEC07AA3
:10245800A7EE270A80ED030A704700BF837E80ED50
:10246800020AABB9D0ED077A27EE800AF6EE007AB9
:10247800B7EE007A20EE270AC7EE007AF4EEC77AA4
:10248800F1EE10FA07DDF0EE477AC0ED017A7047F9
:10249800DFED067AE8E7F5EEC07AF1EE10FAF4D54A
:1024A800DFED037AC0ED017A704700BF6F12033B7E
:1024B8000000000030B585B004460025ADF80C10CA
:1024C800ADF80820ADF8043002F09AFDBDF80C20F4
:1024D8004FF48073206004F118002283BDF80820AF
:1024E8006383E383A283257100F00AFC04F11C00D6
:1024F80000F006FC9FED060A019904F1080000F0BF
:10250800ADF84FF6FF736562238405B030BD00BF98
:1025180000000000F8B5044602F072FD00262368AA
:102528002671834205D104F10800BDE8F84000F0A7
:10253800AFB8012794F82050206004F11800BD407E
:10254800277100F0B9FC6DB2284394F82150BD40C2
:1025580084F8200004F11C0000F0AEFC94F8203050
:102568006DB2666203F003032843022BC0B284F8FD
:10257800210009D000F003000228D4D1002BD2D1C9
:102588004FF0FF336362CEE78307CCD16762CAE7B7
:1025980030B585B004469FED110A9DF82050ADF87E
:1025A8000C100399ADF808202A46ADF804308DEDDB
:1025B800000A0CF073FD9DED000A2A46029904F109
:1025C8001C000CF06BFD9DED000A2A46019904F1F0
:1025D800380005B0BDE830400CF060BD00007A441A
:1025E80010B52DED028BF0EE608A0446B0EE418AFC
:1025F8000CF078FD04F11C00B0EE680A0CF072FDD6
:10260800B0EE480A04F13800BDEC028BBDE810407A
:102618000CF068BD38B50C46054691ED000A0CF083
:1026280061FD94ED010A05F11C000CF05BFD94EDD1
:10263800020A05F13800BDE838400CF053BD00BF70
:1026480010B504460CF060FD04F11C000CF05CFDB4
:1026580004F13800BDE810400CF056BD70B50446D2
:1026680082B0C1F30726CDB2ADF8041002F0C8FC61
:102678004FF480724FF001232060A01DA571A28045
:10268800E671A36002B0BDE8704000F039BB00BF3E
:1026980038B5044602F0B4FC002223682271834254
:1026A80010D00122A57AE37A954020602271A01DFE
:1026B8006DB243B900F000FC40B22843C0B27F2895
:1026C800A0720AD038BD00F0F7FBB0FA80F04009DC
:1026D8002843C0B27F28A072F4D102F091FC07EE23
:1026E800900AF8EE677AC4ED037A38BD82B04FF0ED
:1026F800000C0323ADF80410BDF8042080F810C0C6
:102708000280438002B070472DE9F04FBE4E00258D
:102718008FB0BE4C037006F1400342600746019239
:102728008846202229463046C4F85831C4F85461F6
:10273800CDE90355CDE90555CDE90755CDE909554D
:10274800CDE90B550EF00CFF2022294604F59970AF
:10275800C4F82151C4F82551C4F82951C4F82D51A1
:102768000EF0FEFE019B84F8385284F820317A6816
:10277800002A5FD02B464146B64604F59075994627
:102788004FF0010A03EB0310D1F800B0D1F8048030
:102798000133D1F808C02218CE6844F800B0C2F856
:1027A8000480C2F808C0D660087C2EF8029B10741A
:1027B8000A7C05F8012F002A69D07A68113184F85B
:1027C80038A29A42DED84FF4802291489DF804300E
:1027D80008214FF000084FF00009C4F874310023B5
:1027E800C4E957020122C4F8643184F87031C4E99D
:1027F8005A2194F83812C4E9608981B3C4F8882151
:10280800002284F8713184F878313B78C4E9632276
:10281800A3B3012200200121013B84F89421C4E9DB
:102828006801082B2CD8DFE803F0ABB0B5BABFC4F9
:10283800C9CFD6009DF804300121C4F86421C4F83A
:1028480074314FF4802384F87021714AC4E9572306
:1028580008230022C4E95A130023C4E96023012392
:10286800002284F87131002384F878310323C4F8F6
:1028780088313B78C4E96322002BCAD184F89431AB
:10288800644803F01BFC034638B1FFBEFEE77A68D4
:1028980011319A423FF676AF95E703A95D48039355
:1028A80003F06AFD0546002868D1022240F2FF7352
:1028B800CDE9082300230422CDE90A2394F8203126
:1028C800002B00F0D5804FF0060921E0022B00F024
:1028D8008980012B40F0C4809AF80130012B00F068
:1028E800C180002B4C4B18BF002306A94948CDE9ED
:1028F800063903F00FF8002840F0BF80013594F83E
:102908002031EDB2AB4240F2B380444B53F82590EE
:102918002FB207EB071704EB070A504600F0F0F94F
:1029280005EB051323441B7C042B7DDC022B00F3F1
:10293800918000F08D806319002283F81021E35DF7
:10294800002BC3D19AF80130062B00F08580072BA5
:1029580000F08A80022B00F09680032B00F095800F
:10296800002B00F09680012B00F09180042B00F0E2
:102978009280052B2A4B18BF0023B6E7FFBEFEE75F
:1029880003224023C4E966237AE707226023C4E9C7
:10299800662375E70F228023C4E9662370E71F22A8
:1029A800A023C4E966236BE73F22C023C4E966235A
:1029B80066E77F22E023C4E9662361E7FF224FF43C
:1029C8008073C4E966235BE740F2FF124FF490730B
:1029D800C4E9662354E740F2FF324FF4A073C4E918
:1029E80066234DE79AF80130042B37D0052B3DD0EC
:1029F800002B40D0012B42D0022B42D0032B094B95
:102A080018BF002371E700BF004000307897012409
:102A180000200240D49801240002B02500360108A5
:102A28000000B84F0020903603233E1D04EB050834
:102A38004FF0000B264488F8103130460BF1010B9B
:102A480000F05EF998F8103104365B45F5DC76E75E
:102A58000123EAE70223E8E7104B46E7104B44E777
:102A6800002342E70F4B40E70F4B3EE70F4B3CE795
:102A78000FB0BDE8F08F0E4B37E7FFBEFEE70D4BFA
:102A880033E70D4B31E70D4B2FE70D4B2DE70D4B82
:102A98002BE70D4B29E70D4B27E700BF0800900CEB
:102AA8001000C0102000F0148000501D000180218B
:102AB8000004002A0008302E001060320040C03A9E
:102AC8000080F03E00005247000021430000844B84
:102AD80038B5094C40F2FF724FF0011104F5AE759C
:102AE800284603F0F7FB94F82021D4F8541128461F
:102AF800BDE8384003F062B978970124034B0F29E9
:102B0800D3F8540198BF00EB41007047789701242F
:102B1800214B02689A4200D07047204A002320487F
:102B2800D2F8D81030B51F4C41F0200183B0C4F85A
:102B3800C001092004F5E075C4E971034FF4806011
:102B4800C2F8D810D2F8D8204FF40061C4E9733025
:102B580094F8380202F02002C4F8D4114FF400515E
:102B6800984201922846C4F8D811C4E97833019BE9
:102B780014BF00234FF48073C4F8DC3103F022FE45
:102B880008B1FFBEFEE704F5AE73C4F8A851C4F857
:102B9800F83103B030BD00BF0020024000440258A5
:102BA8004000024078970124014804F083B900BF2F
:102BB8003899012402682DE9F84F4B4B9A4201D00D
:102BC800BDE8F88F494D95F83832002BF8D095F8C4
:102BD8002031002B77D0002405F10C0905F59976F2
:102BE80005F59077A04613E003F0010117F811BC32
:102BF800A9F1080000F06EF9BBF1010F25D895F88E
:102C08002031013409F111090236A2B293422BD9BD
:102C180017F8012F002AF4D0D5F854310021327862
:102C280033F81400D5F8583103EB041323F81200D5
:102C3800338801339BB233805FFA83FA3A789A4239
:102C4800D2D88A46A6F80080D0E7CAF34001A9F195
:102C5800040000F03FF9BBF1020FCAF38001CED0A7
:102C6800484600F037F9CAE7002395F838022049AA
:102C780009229842C5F8C8314FF48060C5F8C011E0
:102C8800C5F8C4214FF400614FF40052C5F8CC31A7
:102C980008BF4FF48073C5F8D821C5E97401002234
:102CA8001448C5E97732C5F8E42103F08BFD08B173
:102CB800FFBEFEE795F82021D5F854110E48BDE86F
:102CC800F84F03F07BB80A4909224FF48060C5F831
:102CD800C831C5E970124FF400614FF40052C5E9DC
:102CE8007330C5E97512DAE70020024078970124AD
:102CF8004000024038990124D4980124704700BF4D
:102D08008378022B30B504468FB037D0032B33D0ED
:102D1800012B31D000230A93E378012B2AD0022B10
:102D280028D000230B93002320460C9302F06CFC60
:102D38000546204602F070FC23780990082B13D82A
:102D4800DFE803F01F3245586B7E91A40500594B0C
:102D5800D3F8E02042F48072C3F8E020D3F8E030E2
:102D680003F480730893089B09A9284604F0F4FB30
:102D78000FB030BD0B93D6E70A93CDE711230A9322
:102D8800CAE74C4B09A92846D3F8E02042F00102D3
:102D9800C3F8E020D3F8E03003F001030093009B70
:102DA80004F0DAFB0FB030BD424B09A92846D3F82E
:102DB800E02042F00202C3F8E020D3F8E03003F04C
:102DC80002030193019B04F0C7FB0FB030BD394BE0
:102DD80009A92846D3F8E02042F00402C3F8E0200D
:102DE800D3F8E03003F004030293029B04F0B4FB31
:102DF8000FB030BD2F4B09A92846D3F8E02042F088
:102E08000802C3F8E020D3F8E03003F00803039386
:102E1800039B04F0A1FB0FB030BD264B09A928463F
:102E2800D3F8E02042F01002C3F8E020D3F8E030F5
:102E380003F010030493049B04F08EFB0FB030BD25
:102E48001C4B09A92846D3F8E02042F02002C3F819
:102E5800E020D3F8E03003F020030593059B04F04D
:102E68007BFB0FB030BD134B09A92846D3F8E020EF
:102E780042F04002C3F8E020D3F8E03003F040030A
:102E88000693069B04F068FB0FB030BD094B09A9F7
:102E98002846D3F8E02042F08002C3F8E020D3F8B7
:102EA800E03003F080030793079B04F055FB0FB055
:102EB80030BD00BF0044025838B5054602F0A4FBF7
:102EC8000446284602F0A8FB01462046BDE83840E3
:102ED80004F04ABD70B506460D4602F095FB04465F
:102EE800304602F099FB2A1E0146204618BF0122EF
:102EF800BDE8704004F03EBD0023122270B586B0D4
:102F0800CDE9022304930368032B01D80423059316
:102F1800061D841D304602F077FB0546304602F058
:102F28007BFB034601A92846019304F015FB2046C4
:102F380002F06AFB034620461C4602F06DFB01A91D
:102F480003462046019304F007FB06B070BD00BF9E
:102F5800634A0368934210B58CB028D0614A934203
:102F680058D0614A934200F09480604A934201D05D
:102F78000CB010BD5E4C5F48D4F8E03043F002035B
:102F8800C4F8E030D4F8E03003F002030A930A9B57
:102F9800FFF7B2FFD4F8F43043F08003C4F8F430FC
:102FA800D4F8F43003F080030B930B9BE0E7504C0C
:102FB8005148D4F8E03043F00203C4F8E030D4F8C4
:102FC800E03003F002030193019BFFF795FFD4F86B
:102FD800E83000221F2043F400131146C4F8E830FB
:102FE800D4F8E83003F400130293029BD4F8D830E5
:102FF80043F00103C4F8D830D4F8D83003F0010303
:103008000393039B03F02CFA1F200CB0BDE810407B
:1030180003F064BA364C3948D4F8E03043F0800302
:10302800C4F8E030D4F8E03003F080030493049B44
:10303800D4F8E03043F00203C4F8E030D4F8E030CC
:1030480003F002030593059BFFF756FFD4F8E83019
:103058000022212043F480031146C4F8E830D4F854
:10306800E83003F480030693069BD4F8D83043F085
:103078000103C4F8D830D4F8D83003F0010307931B
:10308800079B03F0EDF921200CB0BDE8104003F0D8
:1030980025BA1B48FFF730FF154B00224820D3F80C
:1030A800E840114644F40004C3F8E840D3F8E84087
:1030B80004F400040894089CD3F8D84044F00104B0
:1030C800C3F8D840D3F8D83003F001030993099B1B
:1030D80003F0C6F948200CB0BDE8104003F0FEB973
:1030E8000054004000580040005C0040001C00589C
:1030F80000440258409C0124B8990124909A012464
:10310800689B01242DE9F0431A4B87B000254FF046
:1031180010099E46EC46184BFF22E04667461A7097
:103128000EF118060EF13004CDE90055CDE902552F
:10313800ADF80090BCE80F00CDE90455AEE80F00EB
:103148009CE803000095ADF800908EE80300B8E80D
:103158000F000FC69CE803000095ADF8009086E8C4
:1031680003000FCF0FC49CE8030084E8030007B0F6
:10317800BDE8F08370000024B499012410B5EFF382
:10318800108472B6084B1A78120602D504B962B6D2
:1031980010BD1B78D82205485BB202FB030014302F
:1031A80003F088FEF2E700BFB4990124B89901241E
:1031B800014805F077BA00BF449A0124014805F098
:1031C80071BA00BF1C9B0124014805F06BBA00BF0F
:1031D800F49B01242DE9F0430F68D8243F4D85B0B6
:1031E80007FB04F4032F05EB0403036040DCCB6802
:1031F8000E46012B3CD84DD04FF0D808B646DFF824
:10320800FC9008FB0758BEE80F00C446ACE80F0066
:10321800DEF800300DF1100ECCF80030D8F808C0F8
:1032280099E80F000EE90F000EEB8703BCF1010FC0
:1032380053F8103CC8F88C3031D0BCF1020F42D0A2
:10324800BCF1000F35D0317C8C34D823002201200A
:103258002C4403FB07534900C3E92602C3F8941022
:103268002046C3E92822C3E92A2205F00DF818B13F
:10327800012005B0BDE8F0830146204605F01EFA9E
:103288000028F5D10146204605F042FA003818BF5B
:103298000120EEE70B7C103B672BADD9E8E702F085
:1032A8001DF80F4B98420CBF0E4B0F4BC8F89030CF
:1032B800C9E702F013F80A4B98420CBF0B4B0C4BB2
:1032C800C8F89030BFE702F009F8054B98420CBFE8
:1032D800084B094BC8F89030B5E700BFB8990124EE
:1032E800000E27072D0FB0303211D0205F439060B9
:1032F8008A62E030200BA0101A098010801501089E
:103308002DE9F041D0F8008082B00D4617461E46E0
:1033180008F18C04204605F0CDF92028FAD1D8F818
:103328000C3073B96D002046089C33463A46A9B262
:10333800009404F0FFFF003818BF012002B0BDE878
:10334800F081089B32463946204605F0C7F8F2E777
:10335800044B10221A7483F8E82083F8C02183F8FC
:1033680098227047B899012430B5002395B04FF4DE
:103378008071062204460B9306921393CDE90C1331
:10338800CDE90E33CDE9113301F0AAFF07282BD080
:1033980004F1100541F2883206A9284605F0CAFF53
:1033A80028B10123184684F85C3015B030BD0222DC
:1033B800022306A92846CDE9002310220123CDE9DE
:1033C800022300224FF48003CDE9042305224FF0A5
:1033D800807306926A460F9341F2883306F016F915
:1033E8000028DED115B030BD0323012084F85C30FD
:1033F80015B030BD0000000070B50023A4B04FF038
:1034080080724FF480750446ADF806300D93CDE90F
:1034180010320122CDE90E53CDE91223CDE9143340
:10342800002943D0F02300F1100508AEADF80630AE
:10343800C02341F2883231462846089305F07AFFC6
:1034480028B10123184684F85C3024B070BD41F2DD
:1034580088320DF10601284605F0D6FF03460028FC
:10346800EFD105224FF480711E93284616924FF033
:1034780080721B9321931F9202AA9FED1F7BCDE9B7
:103488001C13CDE922338DED027B9FED1D7B41F2AC
:10349800883316A98DED047B9FED1B7B8DED067B94
:1034A80006F0B4F80028CCD124B070BD00F11005A6
:1034B80008AE612341F2883231462846089305F068
:1034C80039FF0028BDD141F288320DF106012846A6
:1034D80006F018F80028B4D1BDF80630204623F0CD
:1034E800780343F04003ADF80630FFF73DFF0028AE
:1034F8009ED0A6E7AFF300800000000001000000A6
:103508001000000001000000000000000000400062
:103518002DE9F04F00234FF4807501264FF0807895
:1035280004462DED028BABB08DF807301393219331
:10353800299314950E96CDF85C80CDE91533CDE925
:103548001863CDE91A33CDE92253CDE92433CDE907
:10355800273306231C9301F0C3FE072808D004F183
:10356800100741F288321CA9384605F0E3FE40B145
:103578000123184684F85C302BB0BDEC028BBDE803
:10358800F08F4FF0020A4FF0020B4FF0050941F29D
:10359800883308AA1CA93846CDF89480CDF87090D5
:1035A8009FED2D8BCDE908AB4FF0000A4FF4800B4F
:1035B8008DED0A8BCDE90CAB06F028F80028D7D1A1
:1035C80041F2883238460EA905F0B4FE0028CFD162
:1035D800402341F288320DF1070138468DF8073053
:1035E80005F012FF0028C3D141F288330EA902AAC0
:1035F8003846CDF83890CDF85C809FED197B8DED7D
:10360800048BCDE906AB8DED027B05F0FFFF034689
:103618000028ADD1CDF870904FF00109CDF8948015
:103628004FF00008219308AA29931CA9384622952F
:10363800CDE92333CDE9273341F288338DED0A8B69
:10364800CDE90CABCDE9088905F0E0FF002893D05F
:10365800304684F85C608FE710000000010000002D
:1036680040000000400000002DE9F043624CA3B088
:103678000D46046001F034FE072800F0A980286890
:1036880023466968AA6807C31E46AB8926F8043B27
:103698003046257B677B05F02FFEE0B9574B012D9F
:1036A8004FF00108E061236114BF4FF480134FF419
:1036B8000003C4E9058893FAA3F3B3FA83F34FF43C
:1036C8008079013BC4F82490C4E90B00304623629A
:1036D80005F0A6FD38B10122134684F85C2018468F
:1036E80023B0BDE8F08366230B90139041F2883233
:1036F80006A90693CDE90C90CDE90E00CDE911009D
:10370800304605F017FE0028E5D1992341F28832AA
:1037180006A93046069305F00DFE0028DBD10523E7
:103728001C9019906A4614934FF08073219014A945
:103738001D9341F288339FED2A7BCDE91A90CDE99C
:103748001F008DED007B9FED287B30468DED027BC1
:103758009FED277B8DED047B05F058FF0028BAD13B
:1037680029462046FFF748FE0028B4D12046FFF737
:10377800CFFE03460028AED1002FB0D118933046B3
:103788000027002606AA14A9CDF86890CDE91F33B2
:10379800EB2314934FF440631B934FF40053179398
:1037A8004FF440431C93A0231693062319934FF01C
:1037B800805321934FF04073CDE906671D9305F0C0
:1037C8009DFF034600288AD0434684F85C8086E73C
:1037D80001230322184684F85C2023B0BDE8F08357
:1037E80000000000010000001000000001000000BF
:1037F8000000000000004000189D01240050005205
:103808002DE9F04F8FB0414B0024026800AF9A4277
:103818007C63C7E90944C7E90B4403D03C37BD467C
:10382800BDE8F08F3A4B40F609213A48EB46D3F809
:10383800D42007F11C0607F1220A4FF0020942F4CE
:1038480080424FF00308C3F8D420D3F8D42002F400
:103858008042BA60BA68D3F8E02042F04002C3F868
:10386800E020D3F8E02002F04002FA60FA68D3F8CA
:10387800E02042F02002C3F8E020D3F8E02002F074
:1038880020023A613A69D3F8E02042F01002C3F806
:10389800E020D3F8E02002F010027A617A69D3F8C8
:1038A800E02042F00202C3F8E020D3F8E030F861EB
:1038B80003F002033984BB61174B7B60BB697B68EB
:1038C80053F8040F7B6001F09FFE7B68054618687B
:1038D80001F0A2FE16F8013B786207F124012846A0
:1038E800C7F830807B63C7E90A9403F035FE564574
:1038F800E5D100225C20114602F0B2FD5C2002F006
:10390800EDFD3C37DD46BD46BDE8F08F0050005266
:10391800004402580A0A0909749D0124114B0268DF
:103928009A4200D07047104A70B5D2F8D4300F4C84
:1039380023F4804304F11806C2F8D43054F8040F75
:1039480001F062FE0546206801F066FE0146284641
:1039580003F042FFB442F1D15C20BDE8704002F0B0
:10396800CBBD00BF0050005200440258749D012492
:10397800014805F04FBF00BF289D0124084B1A1DC0
:10398800981D03F1080110B49C1C9A6603F10A0201
:10399800C3E91834C3E91B015DF8044B5A67704743
:1039A800189D01240C4A82B00C4BD2F8DC1041F06F
:1039B8004001C2F8DC10D2F8DC2002F0400201928B
:1039C800019A1A6822F020021A601A6842F004026A
:1039D8001A6002B0704700BF00440258001802483D
:1039E80038B52DED028B104DF0EE408AB0EE608AAE
:1039F80001F006FB044604E001F002FB001B64280A
:103A08000FD86B68DB07F7D5D5ED027AFBEEE07AC5
:103A180038EE688AB0EE680AA8EE270ABDEC028B79
:103A280038BDDFED027AF3E7001802480000000015
:103A380038B5036871B9026A00F1280500F5AC745D
:103A4800012A0CBF002140218BBB1D4B5722C0F817
:103A580058310DE0426A00F1C00500F5E874012A0A
:103A68000CBF00214021EBB1164B5A22C0F8D031CF
:103A780000232046C4E901214FF480524FF48061AD
:103A8800636262614FF48042C4E903314FF480738A
:103A9800C4E906234FF40033236202F093FE58B1C1
:103AA800FFBEFEE7084B5822C0F8D031E0E7074BCD
:103AB8005922C0F85831DBE7C5E92044A56338BD71
:103AC80010000240700002402800024058000240E6
:103AD8002DE9F043821D05468BB0031D05F10A014F
:103AE8000830CDE9052305F10C02AB69CDE90701E2
:103AF8000992002B3DD0EB69B3FA83F84FEA5818C6
:103B08000123022205AE0AAF4FF006090393CDE95F
:103B1800012356F8044B2B792278934216D02B6850
:103B2800F3B1012B02D1F2B10A230493204601F02C
:103B380073FD03462046009301F066FD694603F0D5
:103B48000BFDBE42E5D10BB0BDE8F083697963781F
:103B58009942E4D1B8F1000FF3D02B68002BE0D1E3
:103B6800CDF81090E2E76378022B14BF0A230823EC
:103B7800DBE74FF00108C3E7534A0368934230B5C7
:103B880005468BB055D02032934252D04F4A9342CB
:103B980004D02032934201D00BB030BD4C4C4D487C
:103BA800D4F8E03043F00103C4F8E030D4F8E03052
:103BB80003F001030593059BD4F8E03043F00803B4
:103BC800C4F8E030D4F8E03003F008030693069B0D
:103BD800D4F8E03043F04003C4F8E030D4F8E030E3
:103BE80003F040030793079BD4F8F03043F4000335
:103BF800C4F8F030D4F8F03003F400030893089BBD
:103C0800FFF766FFD4F8D830296843F001032F4A3C
:103C18003048C4F8D830891AD4F8D83018BF0121F0
:103C280003F001030993099B0BB0BDE83040FFF78F
:103C3800FFBE274C2848D4F8E03043F00103C4F80D
:103C4800E030D4F8E03003F001030093009BD4F88F
:103C5800E03043F01003C4F8E030D4F8E03003F06B
:103C680010030193019BD4F8E03043F04003C4F8FB
:103C7800E030D4F8E03003F040030293029BD4F81C
:103C8800F03043F48003C4F8F030D4F8F03003F493
:103C980080030393039BFFF71BFFD4F8D8302968F0
:103CA80043F00103084A0C48C4F8D830891AD4F8FC
:103CB800D83018BF012103F001030493049B0BB013
:103CC800BDE83040FFF7B4BE04580140045C014031
:103CD80000440258EC9F0124909D0124014803F000
:103CE800E9B800BFE89E0124014803F0E3B800BF2B
:103CF800609F0124014803F0DDB800BF44A10124FE
:103D0800014803F0D7B800BFBCA101241A4A0368D0
:103D1800934210B40BD02032934208D0174A9342F2
:103D280016D02032934213D05DF8044B7047144BE1
:103D38000022D3F85442C3F85822002CF4D0D3F808
:103D48004802D3E9931223465DF8044B52081847FA
:103D58000B4B0022D3F8B044C3F8B424002CE3D0B2
:103D6800D3F8AC24D3F8A814D3F8A40452082346F3
:103D78005DF8044B184700BF04580140045C01403B
:103D8800909D0124184A0368934210B40BD0203246
:103D9800934208D0154A934217D02032934214D048
:103DA8005DF8044B7047124BD3E994245208C3F8CA
:103DB8005822002CF4D0D3E99201234601EB82016A
:103DC80000EB82005DF8044B1847094BD3F8AC248C
:103DD800D3F8B0445208C3F8B424002CE0D0D3F888
:103DE800A814D3F8A404E8E704580140045C01408F
:103DF800909D0124000000002DE9F04F0C684FF45D
:103E08001776754F87B004FB06F6012C07EB060AF8
:103E1800C0F800A000F3A0800D468E464FF00008C1
:103E2800D44669A3D3E9002369A1D1E90001CDE90A
:103E3800022306ABCAF8508203EB8403CDE90401E0
:103E480053F810BC53F8083CCAE992880193BEE8BD
:103E58000F00ACE80F00BEE80F00ACE80F00019BB4
:103E68009EE80300CAF828B0CAF8C0308CE80300FE
:103E78002B69042B0CD8DFE803F0737D87910300CE
:103E88004FF41773554A03FB04739A64C3F8E02090
:103E9800AA692B6A002A43D0002B4FF4177308BF76
:103EA800022203FB047318BF0322DA6201221A6399
:103EB800EA696B6A002A40D1191E4FF4177318BFBC
:103EC800012103FB0473C3E931126B69022B05D886
:103ED800434A12F80380434A52F823904FF4177369
:103EE80006F128004246494603FB0474002338447F
:103EF80063646363E365C4F8DC30C4F8CC30C4F8A9
:103F0800F430C4E90F33C4E91533C4E93533C4E9DF
:103F18003B33022307F020FD002849D0FFBEFEE70F
:103F2800191E4FF4177318BF012103FB0473C3E96B
:103F38000B12EA696B6A002ABED0002B4FF4177384
:103F480008BF022203FB047318BF0322C3F8C4206E
:103F58000122C3F8C820B8E7012007B0BDE8F08FF8
:103F68004FF417734FF4FA5203FB04739A64C3F8BF
:103F7800E0208DE74FF417734FF47A5203FB047374
:103F88009A64C3F8E02083E74FF417734FF4FA42BA
:103F980003FB04739A64C3F8E02079E74FF41773BE
:103FA8004BF6803203FB04739A64C3F8E0206FE792
:103FB80006F1C000022342464946384407F0CCFCCB
:103FC8000028CAD0FFBEFEE704580140045C014047
:103FD80024580140245C0140909D01240077010091
:103FE80040360108443601080068704770B5046817
:103FF80082B015460E46C4F85032C4E99212069AA9
:10400800C4F85422A269012A26D0626A012A9AB207
:1040180011D0294604F1C000019207F059FD236A26
:10402800019A012B10D0294604F1280007F050FD11
:10403800002002B070BD04F1C000019207F0DAFD63
:10404800236A019A012BEED1314604F1280007F0CA
:10405800D1FD002002B070BD226A012A9AB211D0A7
:10406800294604F12800019207F032FD636A019A9B
:10407800012B10D0294604F1C00007F029FD0020CB
:1040880002B070BD04F12800019207F0B3FD636A25
:10409800019A012BEED1314604F1C00007F0AAFDC8
:1040A800002002B070BD00BF03681B69042B05D84F
:1040B800044A02EB830393ED000A70479FED020A5E
:1040C800704700BF5036010800803B470368D3F8AB
:1040D8005802704770B50446554800234FF4806570
:1040E800C4F8A8004020C4F8CC301646C4F828010B
:1040F80094F89801C4F8B0300028C4F82C31C4F8FA
:104108003C3114BF4FF480700020C4F84431C4F827
:10411800C4004FF44030C4F83051C4F8C800C4F8A3
:1041280040014448C4E92D35C4E92F33C4E94D336F
:104138006368C4F82001072B0BD8DFE803F03A4383
:104148004C555E67700451225223C4F8AC20C4F861
:10415800243181B9BEB994F8983153B1D4F8A81074
:10416800E2690B6823F008030B60136843F010033F
:104178001360002070BD04F1A805284602F022FB58
:1041880048B1FFBEFEE704F59075284602F01AFB19
:1041980040B1FFBEFEE704F11C03C4F89450C4F814
:1041A800E030D7E704F11C03C4F89050C4F8583144
:1041B800D1E729222A23C4F8AC20C4F824310029E5
:1041C800C8D0D8E72B222C23C4F8AC20C4F824315B
:1041D8000029BFD0CFE72D222E23C4F8AC20C4F885
:1041E80024310029B6D0C6E73F224023C4F8AC20CA
:1041F800C4F824310029ADD0BDE741224223C4F8D8
:10420800AC20C4F824310029A4D0B4E747224823BD
:10421800C4F8AC20C4F8243100299BD0ABE74F2266
:104228005023C4F8AC20C4F82431002992D0A2E766
:104238008800024070040240D0F894301B682DE9D1
:10424800F0415968C0B0D0F89C5106464942D0F8B0
:10425800A842D5F80031C9B2D5F80421013B0C1B9E
:104268009B1AD5F80421E4B2DBB2A34294BFD2185A
:104278001219C5F80421D5F80431B3F5807F05D9A2
:10428800D5F80431A3F58073C5F80431C6F8A8122F
:10429800D5F80021A718B7F5807F23D9C2F5807813
:1042A800A918D2F5807222D1444502D0B4EB080295
:1042B8002CD1FFB206F5D078C5F80071D6F8A40263
:1042C8002518B5F5807F8CBFC0F5807727461FBBC2
:1042D800BC4201D0E21B0ED1EDB2C6F8A45240B0E8
:1042E800BDE8F081A9182246002CE2D0A046684615
:1042F8000DF028F9D8E70DEB0701EDB240460DF0B7
:1043080021F9C6F8A45240B0BDE8F0810DEB0800D1
:1043180029460DF017F9CCE740443A4669460DF0B6
:1043280011F9D5E72DE9F04F814683B00E461746BF
:104338001D4600F11C04204607F0EAFF2028FAD1A8
:10434800012200214846FFF7C5FE8046002835D1E6
:10435800EFF31083019372B6DFF888B00C9B99F9DC
:104368000420DFF884A0DFF88490CBF800300D9BA0
:1043780089F80020CAF800300DB11846A847BAB22B
:104388003146204607F0ACFD30B9019B03B962B64F
:10439800404603B0BDE8F08F0023CBF80030CAF8E0
:1043A8000030FF2389F800300C9B8BB101210D9858
:1043B80088469847019B002BEAD1E8E70C9B53B14C
:1043C80001210D9888469847404603B0BDE8F08F14
:1043D8004FF00108D9E74FF00108404603B0BDE8A7
:1043E800F08F00BF54BA01245CBA012458BA0124E2
:1043F8002DE9F04F814683B00E4617461D4600F161
:104408001C04204607F084FF2028FAD1002201214D
:104418004846FFF75FFE8046002835D1EFF310834A
:10442800019372B6DFF888B00C9B99F90420DFF885
:1044380084A0DFF88490CBF800300D9B89F8002029
:10444800CAF800300DB11846A847BAB2314620461E
:1044580007F098FD30B9019B03B962B6404603B036
:10446800BDE8F08F0023CBF80030CAF80030FF23F6
:1044780089F800300C9B8BB101210D98884698472C
:10448800019B002BEAD1E8E70C9B53B101210D9861
:1044980088469847404603B0BDE8F08F4FF00108C2
:1044A800D9E74FF00108404603B0BDE8F08F00BFE0
:1044B80054BA01245CBA012458BA01242DE9F04108
:1044C8000D4682B0EFF3108772B6002948D1FF235A
:1044D800254A264C237013682BB10020294610600A
:1044E800234A1068984723781B0625D5DFF888806B
:1044F8000025204E444605E001351C3406F52B7690
:10450800092D19D0A369012B1BD0002BF4D12168E8
:1045180030460029F0D06369019323690093E3686A
:104528002289FFF765FF0028E6D1C5EBC50508EB32
:10453800850348F82500586007B962B602B0BDE89F
:10454800F08161680029D7D06369304601932369F7
:104558000093E3682289FFF7E5FE0028CCD1E4E761
:1045680009F0D2F9B3E700BF54BA012458BA0124BC
:104578005CBA012448A20124B8000024F0B5002345
:1045880087B0022204460493CDE9022302784368E7
:104598000B2A4FEA430523D1A2780B2A02D1002027
:1045A80007B0F0BD47496B1C474851F823304578A0
:1045B80001781878E678884267D0824275D0D87832
:1045C80003F1030C81426CD0824276D0987903F1D2
:1045D800060C88426DD0824231D0012007B0F0BD70
:1045E800384B394853F8253001784678187894F8CC
:1045F80001C081423BD082423FD0D87803F1030EFC
:1046080081423ED0824248D0987903F1060E884212
:104618003FD08242E1D1DB796345DED173469B7896
:104628002046059300F0F0FF0646204600F0F4FF10
:10463800034601A93046019302F08EFFACE7DB790F
:10464800B342CAD1634602349B782046059300F0F2
:10465800DBFF034620461C4600F0DEFF034601A9A7
:104668002046019302F078FF002007B0F0BD93F8D0
:1046780001E0B645C1D08242BFD158786045BCD16F
:10468800CDE71F79B742BDD1BEE75F78AF4294D17D
:1046980095E7D979B142BCD19FE718796045B3D184
:1046A800BCE71F79AF428FD190E75878B04286D1E6
:1046B800C9E7D979A9428ED18FE71879B04285D157
:1046C800C0E700BFD0010024CC0100247E4A036863
:1046D8009342F0B58FB000F0E480A2F54C429342CB
:1046E80000F0E18002F58062934200F0DE8002F57E
:1046F8008062934200F0DB8002F58062934200F012
:10470800DA8002F54442934200F0D380A2F51C42BD
:10471800934200F0D28002F58062934200F0CF808D
:104728006A4A934240F0CD8008264FF42B77684CB4
:1047380006FB07F7E519A87800F076FFE05D00F0C2
:1047480073FF6B68082B13D8DFE803F03B49576504
:1047580073818F9D05005F4BD3F8F42042F0080267
:10476800C3F8F420D3F8F43003F008030893089B47
:104778002846FFF703FF012801D1FFBEFEE74FF4EB
:104788002B730EAA544F0DF1240C03FB06446368E7
:1047980002EB43050FCFACE80F003B680022ACF8F2
:1047A8000030114635F9140C01F05AFE63680EAA60
:1047B80002EB430333F9140C0FB0BDE8F04001F0ED
:1047C8008DBE444BD3F8F02042F01002C3F8F0201D
:1047D800D3F8F03003F010030093009BC8E73D4B7B
:1047E800D3F8E82042F40032C3F8E820D3F8E830E0
:1047F80003F400330193019BBAE7364BD3F8E82062
:1048080042F48022C3F8E820D3F8E83003F4802388
:104818000293029BACE72F4BD3F8E82042F4002226
:10482800C3F8E820D3F8E83003F400230393039B8C
:104838009EE7284BD3F8E82042F48012C3F8E8201A
:10484800D3F8E83003F480130493049B90E7214BDA
:10485800D3F8F02042F02002C3F8F020D3F8F0306B
:1048680003F020030593059B82E71A4BD3F8E82051
:1048780042F08042C3F8E820D3F8E83003F08043E0
:104888000693069B74E7134BD3F8E82042F00042E6
:10489800C3F8E820D3F8E83003F000430793079BF8
:1048A80066E7002641E701263FE702263DE70326A3
:1048B8003BE7052639E7042637E7062635E70726C6
:1048C80033E700239B78FFDE00100140000C0058FE
:1048D80048A2012400440258901501082DE9F04F20
:1048E80091B0002301223A490DF1240A09938B461D
:1048F80001F11C09CAF814305446CDF800A001F1A2
:104908003808CDF804A001F15407CDF808A001F14A
:104918007006CDF80CA001F18C05CDF814A001F1BA
:10492800C40E01F1E00CCAE90133CAE903330F925E
:10493800FF22284B1A7001F1A803CDE906AA0493B7
:10494800BAE80F00ABE80F009AE807008BE8070009
:104958000FCC009CA9E80F009AE8070089E8070037
:104968000FCC019CA8E80F009AE8070088E8070028
:104978000FCC029C0FC79AE8070087E807000FCC06
:10498800039C0FC69AE8070086E807000FCC0FC5FE
:104998009AE80700059C85E807000FCC049C0FC423
:1049A8009AE8070084E80700069C0FCCAEE80F00E1
:1049B8009AE80700079C8EE807000FCCACE80F00C8
:1049C8009AE807008CE8070011B0BDE8F08F00BF37
:1049D800B800002458BA012410B50A4C04F11C0090
:1049E80007F0A4FBE369DB69DB0602D594F898318C
:1049F80003B910BD2046FFF71FFCE36910221A62B5
:104A080010BD00BF48A2012410B50B4C04F532704C
:104A180007F08CFBD4F8C832DB69DB0602D594F8C2
:104A2800443403B910BD04F52B70FFF705FCD4F826
:104A3800C83210221A6210BD48A2012410B50B4CCE
:104A480004F2745007F072FBD4F87435DB69DB06A6
:104A580002D594F8F03603B910BD04F5AB60FFF742
:104A6800EBFBD4F8743510221A6210BD48A2012459
:104A780010B50B4C04F5026007F058FBD4F8203849
:104A8800DB69DB0602D594F89C3903B910BD04F63E
:104A98000400FFF7D1FBD4F8203810221A6210BDA9
:104AA80048A2012410B50B4C04F6CC2007F03EFBBD
:104AB800D4F8CC3ADB69DB0602D594F8483C03B954
:104AC80010BD04F52B60FFF7B7FBD4F8CC3A1022E1
:104AD8001A6210BD48A2012410B50B4C04F6785098
:104AE80007F024FBD4F8783DDB69DB0602D594F89F
:104AF800F43E03B910BD04F65C50FFF79DFBD4F8F3
:104B0800783D10221A6210BD48A2012410B50A4C43
:104B180004F1240007F00AFB636ADB69DB0602D5AF
:104B280094F8A03103B910BD04F10800FFF784FB25
:104B3800636A10221A6210BD48B2012410B50B4CEA
:104B480004F5347007F0F2FAD4F8D032DB69DB06EA
:104B580002D594F84C3403B910BD04F52D70FFF755
:104B68006BFBD4F8D03210221A6210BD48B201246F
:104B780010B50B4C04F27C5007F0D8FAD4F87C3509
:104B8800DB69DB0602D594F8F83603B910BD04F5E5
:104B9800AC60FFF751FBD4F87C3510221A6210BDC7
:104BA80048B2012410B5EFF3108472B6084B1A7896
:104BB800120602D504B962B610BD1B784FF42B70EB
:104BC800044A5BB200FB032002F074F9F2E700BF6D
:104BD80058BA0124F0A2012410B5EFF3108472B67C
:104BE800084B1A78120602D504B962B610BD1B78B4
:104BF8004FF42B70044A5BB200FB032002F05AF911
:104C0800F2E700BF58BA012468A301240021FFF786
:104C180055BC00BF0021FFF751BC00BF0121FFF7C1
:104C28004DBC00BF2DE9F0414F684FF42B76DFF8FB
:104C3800D8808E4607FB06F60C46082F06EB0805BB
:104C48000560AC46BEE80F00ACE80F009EE8070020
:104C58008CE8070002D8EB68022B02D90120BDE8D6
:104C6800F081AA68032AF9D829690229F6D868695F
:104C78000228F3D80131DFF894C01C3689005CF8AB
:104C880027704644EF61A46929631B492C6251F8D7
:104C98002330EB62194B53F82230194AAB620023D8
:104CA80052F8202030466B646A62C5E90D33C5E9C5
:104CB8000F3308F029FE0028D0D10146304608F00D
:104CC8007BFE0028CAD10146304608F0C7FE0028FE
:104CD800C4D1304608F052FE0028BFD1094A85F8F1
:104CE8009801C2F80401C5F89C21C2F80001C5F872
:104CF800A402C5F8A002B2E7883601089436010874
:104D0800A43601084041003048A201246436010855
:104D1800524B01224FF4965003F5805130B40024D1
:104D2800C3F86025C3F86C25C3F86445C3F870055B
:104D3800C3F80C28C3F81048C3F81828C3F81C088F
:104D4800C3F8B82AC3F8BC4AC3F8C42AC3F8C80AC7
:104D5800C3F8642DC3F8684DC3F8702DC3F8740DFB
:104D68003F4DC3E90224C3E90520C3E9AD24C3E9E3
:104D7800B020C1E90424C1E90720C1E9AF24C1E991
:104D8800B220C1F86C45374CC1F86825A378C1F842
:104D9800742522882468C1F8780533494FEA144CF1
:104DA8003248A1F803204B71CA800B723049EA805F
:104DB800A1F803204B71CA800B722E492B72C28056
:104DC8002D4D0372A1F80320A0F8032043714B7105
:104DD8002A48CA800B722A49EA800C802B72C2804A
:104DE800037281F802C0A1F803204B71CA800B72CC
:104DF80024492548A1F803204B71CA800B72234926
:104E0800A0F80320A1F803204B71CA800B72204937
:104E180043710C8081F802C0A1F803204B71CA804D
:104E28000B721C49C2800C8081F802C0A1F80320D3
:104E38004B71CA800B72184903720C8081F802C04A
:104E4800A1F803204B71CA800B721449A1F8032002
:104E58004B71CA800B7230BC704700BF48A2012456
:104E680060020024CC010024780200246C02002493
:104E78009002002484020024540200243C020024EE
:104E880084BA01249C020024C001002448020024A2
:104E980060BA012478BA01246CBA0124B401002450
:104EA800704700BF08B500F0BFFCBDE8084001F03E
:104EB8009FBB00BF064808B503680BB102F05EFD52
:104EC800044803681BB1BDE8084003F04DBC08BDA9
:104ED800A0BE012498BA0124064808B503680BB19E
:104EE80002F04CFD044803681BB1BDE8084003F01C
:104EF8003BBC08BDA0BE012498BA0124064808B5E9
:104F080003680BB102F03AFD044803681BB1BDE821
:104F1800084003F029BC08BDA0BE012498BA0124AA
:104F2800364BDA6A520062D59A6A9A6A9A6A9B6A1A
:104F3800180600D500BE314B9B6A990600D500BE05
:104F48002E4B9B6ADA0600D500BE2C4B9B6A1B07CA
:104F580000D500BE294B9B6A980700D500BE274B99
:104F68009B6AD90700D500BE244B9B6A1A0400D55A
:104F780000BE224B9B6A9B0400D500BE1F4B9B6A58
:104F8800D80400D500BE1D4B9B6A190500D500BE8C
:104F98001A4B9B6A5A0500D500BE184B9B6A9B05A5
:104FA80000D500BE154B9B6AD80500D500BE134B33
:104FB8009B6A990100D500BE104B9B6ADA0100D5A7
:104FC80000BE0E4B9B6A1B0300D500BE0B4B9B6AB1
:104FD800580300D500BE094B9B6A990300D500BE53
:104FE800064B9B6ADA0306D400BE00BEFEE7DB6A06
:104FF8009B07FAD5F8E700BEF6E700BF00ED00E032
:1050080000F01EBC00F022BC2DE9F041CEB00446F1
:105018004C2200210AA80CF0A3FA2022002102A8A1
:105028000CF09EFABC2200211EA80CF099FA02206E
:1050380004F00EF82368012B4FF0000354D0534AB4
:1050480002250193C820D16A514B21F00101D16298
:10505800D26A02F0010201929A6942F440429A61CE
:105068009B6903F440430193019B494A93699B045C
:10507800FCD548490224002201268B6A04274FF0F8
:10508800080823F0030323438B62052316900AA81C
:1050980018934FF480331096179419941597CDF8F8
:1050A8006880CDE91B222122CDE91344CDE90A23EA
:1050B80004F0B8FC00B1FEE73F220323294602A80A
:1050C800CDE9022300220823CDE90423402240230E
:1050D800CDE9062340234FF48062CDE9082304F08C
:1050E800CFFF0346B8B1FEE7294A04250093F02014
:1050F8009169264B41F440419161926902F4404222
:105108000092DA6A42F00102DA62DB6A03F0010314
:105118000093009BA9E720224FF4805125934FF478
:1051280040152B9280222D931EA8309326913591FD
:105138004FF48071249234920C223394439140F2BC
:10514800271120921022CDF884802A971F96CDE946
:105158002E34CDE93B334FF48033CDE922463193E9
:10516800002446930623CDE93E4527934FF48063F8
:10517800094C2C931E94CDE9281205F0DDF900B1F5
:10518800FEE703F08BFF4EB0BDE8F0810004005845
:1051980000480258004402580F130F032DE9F0414C
:1051A8000D46044684B0D1E9000184E8030000F00C
:1051B8000BFBAE79002E37D06F460BF031F8FDF7B8
:1051C800A1FF0AF077FBFFF789FB2B79002B54D15D
:1051D8006B799BB1BFF34F8FBFF36F8F3C4B0022AE
:1051E800C3F85022BFF34F8FBFF36F8F5A6942F451
:1051F80000325A61BFF34F8FBFF36F8F4FF0FF320A
:105208000023002400253946324802928DF80C30DC
:10521800CDE900450AF06EFF2E480AF0D3FFFEF7ED
:10522800C1FB04B0BDE8F08120466F46FFF7ECFEF5
:10523800012401F08BF94FF040534FF48078384641
:105248000193254BADF80040CDE9023801F09CF9F7
:1052580019224FF0404338468DF80F40ADF80D80C5
:105268008DF801408DF80A608DF80820019301F04F
:105278008BF9042001F078F99FE7154C0023C4F856
:105288008430BFF34F8FD4F8803043F6E07EC3F309
:10529800C906C3F34E334FEA431C0CEA0E003346EB
:1052A80040EA8372013BC4F860225A1CF8D1ACF181
:1052B800200C1CF1200FF0D1BFF34F8F636943F42A
:1052C80080336361BFF34F8FBFF36F8F80E700BFF9
:1052D80000ED00E090BA01240E00010305F000B8CB
:1052E8001C4B9B6803F17842B2F5003F25D3B3F518
:1052F800803F20D303F16042B2F5003F1FD303F192
:105308005C42B2F5002F1CD303F17042B2F5902F26
:1053180019D303F14842B2F5803F16D303F1804216
:10532800B2F1806F13D303F1E043B3F5000F2CBF44
:10533800082007207047012070470020704702208E
:1053480070470320704704207047052070470620E7
:10535800704700BF00ED00E003480023034A0449FA
:1053680003600CF011B800BF90BA012400000024BB
:10537800A94E000810B4204C0022204B83B0D4F86A
:1053880088101F4841F47001C4F8881019681D4C32
:1053980041F0010119601A61196808401A4918603A
:1053A8009A61DA611A629A62DA621A635A639A63D4
:1053B800DA631A645A64186820F4802018601A6640
:1053C800D3F8DC2042F06042C3F8DC20D3F8DC30AC
:1053D8000193019B23681940B1F1005F03D20B4B85
:1053E8000122C3F80821044B4FF000629A6003B011
:1053F8005DF8044B704700BF00ED00E00044025820
:105408007FEDF6EA0010005C0000FFFF008000510D
:1054180000F57171D0F8040409F028BAC1EBC10392
:1054280000EB8303D0F80404D3F8082209F04CBA3F
:10543800C1EBC10300EB8303D0F804049A6C09F0B4
:1054480081BA00BFD0F8040409F020BBC16810B5C8
:10545800044619B1022900D0FEE70121D4F804045A
:1054680009F0FEFAD4F80404BDE8104009F0D0BAF7
:1054780010B50446D0F8040409F0F6FA2268D2F808
:10548800003E43F00103C2F8003E236A23B1034AF9
:10549800136943F00603136110BD00BF00ED00E07F
:1054A800D0F8040409F0EABAD0F8040409F0FEBA06
:1054B800D0F8040409F0F8BAD0F8040409F0F8BAEE
:1054C800D0F8040409F0F6BA9446D0F898021A46BF
:1054D80008B5634603F0ACFC032802D8024B185CFD
:1054E80008BD022008BD00BFC0360108D0F89802E8
:1054F80008B503F02BFD032802D8024B185C08BD41
:10550800022008BDC0360108D0F8980208B503F09B
:1055180061FD032802D8024B185C08BD022008BDB3
:10552800C03601080A06D0F8983206D4C1EBC1018A
:1055380003EB810191F8FE01704701F07F01C1EB97
:10554800C10103EB810191F83E007047D0F8980241
:1055580008B503F057FC032802D8024B185C08BDB5
:10556800022008BDC0360108D0F8980208B503F03B
:10557800C5FC032802D8024B185C08BD022008BDF0
:10558800C0360108D0F8980208B503F08FFC03284C
:1055980002D8024B185C08BD022008BDC0360108BD
:1055A800D0F8C00209F034BDD0F8C00209F048BDF7
:1055B800D0F8C00209F050BD704700BFD0F8C00253
:1055C80009F036BDD0F8C00209F036BDD0F8D003D6
:1055D80008B502F093FD032802D8024B185C08BDF9
:1055E800022008BDC4360108064B01EB410103EB5C
:1055F8008101D1F800C04A688B68C0F800C04260D9
:1056080083607047C8360108024B027853F82200BD
:10561800704700BF48370108024B427833F8120040
:10562800704700BF283701088CB00A2814D8DFE873
:1056380000F01523313F4D5B6977859306004D4B8C
:10564800D3F8E02042F48062C3F8E020D3F8E030D9
:1056580003F480630B930B9B0CB07047454BD3F856
:10566800E02042F00102C3F8E020D3F8E03003F074
:1056780001030193019BEFE73E4BD3F8E02042F092
:105688000202C3F8E020D3F8E03003F002030293EB
:10569800029BE1E7374BD3F8E02042F00402C3F85D
:1056A800E020D3F8E03003F004030393039BD3E72F
:1056B800304BD3F8E02042F00802C3F8E020D3F8DA
:1056C800E03003F008030493049BC5E7294BD3F8A3
:1056D800E02042F01002C3F8E020D3F8E03003F0F5
:1056E80010030593059BB7E7224BD3F8E02042F05F
:1056F8002002C3F8E020D3F8E03003F0200306933B
:10570800069BA9E71B4BD3F8E02042F04002C3F800
:10571800E020D3F8E03003F040030793079B9BE7B2
:10572800144BD3F8E02042F08002C3F8E020D3F80D
:10573800E03003F080030893089B8DE70D4BD3F806
:10574800E02042F48072C3F8E020D3F8E03003F49C
:1057580080730993099B7FE7064BD3F8E02042F456
:105768000072C3F8E020D3F8E03003F400730A9322
:105778000A9B71E700440258704700BF0F4B1B7823
:105788000BB90120704710B504464FF47A700C4AE3
:10579800B0FBF3F31068B0FBF3F000F0C1FE0F2C80
:1057A80000D808B1012010BD002221464FF0FF307B
:1057B80000F056FE034B00201C6010BDB002002410
:1057C800A8020024B402002438B50320124D00F0CA
:1057D80035FE124C04F0B4FB114A12499369C3F325
:1057E8000323CB5C03F01F0320FA03F30E202B6086
:1057F800926902F00F028A5C02F01F02D340236014
:10580800FFF7BCFF10B10124204638BD0446FFF75E
:10581800B3FF204638BD00BFA8020024AC02002414
:1058280000440258B0360108034A044B11681B783B
:105838000B441360704700BF64C10124B002002408
:10584800014B1868704700BF64C1012438B504468D
:10585800FFF7F6FF0546631C02D0044B1B781C4477
:10586800FFF7EEFF431BA342FAD338BDB002002472
:10587800014B1868000C70470010005C704700BFAF
:10588800806B08B5FFF7FAFF08BD00BF836B5A6D40
:1058980012F0500F5A6D10B51DD1196842F40072FC
:1058A8005A650A6812F0080FCA681BD012F4406FD4
:1058B8000DD1CA6894040AD45A6D22F480725A65CC
:1058C8005A6DD10403D45A6D42F001025A65184644
:1058D800FDF770F910BDD2060AD4DB6CBDE81040A4
:1058E800DB6C18479007E7D01846FDF763F9F1E736
:1058F8001846FDF703FA10BD806B08B5436D43F0F9
:1059080040034365836D43F004038365FDF7F6F9AF
:1059180008BD00BFF0B5002283B0019290F8502076
:10592800012A00F01C81034601201A6883F8500000
:105938009468640700F18A800C68C4F31305002D8D
:1059480040F08F80C4F38464A0404D684FF01F0E70
:10595800D6694FEA951C30430CF00C0CD06105F069
:105968001F0002F1300584400EFA00FE5CF80500C5
:1059780020EA0E0004434CF80540906840076ED4B6
:10598800956815F0080547D10C68072002F1140640
:10599800B94F4FEAD45CC4F304540CF0040C00FA79
:1059A80004FE886800FA04F45CF8060020EA0E0099
:1059B80020434CF80600386800F07040B0F1805F72
:1059C80000F0C580D068D668C70600F1E880C6F345
:1059D80082064869760000FA06F60F69042F00F07F
:1059E800C18002F16004086854F827C000F0F8404C
:1059F8000CF0004C40EA0C00304344F82700487E85
:105A08000E69012854F8260008BF4FF0004520F021
:105A18000040054344F826509068C40714D4CE6863
:105A2800086806F01807954CD2F8C050FC40C0F33F
:105A38001307044025EA07052C43C2F8C040904CE0
:105A4800A64246D0002816DB002003E05A6D42F03B
:105A580020025A65002283F8502003B0F0BD9068F8
:105A6800DAE794FAA4F5B5FA85F5C4F3846405F089
:105A78001F05A84069E783498A4200F0B68001F50E
:105A880080718A4200F0B1807F4D804CA968A4687B
:105A980001F0E076E44304F00104002C00F0B48047
:105AA8007B4CA04200F0FC807A4CA04200F01A81A6
:105AB800794CA042C8D14902C6D474498A42C3D19C
:105AC800AA68002022F0E072324342F48002AA6001
