:020000040800F2
:1000000000000220E1050008DD050008D57F00089A
:10001000DD050008DD050008DD0500080000000022
:10002000000000000000000000000000DD050008E6
:10003000DD05000800000000DD050008597F00080C
:10004000DD050008DD050008DD050008DD05000808
:10005000DD050008DD050008DD050008DD050008F8
:10006000DD050008DD050008DD050008D56B00088A
:10007000E16B0008A15A0008ED6B0008F96B00085D
:100080000D7C000875600008DD050008DD0500082E
:10009000DD050008DD050008DD050008DD050008B8
:1000A000DD050008DD050008DD050008DD050008A8
:1000B0001D6701082967010835670108A960000864
:1000C000DD050008B5600008DD0500088D5F01084A
:1000D000995F0108417A0008717A0008A57A000842
:1000E000DD050008DD05000800000000DD05000852
:1000F000DD050008DD050008DD050008DD05000858
:10010000DD0500083171000841670108A55F01089D
:10011000D97A00080D7B0008DD050008DD05000820
:10012000DD050008DD050008C95F0108FD5F010865
:10013000417C0008DD050008DD050008DD0500083C
:1001400000000000000000000000000000000000AF
:10015000DD050008DD050008DD050008417B00081D
:10016000C1600008DD050008697F00088D7F000878
:10017000DD050008B17F0008DD050008DD05000889
:10018000DD050008DD050008757B0008A57B00087B
:10019000B15F0108BD5F0108DD050008DD0500084D
:1001A000DD050008DD050008DD050008DD050008A7
:1001B00069680008DD050008DD050008DD050008A8
:1001C000DD050008DD050008DD050008DD05000887
:1001D000DD050008DD050008DD050008DD05000877
:1001E000DD050008DD050008DD050008DD05000867
:1001F000DD050008DD050008DD050008DD05000857
:10020000DD050008DD050008DD050008DD05000846
:10021000DD050008DD050008DD050008DD05000836
:10022000DD050008DD050008DD0500080000000010
:10023000DD050008DD05000800000000DD05000800
:10024000DD050008DD050008DD050008DD05000806
:10025000DD050008DD050008DD050008DD050008F6
:10026000DD050008DD050008DD050008DD050008E6
:10027000DD050008DD050008D97B0008000000004E
:10028000DD050008DD050008DD05000800000000B0
:0802900000000000DD0500087C
:1002980010B5054C237833B9044B13B10448AFF3B8
:1002A80000800123237010BDE80300240000000033
:1002B8003085010808B5034B1BB103490348AFF368
:1002C800008008BD00000000EC0300243085010810
:1002D80053B94AB9002908BF00281CBF4FF0FF31A5
:1002E8004FF0FF3000F074B9ADF1080C6DE904CEA1
:1002F80000F006F8DDF804E0DDE9022304B07047F9
:100308002DE9F047089D04468E46002B4DD18A42C0
:10031800944669D9B2FA82F252B101FA02F3C2F1F3
:10032800200120FA01F10CFA02FC41EA030E944084
:100338004FEA1C48210CBEFBF8F61FFA8CF708FBA5
:1003480016E341EA034306FB07F199420AD91CEB7D
:10035800030306F1FF3080F01F81994240F21C81AF
:10036800023E63445B1AA4B2B3FBF8F008FB1033F7
:1003780044EA034400FB07F7A7420AD91CEB04042C
:1003880000F1FF3380F00A81A74240F207816444FC
:10039800023840EA0640E41B00261DB1D440002381
:1003A800C5E900433146BDE8F0878B4209D9002DE5
:1003B80000F0EF800026C5E9000130463146BDE86F
:1003C800F087B3FA83F6002E4AD18B4202D38242D9
:1003D80000F2F980841A61EB030301209E46002D88
:1003E800E0D0C5E9004EDDE702B9FFDEB2FA82F2DD
:1003F800002A40F09280A1EB0C014FEA1C471FFA3B
:100408008CFE0126200CB1FBF7F307FB131140EA21
:1004180001410EFB03F0884208D91CEB010103F1EE
:10042800FF3802D2884200F2CB804346091AA4B2B0
:10043800B1FBF7F007FB101144EA01440EFB00FE84
:10044800A64508D91CEB040400F1FF3102D2A645E9
:1004580000F2BB800846A4EB0E0440EA03409CE788
:10046800C6F12007B34022FA07FC4CEA030C20FA35
:1004780007F401FA06F31C43F9404FEA1C4900FA55
:1004880006F3B1FBF9F8200C1FFA8CFE09FB1811D2
:1004980040EA014108FB0EF0884202FA06F20BD945
:1004A8001CEB010108F1FF3A80F08880884240F295
:1004B8008580A8F102086144091AA4B2B1FBF9F0D9
:1004C80009FB101144EA014100FB0EFE8E4508D9D4
:1004D8001CEB010100F1FF346CD28E456AD9023859
:1004E800614440EA0840A0FB0294A1EB0E01A1423E
:1004F800C846A64656D353D05DB1B3EB080261EBAC
:100508000E0101FA07F722FA06F3F1401F43C5E985
:10051800007100263146BDE8F087C2F12003D840BB
:100528000CFA02FC21FA03F3914001434FEA1C47FD
:100538001FFA8CFEB3FBF7F007FB10360B0C43EAEF
:10054800064300FB0EF69E4204FA02F408D91CEB9F
:10055800030300F1FF382FD29E422DD9023863449D
:100568009B1B89B2B3FBF7F607FB163341EA03413D
:1005780006FB0EF38B4208D91CEB010106F1FF388C
:1005880016D28B4214D9023E6144C91A46EA004683
:1005980038E72E46284605E70646E3E61846F8E615
:1005A8004B45A9D2B9EB020864EB0C0E0138A3E75E
:1005B8004646EAE7204694E74046D1E7D0467BE73F
:1005C800023B614432E7304609E76444023842E7B7
:1005D800704700BFFEE700BF0B480C4A904203D0AB
:1005E800121A0B4917F046FB0A480B4A904203D0EF
:1005F800121A002117F04CFB07F012FF17F016FB38
:1006080002F0A8FAFEE700BF00000024E40300247B
:1006180064850108E8030024B8F20724034B03EBC0
:10062800800203445268187B536818471006002458
:10063800074B1A5C52B903EB800219184FF0010CF2
:10064800526803F800C0087B1368184700207047F9
:100658001006002430B4054C04EB800504446D6892
:10066800207BAC68A44630BC604700BF100600245D
:1006780030B4054C04EB800504446D68207BEC68BD
:10068800A44630BC604700BF10060024044B03EBAF
:10069800000C03EB80035B689CF80C001B6918478F
:1006A8001006002410B404689CB1217884462246C0
:1006B8003A2913D01F2911D912F8013F1F2B0ED93F
:1006C8003A2BF9D10134A1F13000A24201D101281D
:1006D8000BD94FF0FF305DF8044B70470B463A2BAF
:1006E800F0D000205DF8044B70470132CCF80020B0
:1006F800F8E700BF38B50D4640B1036804462BB192
:100708001A781AB18088DA88904203D00920002329
:100718002B6038BD5878FFF781FF10F00100F5D144
:100728002368F5E72DE9F0410026D0F800808E75A2
:100738008369002B5AD0C36A07460D4601331ED081
:10074800D8F80C301888002861D001F1150601246A
:1007580000E01C46002101F027FE631C002856D04B
:10076800B4F5807F53D006F8010FD8F80C2032F882
:1007780014000028EDD12C440023A375AE7DD7F8D2
:100788001CC000204FF02E080CF1FF31024611F872
:10079800013F0132202B18D0052B08BFE523092A79
:1007A80026D02C1863727EB9A3F14107192F0AD8F5
:1007B800082A9CF80CE08CBF102708271EEA070FB0
:1007C80001D02033DBB2A37501300B2ADFD12C18FE
:1007D800B6B1002363729CF80B302B72DCF81C3026
:1007E8002B60DCF816301A0CEB80AA80BDE8F0818B
:1007F8002C180EB984F81680013084F80980D0E7E7
:10080800A6759CF80C30002B08BF2C46E1E70024A5
:1008180000232C44A375AE7DB1E700BF2DE9F0415C
:10082800056B00F13408044601232A464146407806
:10083800FFF71EFFC0B9626A0746E369AA1AE070AB
:100848009A420ED2A678012E01D80AE0E3691D4427
:10085800013E012341462A466078FFF709FF012E31
:10086800F4D13846BDE8F08101273846BDE8F0816B
:1008780070B5C37804465BB92378032B0FD00022E8
:1008880060781146FFF702FF003818BF012070BDDD
:10089800FFF7C4FF0028FAD12378032BEFD125797D
:1008A800012DECD104F134064FF4007200213046DA
:1008B80017F0EEF955233146722684F832322B466A
:1008C8006569612084F81862522284F819622E0A38
:1008D80084F8360084F81B0284F81C52206984F8D6
:1008E8001D622E0C2D0E84F8342084F83520412208
:1008F80084F81F52050A84F8372084F81A2284F8ED
:100908002002226A84F82152050C000E013284F874
:100918001E6284F82302AA20226384F8330284F832
:1009280022526078FFF7A4FE00232371A7E700BFD7
:1009380038B5C37804460D4663B901232A4604F145
:1009480034016078FFF786FE10B101204FF0FF35C3
:10095800256338BDFFF762FF0028EED038BD00BF21
:1009680070B54FF0FF3600230446B142C3700663EA
:100978000CD00D460A46012300F134014078FFF7F8
:1009880069FE10B10420266370BD25634AF655231D
:10099800B4F832229A421AD194F83430E92B07D0AD
:1009A800636B0D4A03F0FF13934201D0022070BD20
:1009B800D4F86A30094A23F07F43934209D0D4F827
:1009C8008600074B984214BF0220002070BD032008
:1009D80070BD002070BD00BFEB0090004641540080
:1009E800464154330023F0B50B6085B00E461446DB
:1009F800FFF758FE051EC0F2B9808B4B53F82570DF
:100A0800002F00F0C080376004F0FE043B787BB113
:100A18007878FFF703FEC6070AD4002C00F09F8001
:100A280010F0040400F09B800A24204605B0F0BDB5
:100A3800E8B2002378703B70FFF7FAFDC50700F1B4
:100A480091800CB14407EFD400213846FFF788FFA6
:100A580002286AD0042800F08D8001287ED800255D
:100A6800B7F83F30B3F5007F78D1B7F84A2002B91C
:100A7800BA6D97F84430FA61591EBB7001296DD8D8
:100A880097F8411088B27881002867D0481E08423C
:100A980064D1B7F8456030073E815FD1B7F84700A9
:100AA80000B9786DB7F842E0BEF1000F56D002FBEE
:100AB80003F30EEB16141C44A0424FD3001B8842CC
:100AC800B0FBF1FC4AD34FF6F5718C455DD840F682
:100AD800F5710EEB05002C443D628C450CF10201CA
:100AE800FC62B961786271D8002E37D0034401EBFB
:100AF800410001F00101BB6201EB5001012001F24C
:100B0800FF11B2EB512F29D34FF0FF338022C7E9F1
:100B180004333A71454A0024454913883870013333
:100B2800F9609BB21380FB8019E06C4607F5F973F6
:100B380007F2322520461A79114602B19968103316
:100B480040F8041B9D42F6D104F1100654F8045BEA
:100B580003208DB9B442F9D104280BD00D242046C6
:100B680005B0F0BD0324204605B0F0BD0B24204697
:100B780005B0F0BD0124F2E729463846FFF7F0FE3C
:100B88000128E7D86CE70C24E9E70EEB05010CF126
:100B980002032C443D627962B7F85E10FC6231436F
:100BA800BB61DBD19B00396E03F2FF13B962B2EB74
:100BB800532FD3D3B7F864204FF0FF338021012A95
:100BC8003971C7E9043308D00320A3E7002EC5D044
:100BD800034449000220BB6291E7691C3B6B9942C0
:100BE80004D03846FFF7A4FE0028EDD14AF6552375
:100BF800B7F8322200219A423971E5D17A6B0D4B50
:100C08009A42E1D103F1FF53D7F8182203F50053B4
:100C180020339A42D8D1D7F81C220320D7F82032A3
:100C2800C7E9043276E700BF040400240C0400245A
:100C380010040024525261412DE9F8430378044618
:100C48000D461646022B06D0032B6AD0012B27D05F
:100C58000220BDE8F883476A036B07EB11279F4220
:100C680000F09080C378002B40F0B68004F134087F
:100C780001233A4660784146FFF7ECFC00284AD148
:100C880027636D00C6F307220123002005F4FF75D2
:100C980008EB050108F805604A70E370BDE8F883C1
:100CA80001EB5107426A036B02EB5728984563D062
:100CB800C378002B40F08A8004F1340901234246AE
:100CC80060784946FFF7C6FC28BBC4F8308015F0A9
:100CD800010507F10108C7F308075ED019F80730C6
:100CE80003F00F0343EA061309F807300123676A84
:100CF800E37007EB5827236B9F4278D02046FFF715
:100D08008DFD0028A5D101233A4649466078FFF7B2
:100D1800A1FC002839D04FF0FF3301202363BDE840
:100D2800F883426A036B02EBD118984527D0C37841
:100D3800002B57D104F13407012342466078394625
:100D4800FFF788FC0028E6D1C4F83080AD0026F013
:100D5800704205F4FE757B59791903F070431A4304
:100D6800130C7A55100A8B70120E01234870CA7042
:100D78000020E370BDE8F88300F13409A7E700F12B
:100D88003407E3E700F134087BE7C8F30801276379
:100D980049447DB1C6F3071212E009F80760012340
:100DA800676AE37007EB5827236B9F42A6D1C8F305
:100DB800080149440B78C6F3032223F00F06324397
:100DC80001230A700020E370BDE8F883FFF726FDD1
:100DD80000283FF471AF3CE7FFF720FD00283FF4FF
:100DE80045AF36E7FFF71AFD0028A3D031E7C8F36F
:100DF800080309EB0301CDE701294CD9836999421E
:100E08002DE9F0410C46054602D30120BDE8F081EA
:100E18000378022B5AD0032B3FD0012BF5D101EBDD
:100E28005106426A036B02EB56279F420ED0C378E5
:100E3800002B79D101233A4605F134016878FFF790
:100E480009FC00285FD16A6A3B462F63771CC6F30A
:100E5800080602EB57282E44434596F834600DD017
:100E6800EB78002B65D10123424605F134016878FF
:100E7800FFF7F0FB002846D1C5F83080C7F3080714
:100E8800E3073D4495F8340046EA00204CBF0009CA
:100E9800C0F30B00BAE701207047466A036B06EB04
:100EA800D1169E4229D0C37893BB05F1340701239C
:100EB800324668783946FFF7CDFB20BB2E63A40085
:100EC80004F4FE74385920F070409FE7466A036BBB
:100ED80006EB11269E4213D0C37803BB05F13407F5
:100EE8000123324668783946FFF7B4FB58B92E63B8
:100EF800640004F4FF74385B88E700F13407DEE728
:100F080000F13407F4E74FF0FF3318462B637DE711
:100F1800FFF784FC0028C8D04FF0FF3076E7FFF7D2
:100F28007DFC0028DAD0F7E7FFF778FC002881D0AD
:100F3800F2E72846FFF772FC002894D0ECE700BFE0
:100F48000129F8B50E4605682AD9AB698B4227D91D
:100F58000746114632BB284614E0AB699E42264636
:100F68001ED2FFF769FEE0B9D5E90523991E501C8A
:100F78008A4204D22A79686142F001022A71A342A6
:100F88001CD938683146FFF737FF0446314600223E
:100F980028469CB1012C03D0631C11D0012EDCD84B
:100FA8000220F8BD9342FBD9012AF9D04FF0FF3255
:100FB8002846FFF741FE0028E3D0F8BD0020F8BD21
:100FC8000120F8BD2DE9F04105460F4606680029C5
:100FD8004BD1D6F81080B369B8F1000F35D14FF076
:100FE8000108444606E001283AD0431C38D044455D
:100FF80038D0B36901349C4204D3B8F1010F4FF0E3
:1010080002042FD021462868FFF7F6FE0028EAD10F
:10101800012C24D9B3699C4221D24FF0FF322146DA
:101028003046FFF709FE00B9A7B950BB3461D6E9CD
:101038000523023B9A4201D8013A7261337920466E
:1010480043F001033371BDE8F081434598BF4FF089
:101058000108C6E7012F02D0B3699F4216D30120C9
:10106800BDE8F0810020BDE8F0813046FFF7C4FEFE
:101078000128F4D9421C06D0B3698342F0D8B84697
:10108800AFE70128EBD14FF0FF30E9E722463946B8
:101098003046FFF7D1FDC8E72DE9F04F056983B069
:1010A80083692035B5F5001F3BD2002B39D0C5F335
:1010B800080804460768B8F1000F08D007F134069D
:1010C800464400202561E66103B0BDE8F08F0E4676
:1010D80001334169836141B3B7F80A9009F1FF39D7
:1010E80019EA5529EAD13846FFF786FE01288346D2
:1010F80023D9B0F1FF3F5DD0BA6982421FD9831E60
:1011080007F134060193023A0199C4F814B08A42EF
:1011180004D9B7F80A90FB6A01FB0939C4F818909A
:10112800CEE7042003B0BDE8F08F3B89B3EB551F31
:10113800C4D800230420A361C6E70220C4E7002E18
:10114800F7D061692046FFF73DFF8346002839D074
:101158000128F2D0B0F1FF3F2CD0FA78002A33D121
:1011680007F13406ABF102034FF400720021304658
:10117800019316F08DFDB869019B821E934229D216
:101188007989FA6A019B03FB01223A6329B34FF07C
:10119800000A05E03A6B7889013250453A630BD969
:1011A8004FF0010338460AF1010AFB70FFF736FBDE
:1011B8000028EFD0012087E7B869A2EB0A023A635A
:1011C8000246A0E707207FE73846FFF727FB0028FD
:1011D800C6D0EFE779890022D7E78A46EDE700BF56
:1011E8002DE9F04704464FF0FF08042025684646DD
:1011F800D4F8189005F13407B9F1000F32D02B6BF1
:101208004B4513D0EB78002B64D101234A4639466D
:101218006878FFF71FFA38B14FF0FF3301202B63CE
:101228000023A361BDE8F087C5F83090E1690A782A
:10123800002A58D0CB7AE52A03F03F03A37105D0E2
:101248002E2A03D023F02000082810D1FF260021E1
:101258002046FFF721FF0028E2D1D4F81890B9F111
:10126800000FCCD10028DBD10020BDE8F0870F2B80
:1012780046D1500634D5236902F0BF0691F80D8097
:10128800E3624B7B4345E1D14B8B002BDED10B78DE
:101298000122DFF894E04FF6FF7A23F04003D5F8F7
:1012A8000C900EF10C0C013B03EB430003EB8003A5
:1012B800104609E0FE2B1046C8D829F81320013340
:1012C800E64512D01EF8012F8A5A0028F2D152455D
:1012D800F6D0BBE72846FFF7A1FA002895D09FE78C
:1012E800B242B3D1CDE704209AE70A78520604D572
:1012F800FE2BABD8002229F81320013EF6B2A6E750
:101308006EB901F10B02F30143EA560611F8013BED
:1013180053FA86F69142F6B2F5D14645A4D04FF07D
:10132800FF330020E3627DE7D07D0108B1F5001F9F
:1013380042D2CA06F8B50D4620D18168064607682C
:101348000561E9B17B89B5EB432F4FEA432435D3D7
:10135800384607E0012811D9BB6983420ED9AC424F
:101368002DD83068FFF748FD431CA5EB040501465E
:10137800F0D10120F8BD0023C6E905130220F8BD0D
:101388003B78022B13D83B89B3EB551FF6D9BA6AC1
:10139800B2617161002AF1D007F13403C5F3080185
:1013A80002EB552200200B44C6E90623F8BDBB6AB0
:1013B800002BE8D01946C5E702207047BB69023BFD
:1013C800881E9842D7D27B89FA6A00FB0322B26151
:1013D800DFE700BF2DE9F04F0021054607682DED36
:1013E800028B85B0FFF7A2FFC8B94FF0FF094FF095
:1013F800FF3307F13408CA46EB62AC693B6B9C4289
:1014080013D0FB78002B4FD1012322464146787830
:10141800FFF720F940B14FF0FF3301203B6305B0DF
:10142800BDEC028BBDE8F08F3C63EC692678002E9A
:1014380000F0AB80E27AE52E02F03F03AB7103D0F7
:10144800100711D50F2B39D04FF0FF334FF0FF0A9B
:10145800EB6200212846FFF71FFE0028CDD005B01B
:10146800BDEC028BBDE8F08F0F2B27D0BAF1000F2F
:1014780077D095F82B0010F00100E5D195F82010F1
:1014880005F1210214F8013B05F12B065B1A002B2C
:10149800DAD112F8011B14F8013BB242A3EB0103A5
:1014A800F5D1002BD0D1BAE73846FFF7B7F90028B5
:1014B800AAD005B0BDEC028BBDE8F08F95F82B30B3
:1014C8005906C6D4720647D52B6906F0BF0694F8AC
:1014D8000D90EB62637B4B4540D1638B002B3DD174
:1014E80094F800A00123F96808EE108A0AF03F0A70
:1014F800029601950E460AF1FF3ADFF8C0B0184689
:1015080025460AEB4A02039100970AEB820A13E088
:10151800BAF1FE0F204618D800F066FF804636F86C
:101528001A00BA4600F060FF804520460DD1224BD4
:101538009B452CD01BF8013F0AF10107EC5A002803
:10154800E6D14FF6FF739C42F1D0DDE9007518EE45
:10155800108A4FF0FF0A7CE7B245BBD04FF0FF0A74
:1015680077E704F10B0022464FEACA1312F8011B71
:1015780043EA5A0A824251FA8AFA5FFA8AFAF3D19E
:10158800D1457FF476AF002049E7042047E72C4691
:10159800009F029E18EE108A2378019D5B0600D5F5
:1015A80020B906F1FF3A5FFA8AFA52E7039B33F84B
:1015B8001A30002BF5D0D1E7DC7D0108D07D010879
:1015C8002DE9F04F0B7883B00F4606462F2BD0F845
:1015D80000B003D117F8013F2F2BFBD05C2BF9D0BB
:1015E8000021B1603B781F2B40F23C815A461F2BEB
:1015F800D56898B229D9A5F10209B846012408E0AE
:1016080029F8020F631C18F8010F1F2840F2ED801B
:101618001C462F2804F1FF3A1DD05C281BD0B4F5D6
:10162800807F0ED0012100F0BFFE50B17F28E7D89F
:1016380022239F4A03E012F8013F002BE0D0984292
:10164800F9D1062003B0BDE8F08F002306202B80D7
:1016580003B0BDE8F08F3B5D3A195C2B02D02F2B0D
:1016680040F01481631C3B441F4613F8012B2F2ABA
:10167800FAD05C2AF8D0BAF1000FE6D04FF0000893
:1016880005EB4A0202E0BAF1010ADED032F8023D67
:10169800202BF8D02E2BF6D04FF02033002225F83F
:1016A8001A2073623362C6F8273028882E2802D0A1
:1016B800202840F0E0802A46002332F8020F1C461A
:1016C80001332028F9D02E28F7D048F00308023437
:1016D80005EB4A0333F8022D2E2A02D0BAF1010A8B
:1016E800F8D1A0B308223946002337462E461546BE
:1016F80099460A46202803D02E284AD1A24548D028
:1017080048F0030836F8140001340028F2D13E46A8
:1017180017462A4696F82010E52902D1052186F8B1
:101728002010082A00F08C8003F00C020C2A61D0EB
:1017380003F00303032B5DD018F0020F07D1012B30
:1017480008BF48F01008042A08BF48F008083046C7
:1017580086F82B80FFF73EFE96F82B30002854D1F0
:101768005A073FF56FAFB379DB0640F191803269D4
:101778000BF134039BF80010C2F308020329134449
:101788005A8B02D19B8A42EA0342B26032683B78A4
:101798002DE74D451BD9AAEB0401B1FA81F149099E
:1017A800A9B97F2839D82B21DFF80CC103E01CF830
:1017B800011F00294ED08142F9D148F003085F206B
:1017C80007EB090109F1010981F820009AE70B2DBF
:1017D80060D0A24502D048F0030898D39B00544635
:1017E8000B254FF00809DBB28CE71F44A2464FF0E7
:1017F800040845E748F00208304686F82B80FFF7D2
:10180800E9FD96F82B300028AAD004287FF41AAFF7
:1018180013F0040F08BF052014E7CDE9003200F0EB
:10182800C3FDDDE9003210B948F00208C5E72149D7
:1018380048F00208014411F8800C0028BDD0B2E736
:101848009B0003F00C020C2AD4D018F0020F3FF4CE
:101858007AAF7CE7A0F1410119290ED843F00203C1
:10186800C0B2ADE78023304686F82B3003B0BDE820
:10187800F04FFFF75BBD01242AE7A0F161011929A8
:101888009CBF203843F00103C0B299E71746F2E63F
:101898000520D7E63E46174648F0030896F820206C
:1018A800E52A7FF441AF052286F820203CE700BFF7
:1018B8003C7D0108507D0108487D01082DE9F04F65
:1018C8002DED028B90F82B308BB013F0A002009313
:1018D80040F03081D0F800A00646DAF80CE0BEF8F7
:1018E8000030002B00F0C9819346724632F8023F5F
:1018F8000BF1010B002BF9D106F120030DF11C08A7
:1019080093E8070088E80700009A0293D1076DD58D
:101918006FF01F054022B1460127AD1B86F82B202A
:10192800AE4C7346029EB446052F98E80700ACE813
:1019380003002CF8022B4FEA12428CF8002071D9D0
:10194800198800296ED09C463B46102001F0010200
:10195800490802EB4303DA0348BF63400138F5D175
:101968003CF8021F0029F0D10DF11B0C072203F0EF
:101978000F004FEA131E013A00F13001392988BFE0
:1019880000F137010F2B73460CF80119EFD802F15B
:1019980028037E216B4403F8141C002A44D009F163
:1019A8001F01002302E001339A4203D011F8010F0E
:1019B8002028F8D120334B4402F12801072A0DEBE7
:1019C80001004FF0200102D810F8141C013203F86E
:1019D800011BE9180729EFD94846FFF7FBFC28BB8C
:1019E8000137642F16D0DAF80C309CE7009B544678
:1019F8009B0726D57A4B0BF10C0700213046A3FB39
:101A08000737FFF793FC8146BF08013708B304285E
:101A180040F03A814FF0070948460BB0BDEC028B05
:101A2800BDE8F08F3B469FE71346C3E704284E46C0
:101A38008146F1D1009B346886F82B30009B9B07C8
:101A4800D8D400213046FFF771FC012781460028D1
:101A5800DDD1054604F13408D6F818B0236B9B4550
:101A680016D0E378002B5FD101235A4641466078AF
:101A7800FEF7F0FD50B14FF001094FF0FF33484633
:101A880023630BB0BDEC028BBDE8F08FC4F830B017
:101A9800F3691B78E52B0BD0B3FA83F252093BB1FB
:101AA800154601213046FFF7F7FA0028D4D0AEE7F3
:101AB8000135AF42F5D17B1E00933ED1B469DAF807
:101AC80030309C4211D09AF80330002B40F0DE8071
:101AD800012322460AF134019AF80100FEF7BAFD03
:101AE800002840F0C380CAF8304020220021F06965
:101AF80016F0CEF8F36906F12B01029A013B12F8B1
:101B0800010B914203F8010FF9D196F82B3001220D
:101B1800F169484603F018030B738AF803200BB0E9
:101B2800BDEC028BBDE8F08F2046FEF777FE00285B
:101B38009AD06CE74FF006096EE731693046009B92
:101B4800A1EB4311FFF7F2FB0190002840F0A680BB
:101B580006F12B01029AC30143EA500312F8010B64
:101B680050FA83F38A42D8B2F5D10AF13403DFF888
:101B780074B0019008EE103ACDF80C90B469DAF818
:101B880030309C420FD09AF80330002B77D10123D4
:101B9800224618EE101A9AF80100FEF75BFD00289D
:101BA80064D1CAF830409DF800900F27F1690025EC
:101BB80009F1FF30DAF80CE0CF722B4600EB400257
:101BC800019F01244FF6FF7800EB82004FF0FF0CD5
:101BD8002A464F730D738D76CD761DE021100100D6
:101BE8004FECC44ED07D01083EF81030180A0B5552
:101BF80068705BB901324FF6FF730D2A23D01BF8CA
:101C080002000C1801F800C084F801C001323846FF
:101C18000D2A11D01BF80240434501EB040500F1E1
:101C28000107E1D1013201F804C007460C440D2A2E
:101C3800384684F801C0EDD14FF6FF72934202D0C6
:101C48003EF817300BB949F04009012381F800909C
:101C5800304600218AF80330FFF71EFAA0B9009B2E
:101C6800013B00938AD1DDF80C9027E74FF0FF3352
:101C78004FF00109CAF83030CEE69B463CE65046A4
:101C8800FEF7CCFD002882D08146C5E65046FEF717
:101C9800C5FD00283FF41CAF8146BDE6DDF8049081
:101CA800BAE600BF30B585B01546019003A800918B
:101CB8000391FEF7F7FC031E1BDB0F4C54F82310AF
:101CC80009B100220A70019959B10022012D44F886
:101CD80023100A700AD101A96846FEF783FE05B0F1
:101CE80030BD084644F8231005B030BD104605B095
:101CF80030BD0B2005B030BD040400242DE9F047A9
:101D080090B00191002800F0838002F03F0716464A
:101D1800044603A901A83A46FEF764FE054628B121
:101D280000232360284610B0BDE8F087039B04A871
:101D380001990493FFF744FC80B99DF93B30002BCF
:101D48006BDB16F01C0F10D09DF8163013F0110F36
:101D580065D1730740F1CA800825E1E716F01C0F2A
:101D680001D004285FD00546DAE79DF81630DA0678
:101D780057D4B10701D5DA0751D4DDF80C903B07E9
:101D880048BF47F04007D9F8303023620B9B6362A5
:101D980099F800205E8B032A02D19A8A46EA024605
:101DA8000021A66004F12C0AD3F81C80B9F806308B
:101DB8004FF4007227745046C4F80090C4F80C80A1
:101DC800A162A3806174E161616115F061FFBF06E2
:101DD800A8D5B8F1000FA5D0B9F80A30C4F8148016
:101DE800B8EB432F4FEA432706D884E0701C00F075
:101DF800B880474580F0B58031462068FEF7FCFF83
:101E08000128A8EB07080646F0D80225A06187E755
:101E18000925284610B0BDE8F087062580E7072584
:101E28007EE704257CE704A847F00807FFF746FD8E
:101E3800002898D106F088F80B9BC6B2C0F3074279
:101E4800C0F30721000E9E734FF0200CD9731A744B
:101E580058740B9BDDF80C909E75D9751A765876D8
:101E68000B9B83F80BC099F800200B9B032A5E8B11
:101E780002D19A8A46EA024600229A76DA7699F8D8
:101E88000010032901D11A755A750B9B00221A7785
:101E98005A779A77DA77012389F80330002E3FF4CE
:101EA8006EAF04A83146D9F83080FFF749F800280A
:101EB8007FF459AFDDF80C90D9F8303098453AD016
:101EC80099F80330002B42D10123424609F134012D
:101ED80099F80100FEF7BEFB88B34FF0FF31039B72
:101EE80001250E44C9F830101E6119E73007A1D446
:101EF800DDF80C9047E7A661C8F30803002B3FF410
:101F080011AF0398023E8369023B9E4204D2428984
:101F1800C36A06FB02320AB9022501E702EB58221E
:101F280051460123E2614078FEF794FB00283FF414
:101F3800F9AE0125F4E6013EC9F810601FE7013E3D
:101F4800C9F83080DDF80C90C9F8106017E74846EA
:101F5800FEF764FC0028B7D0039B013E05461E61CE
:101F6800DEE6711CA6610CBF01230023C4D11D4607
:101F7800D6E600BF2DE9F04F1E4687B000238846FD
:101F880005A9044633601746FEF7B4FB054600284A
:101F980061D1657C002D5ED194F810A01AF0010A79
:101FA80000F0A1806069E3681B1A9F4228BF1F46A2
:101FB800002F50D004F50B7304F12C0BCDE901353B
:101FC800C0F3080363BB0599430A4A89013A12EA38
:101FD800502244D0A0698B690238023B98424BD208
:101FE800B1F80AC0CB6A0CFB0030002844D0B7F522
:101FF800007F02EB000946D2E2694A450BD094F90A
:102008001030002B71DB487801234A465946FEF709
:1020180021FB002860D16369C4F81C90C3F308034E
:10202800C3F5007C5B4408F1FF32BC4528BFBC46C1
:1020380003EB0C0013F8011B834202F8011FF9D1CE
:102048006069B7EB0C073368E0446044634460613F
:102058003360B5D1029D284607B0BDE8F08F38BB84
:10206800A068012808D9431C36D00599A061023818
:102078008B69023B9842B3D302231D4663742846FA
:1020880007B0BDE8F08F02EB57207D0A604548781D
:10209800414688BFACEB02054A462B46FEF7DAFA02
:1020A800D0B994F91020002A33DB4FEA452CC7E752
:1020B800A06A38B3216804304989B3FBF1F3016899
:1020C80029B9D9E75B1A50F8081F0029D4D08B42E8
:1020D800F8D240681844C4E755460123284663747B
:1020E80007B0BDE8F08F0725B5E7487801235946C2
:1020F800FEF7BEFA0028EFD1237C059903F07F0391
:10210800237480E7A16920680392FEF775FE039A9D
:10211800A7E7E269A2EB0909A945C6D208EB492954
:1021280004F12C01019809F1FF3211F8013B8142B9
:1021380002F8013FF9D1B8E770B3F8B5036804466F
:102148002BB11A781AB18188DA88914201D0092016
:10215800F8BD5878FEF762FAC207F8D4237C13F06A
:102168004000F5D01B06266847D405F0EDFE276A27
:10217800336B05469F4212D0F378002B4AD10123D6
:102188003A4606F134017078FEF764FA30B14FF040
:10219800FF3301203363F8BD092070473763636A52
:1021A800DA7A42F02002DA72A2682168C2F30720C4
:1021B8009A76D8760978032903D1120C1A75120A6F
:1021C8005A75E26830469D75110A1A775977110CCD
:1021D800120E9977DA772A0ADA752A0C2D0E1A76F2
:1021E80000225D769A74DA740123F370FEF740FBDF
:1021F800237C23F040032374F8BD0123E26904F132
:102208002C017078FEF734FA50B9237C03F07F0371
:102218002374AAE73046FEF701FB0028AFD0F8BDCB
:102228000120F8BD10B582B00446FFF785FF08B15C
:1022380002B010BD01A92046FEF75CFA0028F7D1CC
:10224800206002B010BD00BF10B584B00191002815
:1022580032D00446002203A901A8FEF7C3FB18B137
:102268000023236004B010BD039B2046019923601E
:10227800FFF7A6F9E0B994F92B30002B1FDBA379FF
:10228800DB0617D5039BE16918784A8B032802D12E
:10229800898A42EA0142A260DB8800212046A380A5
:1022A800FFF744F8042805D00028D9D104B010BDA0
:1022B8000428D5D10520D3E7092004B010BD039B1D
:1022C800EAE700BF98B1036810B504462BB11A7845
:1022D8001AB18188DA88914201D0092010BD587856
:1022E800FEF79CF910F00100F7D1206010BD09201D
:1022F800704700BF20B3036870B5044633B11A783D
:1023080022B10D46DA888188914201D0092070BD3A
:102318005878FEF783F9C307F8D49DB12046FEF735
:102328005FFF10F0FB06F2D129462046FEF7FAF9C6
:1023380031462046FEF7B0FE042808BF002070BDD5
:102348000920704729462046BDE87040FEF7EEBFD9
:10235800144B9A7B012A01D90120704793F80EC0CB
:1023680000225FFA8CFC03F80C2093F80EC003EBF4
:102378008C0CCCF8040093F80EC0987B9C448CF825
:102388000C2000F1010C30305FFA8CFC83F80EC091
:102398004FF03A0C2F23087081F801C010468B705B
:1023A800CA707047100600247F2814D981B90D4AD5
:1023B800C72303E080290DD032F8023F98421FFA64
:1023C80081FC01F10101F5D10CF1800080B2704768
:1023D800FF2801D900207047024B803833F81000DD
:1023E800704700BFE07D0108B0F5805F244A41F6E0
:1023F8007D51244B34BF6121134610B5043303E0EB
:102408000433DAB133F8041C1C46B1B1884214D342
:1024180033F8022C5FFA82FC120A0CEB010E7045AD
:10242800EEDA082A09D8DFE802F00512181B1E2187
:1024380024270E00411A33F8110010BD04EB4C0399
:1024480034F81C10DAE7A0F5E35080B210BD431A47
:1024580003F00103C01A80B210BD103880B210BD5D
:10246800203880B210BD303880B210BD1A3880B222
:1024780010BD083080B210BD503880B210BD00BF0A
:10248800D4800108E07E0108704700BF704700BF94
:10249800F7EE000A9FED010A04F01ABA00000000E6
:1024A8002DE9F041334817460E462DED028B01F019
:1024B80063FB304801F06CFB002F57D000252D4CF2
:1024C8001FE0802B40D094F8C0302BB194F8C63070
:1024D8007F2B41D0802B3BD02748013500F07EFE72
:1024E800B0EE408A254800F079FEAF4238EE000A87
:1024F800D6E900034044434480ED000A83ED000A16
:1025080034D094ED1C0A4FEA85081B4830EE000AC7
:1025180001F066F994ED240A184830EE000A01F03B
:102528005FF994F8B030002BCDD094F8B6307F2BFB
:10253800C7D1114800F0AEFC94F8B030002BC2D0DF
:1025480094F8B630802BBED10B4800F0FFFCBAE7F8
:102558000A4800F0FBFCBFE7084800F09BFC94F831
:10256800C030002BB8D094F8C630B3E7BDEC028B6E
:10257800BDE8F081D43300241CB9072420B907240E
:102588002DE9F04FA24E9A460023144604228146B4
:102598002DED028B87B000913146029302ABFFF715
:1025A800E9FC3378522B09D07378492B06D0B378DD
:1025B800462B03D0F378462B40F04282954F02AB6E
:1025C8000422484639460025FFF7D4FC3B6804221C
:1025D80091497360484602ABFFF7CCFC02AB04227A
:1025E8008E494846FFF7C6FC25E096F80DC0BCF1B9
:1025F8006D0F2BD096F80EC0BCF1740F26D096F84C
:102608000FC0BCF1200F21D0FFF7B4FC3A68DFF807
:1026180030C2214602AB4846CCF80020FFF7AAFC9E
:1026280002AB04227D494846FFF7A4FC7C4B1B689B
:10263800AB42C0F0788196F80CC002AB0422754911
:10264800BCF1660F484605F10105CED102AB042264
:1026580070494846FFF78EFC724D3B6802222946B6
:102668004846336102ABFFF785FC0023CDE903330D
:10267800ADF814302B88012B736100F05B81062BB9
:1026880000F06281072B00F0B88002AB0222654996
:102698004846FFF76FFC2B88139A4846B3615D499B
:1026A800136002AB0422FFF765FC3B68149A4846A6
:1026B800F3615849136002AB0422FFF75BFC3B68E7
:1026C800022258493362484602ABFFF753FC2B8875
:1026D800022254497362484602ABFFF74BFC2B8831
:1026E80004225149B362484602AB0025FFF742FC79
:1026F80025E096F82DC0BCF1610F2BD096F82EC0BE
:10270800BCF1740F26D096F82FC0BCF1610F21D010
:10271800FFF730FC3A68DFF828C1214602AB48468B
:10272800CCF80020FFF726FC02AB04223E494846BD
:10273800FFF720FC3A4B1B689D4200F2FE8096F89A
:102748002CC002AB04223349BCF1640F484605F1A2
:102758000105CED102AB04222E494846FFF70AFCF8
:102768003A68D6F818C0B16A4FEAC20B706901FB23
:102778000CF301283263BBFBF3FB4FEAD30340F0B1
:102788006281B3FBFCF707FB0CF0834240F05B81EE
:10279800083918292ED8254B03EB8103D3ED007A8D
:1027A800F8EEE77A224DB7EE007A2B6887EE278A93
:1027B8000BFB0C33534580F04C81129B934240F243
:1027C800458102AB48462146FFF7D4FB194A00234E
:1027D800042F136067D0032FB84600F0BC80022F87
:1027E80030D0012F00F0F580286807B0BDEC028BCF
:1027F800BDE8F08FDFED107AD4E7104B93E80300C3
:10280800ADF81010090C03908DF812103DE700BFC9
:10281800A033002424060024A8330024AC33002469
:102828000400002420060024CC330024B4810108CD
:1028380018B9072424BA0724000000009881010869
:102848001CBA0724BBF1000FCEDDD6F818A00BF197
:10285800010B28684FF00109BAF1000F1ED00AF1E8
:10286800010E009B1168461C864403EB800704F1A7
:10287800010818F801C0635C023143EA0C231160B7
:102888001BB207EE903AF8EEE77A67EE887AE7EC43
:10289800017A2E6001367645EBD1504409F10109E1
:1028A800CB45D9D1A1E79B459EDDD6F818A0234694
:1028B8000BF10108286854464FF001099A464CB3B9
:1028C800136804F1010C0099461C5344844401EB3D
:1028D8008007CAF1040E997893F801B0090441EA17
:1028E8000B2193F800B041EA0B0193F803B041EAD9
:1028F8000B6107EE901A0EEB03010433F8EEE77A4A
:10290800116067EE887AE7EC017A2E600136664539
:10291800E1D1204409F10109C845D0D107B0BDEC87
:10292800028BBDE8F08F6FF0010007B0BDEC028BA1
:10293800BDE8F08F484B0393A7E66FF0020007B09D
:10294800BDEC028BBDE8F08F444B93E80300ADF873
:102958001010039099E6BBF1000F7FF745AFD6F84A
:10296800189023460BF1010B28684C464FF00108DC
:1029780099462CB3116804F1010C009B461C49448C
:10298800844403EB8007C9F1030E4B7891F800A04B
:102998001B0443EA0A2391F802A043EA0A6307EEFC
:1029A800903A0EEB01030331F8EEE77A136067EE15
:1029B800887AE7EC017A2E6001366645E5D1204435
:1029C80008F10108C345D4D107B0BDEC028BBDE8BE
:1029D800F08FBBF1000F7FF707AF0BF1010BD6F8B3
:1029E80018902868CDF804B0DDF800B0B9F1000FF0
:1029F80020D0D2F800C009EB000A0BEB80070CF1DD
:102A0800FF360BEB8A0E2644334616F9011F07EEF4
:102A1800901A0233F8EEE77AA3EB0C011B1B67EE62
:102A2800887A13600B1BE7EC017A034477452B6027
:102A3800EAD1504608F10108019B4345D6D1D4E6B6
:102A48004FF0FF30D1E66FF00500CEE66FF00400DE
:102A5800CBE66FF00300C8E650434D0090810108B3
:102A68002DE9F043804683B02F484146FFF7ECFB41
:102A7800002832D12D4D2E4F2E4E2C492A48FFF7D3
:102A880039FCDFF8C49003462B4A2C4948463B7072
:102A980033BBAB7D23B32B7A13F0120FEDD134681F
:102AA800C2F800901E2C1BD815F00BF903462449D8
:102AB80048466BB1234B4FF49670414600FB0430F7
:102AC800013415F0EDF8204915F0F3F83460D4E737
:102AD80015F0F7F80028EDD1CFE703B0BDE8F08393
:102AE8001148FFF7EFFB3368002BF6D0174C002591
:102AF80004E0336804F59674AB42EED904F12C0176
:102B0800012213480135FFF7F9F80028F1D101AB8C
:102B180021462C220E48FFF72DFA03460C48002BBD
:102B2800DBD1FFF77FFBE4E728060024102E002402
:102B380020BA0724840800240C2E0024A081010850
:102B4800A8810108B4080024262E0024880800243F
:102B5800580600242DE9F04F00218BB04B48012482
:102B680001F0D4F80025032307A949488DF824501B
:102B7800DFF860A1CDE9073404F024FA214645487E
:102B880005F0BEF9224644494448FFF78BF8444B08
:102B9800444A45499FED450A454800F03FFE4548EF
:102BA800FFF75EFFDAF80030002B59D0DFF82881F4
:102BB800A946414F414E424CDFF820B10FE0314663
:102BC80038463B4A043600F0F1F83846002104370D
:102BD80000F05CF9DAF800301034AB4240D94146D5
:102BE8000122384808F59678CBF80050FFF786F8A8
:102BF80006A84FF0007100224FF40003029005A8C8
:102C0800CDE90522CDE900102F4A30492D48FFF7BC
:102C1800B7FC03462B48002BA3EB090207DDE26053
:102C2800C4F800909946059A069B6260A360FFF776
:102C3800F9FA30461E4A012100F08AF8DAF8003025
:102C4800AB4205F10105BAD9216830461F4B03EBA9
:102C58008101A36800936368E26800F09DF8AEE71D
:102C680004210A4800F058FF0321084800F06AFFD1
:102C780003F010FE054800F07BFF1549034800F0FB
:102C880049FF024800F094FFFBE700BFD43300245B
:102C980028BA0724282F0024B08101082C2F0024EB
:102CA80099240008BBF206005CC6002400803B475C
:102CB8000CC60024943300241CB907249CB90724AB
:102CC8002CBA072458060024000000C0000000C2E7
:102CD800A924000884080024B4080024082E00242D
:102CE80014480021144A00F5104310B501604161F1
:102CF8000162C0F87C11C3F82412C3F82C120F49E2
:102D08000F4CC3F830124FF60F01A3F83412072105
:102D180083F836122188A3F82812A188A3F82A126A
:102D2800084914F0B5FE044A07490848BDE81040B0
:102D380014F0AEBED43300240000002480707FF06D
:102D4800F87C0108952400089124000828BA072473
:102D58002DE9F04196690D4607462420314600F0DA
:102D680065FED6F804800446386031460660A8003F
:102D780000F05CFED8ED007A00230122FCEEE77A31
:102D88006060E5602362A360C4ED067A2377C4E936
:102D98000432BDE8F08100BF006892FBF3F24361A2
:102DA800009B41608361C0E9032270472DE9F0412F
:102DB800D2F8188082B015460E46183207464146AA
:102DC8006820019200F032FE36680446D5ED016AAB
:102DD800B1EE040AD6ED067A95ED006A0025F8EE04
:102DE800677A9FED277A38601C30F36826EE077AF9
:102DF80067EEA67A716940ED056AF7EE006A00EDA4
:102E0800037A013BF5EEC07A40ED027A03628362F1
:102E18000023F1EE10FA40F8041C43604FF0000163
:102E280040F2011300ED046A48BFF1EE677AC1630E
:102E38008161012183824FF4FA7386EEA77AC0ED8F
:102E4800027A8175C36240F81C8C40F8186C80F8CF
:102E58003450019A019084ED0B7A00F013FD9FED38
:102E6800090A019800F064FD074B4FF0FF3284F81F
:102E78005C502366A2632264636602B0BDE8F081F9
:102E88004260E53B00000000000080BF036883F853
:102E98005010704710B50468A36D002B06DC12D0E3
:102EA80001234FF0FF32C4E9153210BD4FF0FF3255
:102EB800012304F11C009FED240AC4E91532BDE882
:102EC800104000F027BD0122B7EE000A04F11C00F3
:102ED800C4E9153200F01EFD94F93030002B94F946
:102EE800313026DD002B26DD626BE16B07EE902A80
:102EF800F8EEE77AC4ED087A8B1AD4ED127A002B33
:102F0800F8EE677AB8BF5B4207EE103A6364BAEE30
:102F1800CF7AF4EEC77AF1EE10FA03DDBCEEC77A89
:102F280084ED127A9142B4BFFF23012384F8313033
:102F380010BD002BD8DDE16B626B07EE901AF8EE3E
:102F4800E77AC4ED087AD7E70000000003684FF07D
:102F5800FF329FED030A03F11C009A6500F0DABC0A
:102F68000000000070B504680546A36D002B41D031
:102F7800E36B8B4265DB01200026844694ED127AD0
:102F8800D4ED117AF8EE476A94F85C20FBEECF7A1C
:102F9800F4EEE67AF1EE10FA48BFBCEEE77A002AC2
:102FA8004DD1D4ED187AF5EEC07AF1EE10FA46DA82
:102FB80094F9322094F930E012FB0EF20CFB02F285
:102FC800002A48DD002846D006EE901A94ED086ADB
:102FD800F8EEE66AF4EEC66AF1EE10FA4ADC94F905
:102FE8003130634506D0F5EEC07A0023F1EE10FAD1
:102FF80048BF6366636800201A69013A00F0D2FC92
:103008002B686063DA6B586BD3ED127A111AF8EEFD
:10301800677A0029B8BF494207EE101A5964BAEE18
:10302800CF7AF4EEC77AF1EE10FA0FDC8242B4BF21
:103038004FF0FF3201224FF0FF3183F83120A163B6
:1030480070BD012600204FF0FF3C97E7BCEEC77A21
:1030580083ED127AEAE7002AC1DA002EBFD006EE25
:10306800901A94ED086AF8EEE66AF4EEC66AF1EE94
:1030780010FAB4D55B1AB8EE477AA16383EAE37213
:10308800A2EBE37207EE902AFAEECF7AB4EEE77A73
:10309800F1EE10FAD4DDFCEEE77AC4ED127A70BDD9
:1030A80070B504680546A36D002B41D0636B8B4255
:1030B80065DC01200026844694ED127AD4ED117A5D
:1030C800F8EE476A94F85C20FBEECF7AF4EEE67AE5
:1030D800F1EE10FA48BFBCEEE77A002A4DD1D4EDE4
:1030E800187AF5EEC07AF1EE10FA46DA94F9322041
:1030F80094F930E012FB0EF20CFB02F2002A48DAD7
:10310800002846D006EE901A94ED086AF8EEE66AB2
:10311800F4EEC66AF1EE10FA4AD494F931306345F8
:1031280006D0F5EEC07A0023F1EE10FA48BF6366C8
:10313800636800201A69013A00F034FC2B68E063E8
:10314800586BDA6BD3ED127A111AF8EE677A002908
:10315800B8BF494207EE101A5964BAEECF7AF4EEB6
:10316800C77AF1EE10FA0FDC8242B4BF4FF0FF329B
:1031780001224FF0FF3183F83120216470BD012610
:1031880000204FF0FF3C97E7BCEEC77A83ED127A38
:10319800EAE7002AC1DD002EBFD006EE901A94EDB2
:1031A800086AF8EEE66AF4EEC66AF1EE10FAB4DDE3
:1031B800CB1AB8EE477A216483EAE372A2EBE37292
:1031C80007EE902AFAEECF7AB4EEE77AF1EE10FA2B
:1031D800D4DDFCEEE77AC4ED127A70BD2DE9F04F2C
:1031E80004680546A16B00292DED088B87B001DB2B
:1031F800FFF7B8FE216C002902DB2846FFF750FFD5
:10320800A36D002B00F04581D4ED097AF5EE407AE4
:10321800F1EE10FA00F03481636C012B40F230813A
:1032280094F931306268002BD4F83480D4F83CA08B
:103238005068C0F23B81D4ED087AD2F8109094F926
:103248003260FDEEE78A94F9302016FB02F6B8EEFC
:10325800E87A03FB06F618EE903A77EEC77AF10F94
:1032680007EE106A5F18B8EEC7AA07EE101A01FB3E
:1032780009FBBB1BC1F10101B8EEC72AF2199B4536
:1032880007EB460C0491A7EE8A2A00F30B81A3EB07
:103298000B0301FB09F1BB4500EB83030391CCBF92
:1032A80007EB010EA7EB0B0E8A4293ED000A00EB29
:1032B8008E0E0290ACBF521A5A448C45DEED000ABD
:1032C80000EB82028DED012AACBFACEB010CDC44B3
:1032D80092ED001A00EB8C0CDCED001A00F06EFB8E
:1032E80094ED117AF5EE007A94ED129AF8EE470A09
:1032F8009DED012AB8EEC97AF0EE409A60EEA77A01
:10330800DDE90201F4EEC77AF1EE10FA48BFBDEE2E
:10331800E79A19EE103A9845C0F2EB8094F85020DD
:10332800A8EB030CCDF80480012A00F0EB80DFED58
:10333800DA8AB0EE688AF0EE68AAB0EE68BA94ED60
:10334800090A14F0ABFBD4ED087AD4ED186AEAEE5A
:10335800007AF5EEC06AF1EE10FAC4ED087A26DBC1
:103368007342D4ED196A06EE103AB8EEC66AE6EE74
:10337800006AC4ED196AFDEEE66A16EE903A002B73
:1033880007DA07EE109AB8EEC77A77EE877AC4EDB7
:10339800087ABDEEE77A17EE103A4B4507DB07EEE1
:1033A800109AB8EEC77A77EEC77AC4ED087AD5F8DE
:1033B8000090D9F83810002902DB2846FFF7D2FD23
:1033C800D9F84010002902DB2846FFF769FE94F877
:1033D8005030012B00F0FC80022B6ED0002B40F007
:1033E800858007EE908AB8EEE77AD4ED087AF4EE95
:1033F800C77AF1EE10FA5DD407EE10AAB8EEC77AD4
:10340800F4EEC77AF1EE10FA54DC002E94ED0B7A44
:10341800B4BFA7EB0803AAEB070307EE903AF8EE50
:10342800E77A67EE877A94ED047AB4EEE77AF1EEFC
:1034380010FA5BDDA36D04F11C05012B00F09D81E2
:10344800B7EE009A28462BEE2A0A28EE288A79EE4B
:103458006AAA79EE688AAAEEA90AA0EE288A00F07C
:1034680075FAA36D002B20EE088AC0F2D980B0EE61
:10347800480A84ED0A8A07B0BDEC088BBDE8F08FD6
:1034880094ED0A8AB0EE480A07B0BDEC088BBDE897
:10349800F08F9FED818AB0EE480A07B0BDEC088B2B
:1034A800BDE8F08F09FB01F10B44F4E64146D04634
:1034B8008A46C0E684ED087AA7E707EE908A94ED7D
:1034C800087AF8EEE77AB4EEE77AF1EE10FA40F10E
:1034D800C88008F1010894F8323007EE908A5B4200
:1034E800F8EEE77A84F83230C4ED087A04F11C0566
:1034F800A6E794F850204FF0000C8DED019A012AB0
:103508007FF415AFBC4500F39D80019B9F4200F3FB
:103518009980DB1B84F85C200293AAEB03039A1BB7
:1035280006EB030C03EB460E934500F3B280A2EBC7
:103538000B029B4500EB82020591CCBF5B18A3EB05
:103548000B038C4592ED000A00EB83030390ACBF9C
:10355800ACEB010CDC448E45D3ED000A00EB8C0C7F
:10356800ACBFAEEB010EDE449CED001A00EB8E0EF4
:10357800DEED001A00F022FAB8EEC99AB0EE40BAB1
:1035880003980599B5EEC09AF1EE10FA40F3F2806F
:10359800DDED027AF8EEE77AC7EE89AAD4ED197A5A
:1035A80094ED187A77EEC7BAF0EEEBBAF4EEC9BA32
:1035B800F1EE10FA40F38280384BDFED378AD4ED14
:1035C800117AB0EE688A2366F8EE670A6366B6E693
:1035D800D4ED087ABDEEE77A17EE103A43450EDAD5
:1035E800019BAAEB030307EE103AB8EEC77A77EE11
:1035F800877ABDEEE77AC4ED087A17EE103A9A4555
:10360800BFF674AF019B04F11C05AAEB030A07EE91
:1036180010AAB8EEC77A77EEC77AC4ED087A0FE732
:10362800284600F0BBF9DFED1E7AB4EEE70AF1EEAA
:1036380010FA3FF61CAF636D012B00F0A780002342
:10364800A36514E719EE103AAAEB030297422BDBA5
:10365800BA4529DBBB1A01220293634484F85C2033
:103668005DE707EE90AAF8EEE77AB4EEE77AF1EEB6
:1036780010FA7FF73BAF0AF1FF3A94F8323007EEC1
:1036880090AA5B42F8EEE77A84F83230C4ED087A03
:103698002CE70A444DE700BF00000000000080BF8F
:1036A800ACC52737000000005FED02AA0023B8EE82
:1036B800C99AB0EE6ABA84F85C306FE7F5EEC07A62
:1036C800F1EE10FAC0F28280FFEE006AB4EE667A7C
:1036D800F1EE10FA09D1D4ED087A77EEE7BAC4ED25
:1036E800187AC4ED197AF0EEEBBA9DED047A18EE6B
:1036F800907AB8EEC72A0137BDEEE77A17EE103A8E
:10370800B8EEC77AF218A3EB060CA3EB460E77EED9
:10371800C77A8A42ACBF521A5A448B42AAEE672A29
:1037280000EB8202ACBF5B1A5B44E34592ED000AF2
:1037380000EB8303CCBF8C44ACEB0B0CF345D3ED0F
:10374800000A00EB8C0CCCBF7144AEEB0B019CED76
:10375800001A00EB8101D1ED001A00F02FF979EE83
:103768006BBAD4ED117AB0EE408ACBEE898AF8EEC6
:10377800670AE4E55FED35AA10E71FED360A28462B
:1037880000F0C8F84FF0FF33A36559E60022B0EE09
:10379800490A2846C4E9152300F0BCF894F93030EA
:1037A800002B94F9313008DD002B08DDD4ED0D7ABB
:1037B800F8EEE77AC4ED087A59E6002BF6DDD4ED89
:1037C8000F7AF8EEE77AC4ED087A50E65FED4B8A97
:1037D800D4ED117AB0EE688AF8EE670AAFE500BF5B
:1037E8000368D3ED057A20EE270AB5EEC00AF1EE9C
:1037F80010FA0BD40122B7EE007A83F8302083ED5B
:10380800090AC7EE007AC3ED0B7A7047B1EE400A99
:103818004FF0FF32EFE700BF704700BF38B50062D6
:1038280004461D462DED028BB0EE408A00F0E6F806
:10383800F7EE006ADFED0C7A00220C4B84ED008A6B
:1038480086EE887A25616261BDEC028BC4E90E328E
:10385800C4E91022C4E9122267EE277A84ED017ABE
:10386800C4ED037A38BD00BFDB0FC940213800081A
:1038780010B400EB81020124836BD4635DF8044B20
:10388800184700BF70B515680C460646282029461B
:103898002DED028BB0EE408A00F0C8F86B6807EE99
:1038A800904A9FED1A7AB7EE005AF8EEE75AD3ED30
:1038B800007A306027EE877AC0ED027ADFED146A6D
:1038C800056085EE076AC0ED056AC0ED066A4462C8
:1038D80026EE257A80ED036AB4EEC87A80ED047A84
:1038E800F1EE10FA37FE087AC5EE077A80ED077A0E
:1038F800BDEC028B67EE867A67EEA57A67EEA66A5C
:10390800C0ED087AC0ED016A70BD00BF6F12833A3E
:1039180000000000036893ED057A83ED060A30EE97
:10392800470AD3ED087A20EE270A83ED010A70478B
:103938000368D3ED067A83ED050A37EEC00A93EDE6
:10394800087A20EE070A83ED010A7047036893EDB1
:10395800050A93ED017AD3ED067A37EE000AB4EE44
:10396800E70A83ED050AF1EE10FA0BDBB5EEC07A33
:10397800F1EE10FA06DDB0EE670A0022C3ED057A13
:103988005A607047B4EEE70AF1EE10FAF9D8B5EECE
:10399800C07AF1EE10FAEED4704700BF036893EDD9
:1039A800050A7047904202DD034610461A468842CF
:1039B80003DC8A42A8BF0A461046704770EE607A58
:1039C80030EEC16AF6EE005A71EEE76A31EE407ADF
:1039D80076EEC11AF0EE466AE7EE257AE1EEA56AC0
:1039E80077EEE67AE6EE827A67EE827AE7EE257A75
:1039F800E7EE820AB0EE600A704700BF30B41025C7
:103A0800046A0023AA42656301EB050438BF2A460D
:103A1800C0E90913C262103A0C6000F11C04CA60C4
:103A2800C1E901338461016330BC70472DE9F84373
:103A38004D684E69AB6C0133AB64002E56D0C21D85
:103A4800344622F0070202E06468002C3DD0E368A7
:103A58009342F9D39F1A686BE260B84242D2D1F818
:103A680008C03B1A0244A4EB0C073A440CEB0207CB
:103A7800D4E9018E07EB00094CF80290FB60E3687B
:103A8800C7E9018E6268A64208BF4F610AB1A668FD
:103A98009660A66806B17260CA686D690244002023
:103AA8001A448542C4E90100CA600ADD256873B377
:103AB8006A1E134602F8010FE16802335B1B994244
:103AC800F7D824682046BDE8F883D1E903239B1A78
:103AD800834228468CBF01212146FFF7C9FE2046B4
:103AE800BDE8F8836768E3603A46CCE7D1E9032389
:103AF8009B1A834205D9012128463446FFF7B8FEB0
:103B0800E0E7314628463446FFF7B2FEDAE72C46AE
:103B1800D8E700BF00F09EB938B5044600F0BAF9FE
:103B2800D4F8A450204600F0D1F9284601F028FC2A
:103B3800D4F8A850204600F0C9F92846BDE8384016
:103B480001F01EBC38B5044600F088F9D4F8A4503A
:103B5800204600F0BBF9284601F012FCD4F8A85022
:103B6800204600F0B3F92846BDE8384001F008BC0B
:103B7800183001F025BF00BF10B50446643001F0CD
:103B8800DBFB04F18400BDE8104001F0D5BB00BFA9
:103B980010B504463C3001F04FFC04F1AC0001F0D4
:103BA800EFFC04F1BC00BDE8104001F0E9BC00BF27
:103BB80010B50446D43001F0BBFC04F59470BDE8A0
:103BC800104001F0B5BC00BFF0B504468DB014201C
:103BD800012500F029F90346132004F1D407ADF8B4
:103BE8000C3000F021F90346122004F5947406AE57
:103BF800ADF8103000F018F90399ADF81400384604
:103C08000095DDE9042301F055FC112000F00CF9C2
:103C180003461820ADF80C3000F006F9ADF8100096
:103C2800172000F001F9ADF81400059B2046049A0E
:103C38000399009509AD01F03DFC3046072104F0D9
:103C48006FFD96E8070085E807002946384601F029
:103C580059FC96E8070085E807002946204601F048
:103C680051FC384601F064FC20460DB0BDE8F04038
:103C780001F05EBC2DE9F04104461520002504F151
:103C8800180704F1A4062DED028B8EB09FED1E8A55
:103C980000F0CAF8034605A8ADF80C30039901F006
:103CA8009DFC0F2000F0C0F803460DF12500ADF88B
:103CB8001030049901F092FC0423022205A9384629
:103CC80001F09AFC04F1640204F18403C4E9292395
:103CD8002946384656F8048B01F088FE01462046EE
:103CE800019100F0F3F80023F0EE480A01994046EC
:103CF8001A4601F0EFFA25B10EB0BDEC028BBDE813
:103D0800F0810125E4E700BF6F12033B70B59FED1A
:103D1800420A8EB004468DED010A009100F082F847
:103D28000099204600F03EF91B2000F07DF803467C
:103D380004F1AC069DED010AADF8143004F1BC05A0
:103D4800059930468DED000A01F000FC1C2000F0BA
:103D58006BF8ADF818009DED000A2846069901F0A9
:103D6800F5FB1A20C4E9336500F05EF80346192014
:103D78000025ADF80C3000F057F803460D2004F587
:103D88001046ADF8103000F04FF8ADF81C0004F103
:103D98003C009DED000A049A0399079B01F01CFB67
:103DA8002046FFF711FF2046FFF764FF01231B4A57
:103DB80049F22C20099307A90C9347F612232044B3
:103DC8000A950D93022308950B93154BC6E9895262
:103DD800079303F057FF0A23C6F818523021C6F894
:103DE8001452204684F8843184F8805100F052F847
:103DF800D4F8A450204600F069F8284601F0C0FA2B
:103E0800D4F8A850204600F061F828460EB0BDE866
:103E1800704001F0B5BA00BF0000000001070106BC
:103E280001060107704700BF202882B009D8084B57
:103E380003EB400213F81030507843EA002002B038
:103E4800704701230C2043EA002002B0704700BFEE
:103E580018820108143001F009BA00BF38B500F122
:103E6800140504462DED028B284601F0BBF92846BF
:103E780001F0B4F92846B0EE408A01F09DF9D0ED82
:103E8800007AF8EE677A88EE277ABDEC028B84ED2B
:103E98000E7A38BD38B500F1140504462DED028BB5
:103EA800284601F08DF9284601F098F92846B0EE29
:103EB800408A01F081F9D0ED007AF8EE677A88EE51
:103EC800277ABDEC028B84ED0E7A38BD90ED0E0A90
:103ED800704700BFF0B5032399B00027012512935E
:103EE80006462C4B09A81595CDE90E7340F20453EC
:103EF800ADF84030284BCDE91357099301F078FE0F
:103F080009A801F051FF002836D1244B04AF04461C
:103F18000090CDF842301023394604958DF82030B2
:103F28001F4BCDE91650CDE906506846059302F0BF
:103F3800C9F80823009A01A909A8ADF804508DF81A
:103F4800064009940295039300F0E4F800230EA9B3
:103F580038463024049302F0C7FE03224FF07E5304
:103F680009A906F114000B930C93CDE90942049AB0
:103F780001F0EAF819B0F0BD40F60132074B169788
:103F880004AFADF824200998CDF84230179500F019
:103F980081F8DBE7040204040303000104060403B8
:103FA8000704010B2DE9F04304462DED028B83B085
:103FB800002948D0012140F2011200230091ADF8F8
:103FC80004208DF80630304A0126304B271D304931
:103FD80004F12908626040F20272A36040F60663A9
:103FE800E16004F125092682A4F8252084F82760D9
:103FF800A4F8293084F82B6004F0C8F9694605460E
:1040080048B304F130008DF8066004F01DF9072D5F
:1040180034D104F114052046FFF75CFF284601F06F
:10402800DDF82846B0EE408A01F0C6F8D0ED007AF7
:10403800F8EE677A88EE277A84ED0E7A03B0BDEC45
:10404800028BBDE8F08340F2011300918DF8061051
:10405800ADF80430B7E704F1300004F0F5F839465C
:10406800204602F079FA484601F0C2FD404601F0C8
:10407800BFFD04F1120000F077F9CAE7394620467F
:1040880002F06AFAC5E700BF050805090507050635
:10409800050A060610B584B003460124ADF80400ED
:1040A80003A8ADF80C30ADF80E4001F0A1FD214693
:1040B80003A801F087FE204603F0FAFF002103A8B9
:1040C80001F080FE204603F0F3FF214603A801F02B
:1040D80079FE04B010BD00BF10B5C2F3002384B050
:1040E8000C46017C8DF80D2043EA4402FA24022391
:1040F8008DF80C2003AA009402F07AF818B1012474
:10410800204604B010BD04460A2003F0D1FF204623
:1041180004B010BD034670B543F8042B044684B0C0
:1041280007C983E80700A37983B91A210B461E2221
:10413800FA2523742046ADF80C20022303AA009523
:1041480002F056F828B1012004B070BD1B210B46BF
:10415800EDE70A2003F0ACFF4FF4B85200950223B4
:10416800ADF80C20204603AA217C02F041F8002873
:10417800E9D10A2003F09CFF41F202720095022364
:10418800ADF80C20204603AA217C02F031F8002863
:10419800D9D10A2003F08CFF042200950223ADF840
:1041A8000C20204603AA217C02F022F80028CAD15C
:1041B8000A2003F07DFF062200950223ADF80C20AB
:1041C800204603AA217C02F013F80028BBD10A205C
:1041D80003F06EFF41F2082200950223ADF80C208F
:1041E800204603AA217C02F003F80028ABD10A205C
:1041F800064603F05DFF0095022303AA217C2046B2
:10420800ADF80C6001F0F4FF00289CD1304603F0B3
:104218004FFF009522790C232046002A8DF80C3098
:1042280003AA4FF0020314BF622142218DF80D103A
:10423800217C01F0DDFF002885D1304603F038FFEE
:104248002279D4E902310B43DBB20AB943F04003C7
:1042580062790AB143F020030E22FA258DF80D3059
:104268002046009502238DF80C2003AA217C01F03A
:10427800BFFF00287FF467AF0A2003F019FF102260
:1042880000950223ADF80C20204603AA217C01F0FA
:10429800AFFF00287FF457AF0A2003F009FF12216F
:1042A80000950223ADF80C1003AA217C204601F0EA
:1042B8009FFF00287FF447AF0A2003F0F9FE012290
:1042C80009212046FFF708FF003818BF01203BE707
:1042D800F0B5102387B0234C0122002501260027C2
:1042E80002A920460195CDE902234FF48052CDE979
:1042F80004670CF087F8642004F0CEFD02A94FF49F
:1043080080522046CDE9046702261027CDE90267CE
:104318000CF078F80322102302A92046CDE90223E5
:1043280000230422CDE904234FF480520CF06AF8EC
:1043380040F23223042202A9019310232046CDE93A
:104348000223019A012305924FF4805204930CF042
:1043580059F840F6060120460CF074F8284607B0D4
:10436800F0BD00BF34BC07241C4B00221C494FF091
:10437800400C30B5054689B00220596007219A6083
:104388001A620124DA620A224FF4006EDC60069297
:104398002022CDE9000104200821CDE902010320F3
:1043A8001021CDE9040108206946C3E904024FF44D
:1043B800C072181DC3E906C24FF48052C3E909E26E
:1043C8000BF0F6FF38B92846FFF782FF003818BF10
:1043D800012009B030BD204609B030BD30BC0724EB
:1043E80040410052614A0021D0B513688EB00A914D
:1043F800002B40F0B9805E4B01214FF683700C24EE
:1044080011600221D3F8D4200026032742F48052F9
:10441800C3F8D420D3F8D42002F480520092009A32
:10442800D3F8E02042F01002C3F8E020D3F8E020EF
:1044380002F010020192019AD3F8E02042F0400203
:10444800C3F8E020D3F8E02002F040020292029A7A
:10445800D3F8E02042F00802C3F8E020D3F8E020C7
:1044680002F008020392039AD3F8E02042F4807223
:10447800C3F8E020D3F8E02002F480720492049A92
:10448800D3F8E02042F08002C3F8E020D3F8E0201F
:1044980002F080020592059AD3F8E02042F020024B
:1044A800C3F8E020D3F8E02002F020020692069A32
:1044B800D3F8E02042F00402C3F8E020D3F8E0305B
:1044C8000C9403F0040307930323079A0B93CDE995
:1044D800080108A9274806F065FB48F237120223AD
:1044E80008A925480C94CDE90823CDE90A6706F008
:1044F80059FB4CF20372022308A920480C94CDE919
:104508000823CDE90A6706F04DFB40F2FF6202235B
:1045180008A91B480C94CDE90823CDE90A6706F0E1
:1045280041FB4FF60C72022308A916480C94CDE9FA
:104538000823CDE90A6706F035FB4FF63F02022350
:1045480008A911480C94CDE90823CDE90A6706F0BB
:1045580029FB2022022308A90A480C94CDE90A67FE
:10456800CDE9082306F01EFB0EB0D0BD2CBC0724F5
:10457800004402580010025800180258000C025853
:1045880000200258001C0258001402582DE9F04F70
:10459800DFF8108406460D46144608F118002DED84
:1045A800028B89B000AF02F097FCD8F8183073B3CB
:1045B800D8F81C30D8F80490002B43690BBF4FF093
:1045C800080A4FF0100A4FF0020B4FF0040BB9F134
:1045D800000F2AD0A200EA46012B02F1070222F0BE
:1045E8000702ADEB020D6846ADEB020D694600F01F
:1045F8003F81022B00F0D680002B6FD02246C8479F
:10460800D5462437BD46BDEC028BBDE8F08FD8F8FF
:104618001C30002BF5D0D8F804904FF0080A4FF062
:10462800020B4369B9F1000FD4D1FB61D8F800300F
:10463800BB61002BE5D0D54802F0C0FC6B46BBF14E
:10464800020F786108EE103AFB6900F083816A4630
:104658005146A2EBC40295466200EA46B2FBFBF261
:10466800AAEBC40085460AEB8200EE46F861ADEB82
:10467800010DF8690EEB820CC7F810C0EC46ADEBE3
:10468800010D00EB8201CCF80400CCF8081001EB16
:1046980082013869E946CCF80C1000EB8201CCF8AD
:1046A80000A001EB8202C9E900E0C9E90212012B6E
:1046B80000F06483022B00F06C82002B00F08081F4
:1046C800620849466046BB69984718EE103A243795
:1046D8009D46BD46BDEC028BBDE8F08F002C8DD009
:1046E8001A46D8ED0C6A9FEDB27A8446331D36F926
:1046F80022E00CF1080C07EE90EA33F922E00232CE
:10470800F8EEE77A944267EE877A67EEA67A4CED80
:10471800027A07EE90EAF8EEE77A67EE877A67EEB4
:10472800A67A4CED017AE2D8F9612246C847984E3C
:10473800D8ED0D6A0020F9692B1D9FED9E7A9FED3B
:104748009E6ADFED9E5A22E0F4EEC67AF1EE10FA88
:10475800C0F2C88447F6FE72D1ED017A45F82020F0
:1047680066EEA77AF4EEC77AF1EE10FA40F2F0801E
:10477800F4EEC67AF1EE10FAC0F2D58447F6FE726E
:1047880043F820200230083184427FF639AFD1ED5A
:10479800007A66EEA77AF4EEC77AF1EE10FAD3D86B
:1047A8003246D9E7002C3FF429AFD8ED0C6A84468D
:1047B8009FED787A0022331D8E4656F822100CF1B0
:1047C800080C07EE901A53F822100232F8EEE77A36
:1047D800944267EE877A67EEA67A4CED027A07EE86
:1047E800901AF8EEE77A67EE877A67EEA67A4CEDCC
:1047F800017AE2D871462246C7F81CE0C847664EDF
:10480800D8ED0D6A0020F9692B1D9FED6A7A9FED9E
:104818006A6ADFF894C120E0F4EEC67AF1EE10FA85
:10482800C0F279843246D1ED017A45F8202066EE4F
:10483800A77AF4EEC77AF1EE10FA40F28780F4EE28
:10484800C67AF1EE10FAC0F25E84324643F82020B0
:104858000230083184427FF6D3AED1ED007A66EE9D
:10486800A77AF4EEC77AF1EE10FAD5D86246DAE7FD
:10487800002C3FF4C3AED8ED0C6A86469FED477A0C
:104888004FF0000C331D56F82C200EF1080E82F460
:104898000002A2F5000207EE902A53F82C200CF132
:1048A800020CF8EEE77A82F400026445A2F50002F1
:1048B80067EE877A67EEA67A4EED027A07EE902ABF
:1048C800F8EEE77A67EE877A67EEA67A4EED017A18
:1048D800D9D8F9612246C847314ED8ED0D6A002073
:1048E800F9692B1D9FED337A9FED336ADFF8BCC061
:1048F8001FE0F4EEC67AF1EE10FAC0F2FC833246FD
:10490800D1ED017A45F8202066EEA77AF4EEC77A51
:10491800F1EE10FA18D9F4EEC67AF1EE10FAC0F2F8
:10492800DA83324643F820200230083184427FF689
:1049380067AED1ED007A66EEA77AF4EEC77AF1EEAB
:1049480010FAD6D86246DBE76246EBE762467DE7B7
:10495800324615E7A100D6466208073121F0070163
:10496800ADEB010DEA46ADEB010D6946ADEB0E0D61
:104978000AEB8200EC46ADEB0E0D01EB8202F8610A
:10498800E946CCE900A0C9E9001290E684BC0724F6
:104998000280FFFF000000300082FF7F000000342B
:1049A80082FF7F0068BC0724007E00807E0080FFB5
:1049B8000000003804FF7FBF04FF7F3F00FEFF4672
:1049C800002C00F0C982BBF1020FD8F8242000F0B7
:1049D800FA827969C7F8049002EB810E5FED0C5AF0
:1049E8008A00DCF808100EF104007A611A46DCF837
:1049F8000C303B61331DD7F810903D61FD69C7E964
:104A080002CB8C46834636F92210D8ED0C7A06EE96
:104A1800101A33F9221006EE901A3EF92210B8EE59
:104A2800C66A07EE101AF8EEE66A3BF92210B8EEED
:104A3800C77A26EE256A66EEA56A27EE257A26EE5F
:104A4800276A66EEA76A27EE277A07EE901A5108BA
:104A58000232F8EEE77A0AEB8100944280ED006AB0
:104A680005EB810067EEA57AC0ED006A0CEB8100CA
:104A780009EB810180ED007A98ED0C7A67EE877A70
:104A8800C1ED007ABFD8D7F804903D69D7E902CBC9
:104A980060466208BB6949469847D8F82C307A695D
:104AA800D8ED0D6A1A441FED3D7A1FED3D6A2B1DA6
:104AB800904602F1040A5FED3F5A0022A84ED9E958
:104AC80000EC51E0F4EEC67AF1EE10FAC0F2C782BB
:104AD80047F6FE7045F822000CEB0100D0ED007A95
:104AE80066EEA77AF4EEC77AF1EE10FA4BD9F4EE37
:104AF800C67AF1EE10FAC0F2BA8247F6FE70BBF140
:104B0800020F43F822002BD0D9F808000844D0ED52
:104B1800007A66EEA77AF4EEC77AF1EE10FA36D983
:104B2800F4EEC67AF1EE10FAC0F2CD8247F6FE70C6
:104B380048F82200D9F80C000144D1ED007A66EE5D
:104B4800A77AF4EEC77AF1EE10FA1ED9F4EEC67A17
:104B5800F1EE10FAC0F2AF8247F6FE714AF8221061
:104B6800023294427FF6B1AD51080EEB8100890004
:104B7800D0ED007A66EEA77AF4EEC77AF1EE10FA75
:104B8800A0D83046A6E73046B9E73146E6E73046D2
:104B9800CEE7002C00F0E081BBF1020FD8F82430FA
:104BA80000F0E1817A69DCF8081003EB820EC7F89F
:104BB80004909300DFED6B5A0EF1040000227B6134
:104BC800DCF80C303B61331DD7F810903D61FD696E
:104BD800C7E902CB8C46834656F82210D8ED0C7AEA
:104BE80007EE101A53F82210B8EEC76A07EE101A2B
:104BF8005EF82210F8EEC76A07EE101A26EE256A4C
:104C08005BF82210B8EEC77A66EEA56A26EE276A28
:104C180027EE257A66EEA76A27EE277A07EE901A1E
:104C280051080232F8EEE77A0AEB8100944280EDEF
:104C3800006A05EB810067EEA57AC0ED006A0CEB0F
:104C4800810009EB810180ED007A98ED0C7A67EE1E
:104C5800877AC1ED007ABFD8D7F804903D69D7E9C3
:104C680002CB60466208BB6949469847D8F82C30A1
:104C78007A69D8ED0D6A1A449FED3E7A9FED3E6A37
:104C8800131D9246DFF8E4C00022FB612B1D364E4F
:104C9800D9E9008E4EE0F4EEC67AF1EE10FAC0F2D1
:104CA800FC81304645F822000EEB0100D0ED007A79
:104CB80066EEA77AF4EEC77AF1EE10FA49D9F4EE67
:104CC800C67AF1EE10FAC0F2EF813046BBF1020F5E
:104CD80043F822002AD0D9F808000844D0ED007A19
:104CE80066EEA77AF4EEC77AF1EE10FA35D9F4EE4B
:104CF800C67AF1EE10FAC0F2C98130464AF82200AD
:104D0800D9F80C000144D1ED007A66EEA77AF4EEEA
:104D1800C77AF1EE10FA1ED9F4EEC67AF1EE10FA5F
:104D2800C0F2AD813146F86940F82210023294424F
:104D38007FF6CBAC510808EB81008900D0ED007AF2
:104D480066EEA77AF4EEC77AF1EE10FAA3D86046B9
:104D5800A8E76046BAE76146E5E76046CEE700BFE8
:104D68000280FFFF000000300082FF7F007E00808D
:104D78000000003404FF7FBF04FF7F3F002C00F0D9
:104D8800EB807A690021D8F82430C7F8109003EB3B
:104D9800820ED7F81C909300FD610EF104021FEDFE
:104DA8000C6A7B61331D154656F821204808D8ED5A
:104DB8000C6ABBF1020F82F40002A2F5000207EEB2
:104DC800902A53F8212082F40002B8EEE77AA2F57F
:104DD800000227EE067A07EE902A0AEB8002F8EE28
:104DE800E77A27EE267A67EE867A82ED007A09EB73
:104DF80080024FEA800067EEA67AC2ED007A27D0DB
:104E08005EF8212082F40002A2F5000207EE902A43
:104E180055F8212082F40002B8EEE77AA2F50002E4
:104E280027EE067A07EE902ADCF80820F8EEE77AF3
:104E3800024427EE267A67EE867A82ED007A98EDAC
:104E48000C7ADCF80C2067EE877A0244C2ED007A0F
:104E580002318C42A8D8D7F8109060466208BB6926
:104E68004946FD699847D8F82C307A69D8ED0D6A1B
:104E78001A441FED407A1FED406A131D9246DFF871
:104E8800C4C20022FB612B1DAB4ED9E9008E4EE057
:104E9800F4EEC67AF1EE10FAC0F2C580304645F855
:104EA80022000EEB0100D0ED007A66EEA77AF4EE50
:104EB800C77AF1EE10FA49D9F4EEC67AF1EE10FA93
:104EC800C0F2BF803046BBF1020F43F822002AD05F
:104ED800D9F808000844D0ED007A66EEA77AF4EE17
:104EE800C77AF1EE10FA35D9F4EEC67AF1EE10FA77
:104EF800C0F2AE8030464AF82200D9F80C000144CE
:104F0800D1ED007A66EEA77AF4EEC77AF1EE10FAE0
:104F18001ED9F4EEC67AF1EE10FAC0F28B80314653
:104F2800F86940F82210023294427FF6CEAB51085D
:104F380008EB81008900D0ED007A66EEA77AF4EEDE
:104F4800C77AF1EE10FAA3D86046A8E76046BAE738
:104F58006146E5E76046CEE7224649466046BB69BA
:104F68009847FFF7B2BBC7F810B0002298ED0C6A5B
:104F7800331DDFED726AD7F81CB0786956F8221035
:104F880007EE901A53F82210B8EEE77A07EE901A57
:104F980051080232F8EEE77A27EE267A0AEB810EFC
:104FA80094420BEB810167EEA67A27EE067A67EE4C
:104FB800867A8EED007AC1ED007ADFD88300D7F8C3
:104FC80010B07B614DE61A46C7F810B098ED0C6A30
:104FD800331DDFED5B6AD7F81CB0786936F922100B
:104FE80007EE101A33F9221007EE901AB8EEC77AB6
:104FF80051080232F8EEE77A27EE267A0AEB810E9C
:1050080094420BEB810167EEA67A27EE067A67EEEB
:10501800867A8EED007AC1ED007ADFD88300D7F862
:1050280010B07B6134E5F0EE675AFEEEE45A15EEF7
:10503800900A34E7F0EE675AFEEEE45A15EE901A3D
:105048006EE7F0EE675AFEEEE45A15EE900A3AE77C
:10505800F0EE675AFEEEE45A15EE900A4BE767EE5B
:10506800A57AFDEEE77A17EE900A00B232E567EE10
:10507800A57AFDEEE77A17EE900A00B23FE5F0EE6A
:10508800675AFEEEE05A15EE901A4CE6F0EE675AB3
:10509800FEEEE05A15EE900A30E6F0EE675AFEEEA4
:1050A800E05A15EE900AFDE5F0EE675AFEEEE05A7A
:1050B80015EE900A0AE667EEA57AFDEEE77A17EE96
:1050C800901A09B24AE567EEA57AFDEEE77A17EE7F
:1050D800900A00B22CE5F0EE675AFEEEE45A15EE9F
:1050E800902A1FE467EEA57AFDEEE77A17EE902A7C
:1050F80012B2FFF731BBF0EE675AFEEEE45A15EE36
:10510800902AFFF7FDBBF0EE675AFEEEE05A15EE67
:10511800902AFFF79BBBF0EE675AFEEEE05A15EEB9
:10512800902AFFF780BB67EEA57AFDEEE77A17EEC7
:10513800902A12B2FFF724BB82FF7F0000000030E4
:10514800000000387E0080FF30B5184C154685B049
:10515800046004F1080EEC460FC98EE80F00D4ED88
:10516800047AF5EEC07A8CE80F00F1EE10FA1ADD39
:10517800B7EE006A94ED057A27EE277AC6EE276A1D
:1051880084ED0D7AC4ED0C6A6DB1204640F8185FC5
:1051980001F0A2FE064903690020064A2162A262C4
:1051A800E36005B030BD012005B030BD68BC072400
:1051B800002000300000003000680830704700BF51
:1051C800B1F5807F03680A4628BF4FF48072B1F5B5
:1051D800807F9A6094BF00200120704700681830D3
:1051E80001F0DABE70B504688AB0A369E160CBB19A
:1051F80004F11805284601F06FFE8446EE46E6687D
:10520800BCE80F00AEE80F00BCE80F00AEE80F00E6
:105218009CE803008EE8030069462846049601F0DE
:1052280063FDF8B9E069D8B104F11C05284601F01E
:1052380053FE8446EE46E468BCE80F00AEE80F0073
:10524800BCE80F00AEE80F009CE803008EE80300FE
:1052580069462846049401F047FD003818BF01202C
:105268000AB070BD01200AB070BD00BF30B5046837
:1052780083B00D46E3694BB1A3680020E26A616A16
:105288009B00009004F11C0001F028FEA368074869
:10529800A26A9B00216A009004F1180001F01EFE2A
:1052A8000020C4E9005003B030BD00BF9545000898
:1052B80010B4074B4FF07E513024002203201961AF
:1052C8009C60D8605DF8044B5961C3E906227047B9
:1052D80068BC0724F6EE007A9FED166A20EE207A65
:1052E8000160F7EE006A80ED036A80ED020A27EE9E
:1052F800277AC6EE877AF4EEE67AF1EE10FA11DD37
:10530800F0EE667A4FF07E514FF0000C02760022E4
:10531800C0ED017AC0F814C0016143768276C0ED11
:10532800070A7047F4EEC67AF1EE10FAEAD5F0EE05
:10533800467AE7E7000000000268037E128807EE5D
:10534800902AFBEEC87A1BB1B7EE007A77EE677A3F
:10535800D0ED056A90ED047A77EEE67A437E67EE43
:10536800877A0BB1F1EE677A90ED030A90ED017A36
:1053780077EEC07AA7EE270A80ED030A704700BFD0
:10538800837E80ED020AABB9D0ED077A27EE800A5A
:10539800F6EE007AB7EE007A20EE270AC7EE007A1A
:1053A800F4EEC77AF1EE10FA07DDF0EE477AC0EDB9
:1053B800017A7047DFED067AE8E7F5EEC07AF1EE9C
:1053C80010FAF4D5DFED037AC0ED017A704700BF1B
:1053D8006F12033B0000000030B585B0044600257D
:1053E800ADF80C10ADF80820ADF8043002F05EFE00
:1053F800BDF80C204FF48073206004F1180022835C
:10540800BDF808206383E383A283257100F0F0FBD5
:1054180004F11C0000F0ECFB9FED060A019904F171
:10542800080000F093F84FF6FF736562238405B017
:1054380030BD00BF00000000F8B5044602F036FE9B
:10544800002623682671834205D104F10800BDE8CF
:10545800F84000F095B8012794F82050206004F136
:105468001800BD40277100F09FFC6DB2284394F8E6
:105478002150BD4084F8200004F11C0000F094FC89
:1054880094F820306DB2666203F003032843022BC0
:10549800C0B284F8210009D000F003000228D4D15A
:1054A800002BD2D14FF0FF336362CEE78307CCD114
:1054B8006762CAE730B585B004469FED110A9DF8CA
:1054C8002050ADF80C100399ADF808202A46ADF825
:1054D80004308DED000A10F0F5F89DED000A2A461B
:1054E800029904F11C0010F0EDF89DED000A2A461F
:1054F800019904F1380005B0BDE8304010F0E2B879
:1055080000007A4438B50C46054691ED000A10F0C3
:10551800FDF894ED010A05F11C0010F0F7F894ED80
:10552800020A05F13800BDE8384010F0EFB800BFB6
:1055380010B5044610F0FCF804F11C0010F0F8F85F
:1055480004F13800BDE8104010F0F2B870B5044618
:1055580082B0C1F30726CDB2ADF8041002F0A6FD63
:105568004FF480724FF001232060A01DA571A28026
:10557800E671A36002B0BDE8704000F039BB00BF1F
:1055880038B5044602F092FD002223682271834256
:1055980010D00122A57AE37A954020602271A01DDF
:1055A8006DB243B900F000FC40B22843C0B27F2876
:1055B800A0720AD038BD00F0F7FBB0FA80F04009BD
:1055C8002843C0B27F28A072F4D102F06FFD07EE25
:1055D800900AF8EE677AC4ED037A38BD82B04FF0CE
:1055E800000C0323ADF80410BDF8042080F810C0A7
:1055F8000280438002B070472DE9F04FBE4E00256F
:105608008FB0BE4C037006F140034260074601921A
:105618008846202229463046C4F85831C4F85461D7
:10562800CDE90355CDE90555CDE90755CDE909552E
:10563800CDE90B5512F02CFB2022294604F5997070
:10564800C4F82151C4F82551C4F82951C4F82D5182
:1056580012F01EFB019B84F8385284F820317A68D6
:10566800002A5FD02B464146B64604F59075994608
:105678004FF0010A03EB0310D1F800B0D1F8048011
:105688000133D1F808C02218CE6844F800B0C2F837
:105698000480C2F808C0D660087C2EF8029B1074FB
:1056A8000A7C05F8012F002A69D07A68113184F83C
:1056B80038A29A42DED84FF4802291489DF80430EF
:1056C80008214FF000084FF00009C4F87431002396
:1056D800C4E957020122C4F8643184F87031C4E97E
:1056E8005A2194F83812C4E9608981B3C4F8882132
:1056F800002284F8713184F878313B78C4E9632258
:10570800A3B3012200200121013B84F89421C4E9BC
:105718006801082B2CD8DFE803F0ABB0B5BABFC4DA
:10572800C9CFD6009DF804300121C4F86421C4F81B
:1057380074314FF4802384F87021714AC4E95723E7
:1057480008230022C4E95A130023C4E96023012373
:10575800002284F87131002384F878310323C4F8D7
:1057680088313B78C4E96322002BCAD184F894318C
:10577800644803F0C9FF034638B1FFBEFEE77A6804
:1057880011319A423FF676AF95E703A95D48039336
:1057980004F018F90546002868D1022240F2FF7388
:1057A800CDE9082300230422CDE90A2394F8203107
:1057B800002B00F0D5804FF0060921E0022B00F005
:1057C8008980012B40F0C4809AF80130012B00F049
:1057D800C180002B4C4B18BF002306A94948CDE9CE
:1057E800063903F0BDFB002840F0BF80013594F86E
:1057F8002031EDB2AB4240F2B380444B53F82590D0
:105808002FB207EB071704EB070A504600F0F0F930
:1058180005EB051323441B7C042B7DDC022B00F3D2
:10582800918000F08D806319002283F81021E35DD8
:10583800002BC3D19AF80130062B00F08580072B86
:1058480000F08A80022B00F09680032B00F09580F0
:10585800002B00F09680012B00F09180042B00F0C3
:105868009280052B2A4B18BF0023B6E7FFBEFEE740
:1058780003224023C4E966237AE707226023C4E9A8
:10588800662375E70F228023C4E9662370E71F2289
:10589800A023C4E966236BE73F22C023C4E966233B
:1058A80066E77F22E023C4E9662361E7FF224FF41D
:1058B8008073C4E966235BE740F2FF124FF49073EC
:1058C800C4E9662354E740F2FF324FF4A073C4E9F9
:1058D80066234DE79AF80130042B37D0052B3DD0CD
:1058E800002B40D0012B42D0022B42D0032B094B76
:1058F80018BF002371E700BF00400030A0BC072498
:1059080000200240FCBD07240002B0255C8201088B
:105918000000B84F0020903603233E1D04EB050815
:105928004FF0000B264488F8103130460BF1010B7C
:1059380000F05EF998F8103104365B45F5DC76E73F
:105948000123EAE70223E8E7104B46E7104B44E758
:10595800002342E70F4B40E70F4B3EE70F4B3CE776
:105968000FB0BDE8F08F0E4B37E7FFBEFEE70D4BDB
:1059780033E70D4B31E70D4B2FE70D4B2DE70D4B63
:105988002BE70D4B29E70D4B27E700BF0800900CCC
:105998001000C0102000F0148000501D000180216C
:1059A8000004002A0008302E001060320040C03A7F
:1059B8000080F03E00005247000021430000844B65
:1059C80038B5094C40F2FF724FF0011104F5AE757D
:1059D800284603F0A5FF94F82021D4F8541128464E
:1059E800BDE8384003F010BDA0BC0724034B0F29C5
:1059F800D3F8540198BF00EB41007047A0BC0724BE
:105A0800214B02689A4200D07047204A0023204860
:105A1800D2F8D81030B51F4C41F0200183B0C4F83B
:105A2800C001092004F5E075C4E971034FF48060F2
:105A3800C2F8D810D2F8D8204FF40061C4E9733006
:105A480094F8380202F02002C4F8D4114FF400513F
:105A5800984201922846C4F8D811C4E97833019BCA
:105A680014BF00234FF48073C4F8DC3104F0D0F97C
:105A780008B1FFBEFEE704F5AE73C4F8A851C4F838
:105A8800F83103B030BD00BF002002400044025886
:105A980040000240A0BC0724014804F031BD00BF0B
:105AA80060BE072402682DE9F84F4B4B9A4201D09B
:105AB800BDE8F88F494D95F83832002BF8D095F8A5
:105AC8002031002B77D0002405F10C0905F59976D3
