:020000040800F2
:1000000000000220810900087D090008E97A000843
:100010007D0900087D0900087D0900080000000036
:100020000000000000000000000000007D09000842
:100030007D090008000000007D0900086D7A0008B5
:100040007D0900087D0900087D0900087D09000878
:100050007D0900087D0900087D0900087D09000868
:100060007D0900087D0900087D090008A5680008D1
:10007000B168000871570008BD680008C968000829
:100080006D770008455D00087D0900087D090008BE
:100090007D0900087D0900087D0900087D09000828
:1000A0007D0900087D0900087D0900087D09000818
:1000B0008D2C0108992C0108A52C0108795D0008F8
:1000C0007D090008855D00087D090008FD24010800
:1000D00009250108A1750008D175000805760008FA
:1000E0007D0900087D090008000000007D09000866
:1000F0007D0900087D0900087D0900087D090008C8
:100100007D0900087D090008B12C010815250108AA
:10011000397600086D7600087D0900087D09000821
:100120007D0900087D090008392501086D250108B1
:10013000A17700087D0900087D0900087D090008F5
:1001400000000000000000000000000000000000AF
:100150007D0900087D0900087D090008A1760008D6
:10016000915D00087D0900087D7A0008A17A0008E9
:100170007D090008C57A00087D0900087D0900088E
:100180007D0900087D090008D5760008057700087C
:10019000212501082D2501087D0900087D09000899
:1001A0007D0900087D0900087D0900087D09000817
:1001B000396500087D0900087D0900087D090008EF
:1001C0007D0900087D0900087D0900087D090008F7
:1001D0007D0900087D0900087D0900087D090008E7
:1001E0007D0900087D0900087D0900087D090008D7
:1001F0007D0900087D0900087D0900087D090008C7
:100200007D0900087D0900087D0900087D090008B6
:100210007D0900087D0900087D0900087D090008A6
:100220007D0900087D0900087D0900080000000024
:100230007D0900087D090008000000007D09000814
:100240007D0900087D0900087D0900087D09000876
:100250007D0900087D0900087D0900087D09000866
:100260007D0900087D0900087D0900087D09000856
:100270007D0900087D0900083977000800000000AA
:100280007D0900087D0900087D09000800000000C4
:08029000000000007D090008D8
:1002980010B5054C237833B9044B13B10448AFF3B8
:1002A80000800123237010BD80040024000000009A
:1002B800387A010808B5034B1BB103490348AFF36B
:1002C800008008BD0000000084040024387A01087A
:1002D80081F0004102E000BF83F0004330B54FEAEF
:1002E80041044FEA430594EA050F08BF90EA020F5C
:1002F8001FBF54EA000C55EA020C7FEA645C7FEAEF
:10030800655C00F0E2804FEA5454D4EB5555B8BF11
:100318006D420CDD2C4480EA020281EA030382EA82
:10032800000083EA010180EA020281EA0303362D14
:1003380088BF30BD11F0004F4FEA01314FF4801CE7
:100348004CEA113102D0404261EB410113F0004FF9
:100358004FEA03334CEA133302D0524263EB4303B0
:1003680094EA050F00F0A780A4F10104D5F1200E4E
:100378000DDB02FA0EFC22FA05F2801841F10001A9
:1003880003FA0EF2801843FA05F359410EE0A5F17D
:1003980020050EF1200E012A03FA0EFC28BF4CF0AE
:1003A800020C43FA05F3C01851EBE37101F0004564
:1003B80007D54FF0000EDCF1000C7EEB00006EEB71
:1003C8000101B1F5801F1BD3B1F5001F0CD34908FB
:1003D8005FEA30004FEA3C0C04F101044FEA445252
:1003E80012F5800F80F09A80BCF1004F08BF5FEAD9
:1003F800500C50F1000041EB045141EA050130BDB9
:100408005FEA4C0C404141EB0101013C28BFB1F5CA
:10041800801FE9D291F0000F04BF01460020B1FA15
:1004280081F308BF2033A3F10B03B3F120020CDAE8
:100438000C3208DD02F1140CC2F10C0201FA0CF0C6
:1004480021FA02F10CE002F11402D8BFC2F1200C2B
:1004580001FA02F120FA0CFCDCBF41EA0C019040E1
:10046800E41AA2BF01EB0451294330BD6FEA04042A
:100478001F3C1CDA0C340EDC04F11404C4F1200215
:1004880020FA04F001FA02F340EA030021FA04F327
:1004980045EA030130BDC4F10C04C4F1200220FA7E
:1004A80002F001FA04F340EA0300294630BD21FABC
:1004B80004F0294630BD94F0000F83F4801306BF82
:1004C80081F480110134013D4EE77FEA645C18BF76
:1004D8007FEA655C29D094EA050F08BF90EA020F0D
:1004E80005D054EA000C04BF1946104630BD91EA05
:1004F800030F1EBF0021002030BD5FEA545C05D108
:100508004000494128BF41F0004130BD14F5800446
:100518003CBF01F5801130BD01F0004545F0FE41BA
:1005280041F470014FF0000030BD7FEA645C1ABFEF
:10053800194610467FEA655C1CBF0B46024650EA26
:10054800013406BF52EA033591EA030F41F4002152
:1005580030BD00BF90F0000F04BF0021704730B5D8
:100568004FF4806404F132044FF000054FF00001AD
:1005780050E700BF90F0000F04BF0021704730B56E
:100588004FF4806404F1320410F0004548BF404243
:100598004FF000013EE700BF42004FEAE2014FEA98
:1005A80031014FEA02701FBF12F07F4393F07F4F73
:1005B80081F06051704732F07F4208BF704793F076
:1005C8007F4F04BF41F40021704730B54FF4607489
:1005D80001F0004521F000411CE700BF50EA01028C
:1005E80008BF704730B54FF000050AE050EA010235
:1005F80008BF704730B511F0004502D5404261EBA5
:1006080041014FF4806404F132045FEA915C3FF4E5
:10061800D8AE4FF003025FEADC0C18BF03325FEA82
:10062800DC0C18BF033202EBDC02C2F1200300FA33
:1006380003FC20FA02F001FA03FE40EA0E0021FA58
:1006480002F11444BDE600BF53B94AB9002908BFF6
:1006580000281CBF4FF0FF314FF0FF3000F088B981
:10066800ADF1080C6DE904CE00F01AF8DDF804E0ED
:10067800DDE9022304B07047430803F05533C01A7C
:10068800830803F0333300F03330184400EB1010C4
:1006980000F00F3000EB002000EB0040000E704728
:1006A8002DE9F047089D04468E46002B4DD18A421D
:1006B800944669D9B2FA82F252B101FA02F3C2F150
:1006C800200120FA01F10CFA02FC41EA030E9440E1
:1006D8004FEA1C48210CBEFBF8F61FFA8CF708FB02
:1006E80016E341EA034306FB07F199420AD91CEBDA
:1006F800030306F1FF3080F01F81994240F21C810C
:10070800023E63445B1AA4B2B3FBF8F008FB103353
:1007180044EA034400FB07F7A7420AD91CEB040488
:1007280000F1FF3380F00A81A74240F20781644458
:10073800023840EA0640E41B00261DB1D4400023DD
:10074800C5E900433146BDE8F0878B4209D9002D41
:1007580000F0EF800026C5E9000130463146BDE8CB
:10076800F087B3FA83F6002E4AD18B4202D3824235
:1007780000F2F980841A61EB030301209E46002DE4
:10078800E0D0C5E9004EDDE702B9FFDEB2FA82F239
:10079800002A40F09280A1EB0C014FEA1C471FFA97
:1007A8008CFE0126200CB1FBF7F307FB131140EA7E
:1007B80001410EFB03F0884208D91CEB010103F14B
:1007C800FF3802D2884200F2CB804346091AA4B20D
:1007D800B1FBF7F007FB101144EA01440EFB00FEE1
:1007E800A64508D91CEB040400F1FF3102D2A64546
:1007F80000F2BB800846A4EB0E0440EA03409CE7E5
:10080800C6F12007B34022FA07FC4CEA030C20FA91
:1008180007F401FA06F31C43F9404FEA1C4900FAB1
:1008280006F3B1FBF9F8200C1FFA8CFE09FB18112E
:1008380040EA014108FB0EF0884202FA06F20BD9A1
:100848001CEB010108F1FF3A80F08880884240F2F1
:100858008580A8F102086144091AA4B2B1FBF9F035
:1008680009FB101144EA014100FB0EFE8E4508D930
:100878001CEB010100F1FF346CD28E456AD90238B5
:10088800614440EA0840A0FB0294A1EB0E01A1429A
:10089800C846A64656D353D05DB1B3EB080261EB08
:1008A8000E0101FA07F722FA06F3F1401F43C5E9E2
:1008B800007100263146BDE8F087C2F12003D84018
:1008C8000CFA02FC21FA03F3914001434FEA1C475A
:1008D8001FFA8CFEB3FBF7F007FB10360B0C43EA4C
:1008E800064300FB0EF69E4204FA02F408D91CEBFC
:1008F800030300F1FF382FD29E422DD902386344FA
:100908009B1B89B2B3FBF7F607FB163341EA034199
:1009180006FB0EF38B4208D91CEB010106F1FF38E8
:1009280016D28B4214D9023E6144C91A46EA0046DF
:1009380038E72E46284605E70646E3E61846F8E671
:100948004B45A9D2B9EB020864EB0C0E0138A3E7BA
:100958004646EAE7204694E74046D1E7D0467BE79B
:10096800023B614432E7304609E76444023842E713
:10097800704700BFFEE700BF0B480C4A904203D007
:10098800121A0B4914F022FB0A480B4A904203D072
:10099800121A002114F028FB07F0CCFA14F0F2FA2E
:1009A80000F078F8FEE700BF00000024800400246F
:1009B800687A010880040024E0BF0724704700BF5C
:1009C800F7EE000A9FED010A05F0EABD00000000FD
:1009D8002DE9F04716460746294888462DED028B33
:1009E80002F032FF264802F03BFF002E40D00024E0
:1009F800DFF88C90234D3B68002199ED240A4FEADB
:100A0800840A03EB8403204830EE000A013493ED96
:100A1800008A00F0EBFC1C48B0EE480A00F0ACFC81
:100A280099ED1C7ADFED197AB0EE408A184827EE66
:100A3800270A00F06BF995ED007AB7EEC80A14485A
:100A4800B7EEC77A9FED0C6BA7EE060BB7EEC00B9F
:100A580000F0D8F838EE008AA642D8E9002385EDE0
:100A6800000A5244534482ED008A83ED008AC2D1C1
:100A7800BDEC028BBDE8F087666666666666E63F93
:100A88009C040024E4890724E889072400803B4665
:100A9800E089072408B500211E4802F09FFF402185
:100AA8001C4802F0A1FE03211A4802F0B3FE05F02B
:100AB80059FD184802F0C4FE174B184A184919483E
:100AC8009FED190A00F068FE9FED180A00F036FD48
:100AD800B0EE408A9FED160A00F030FD114BF0EEA3
:100AE800400A4FF48062B0EE480A0121114800F034
:100AF8003FFC42F6E06110480A4A9FED100A00F0F8
:100B080053F80F49034802F06DFE024802F0B8FEA0
:100B1800FBE700BF9C040024C9090008801A0600EE
:100B280024970024D496002400803B4700002842E4
:100B38000000A842E8890724E089072400803B4692
:100B4800D909000813480022134900F51043B1F8E9
:100B580004C000B5B1F800E00260104942610262C9
:100B6800C0F87C21C3F82422A3F82AC24FF0070C4E
:100B7800C3F82C224FF60F02C3F83012A3F8342220
:100B880083F836C2A3F828E2054A06495DF804EB63
:100B980013F0DAB99C0400240050010880707FF03B
:100BA80000000024C509000870B50E4682B091699E
:100BB80005462C208DED010A009100F00DFD0099ED
:100BC8000446286001608661B00000F005FD2D68CC
:100BD800B7EE000A0023D5ED067A0022DDED010A02
:100BE800B8EE671AA06084ED010A2361E3606362CE
:100BF80084ED080A626100F075FC85ED070A02B011
:100C080070BD00BF10B504686169D4ED017A481C55
:100C1800A268A36927EE800A02EB8101984281ED60
:100C2800000A606101D100216161D4ED097A581E82
:100C3800BDEEE77A17EE101AB8EEC72A084401F19C
:100C4800020E01F1010C02EB810137EEC22AD1ED4F
:100C5800000ABEFBF3F103FB11EEBCFBF3F103FB4F
:100C680011CC02EB8E0EB0FBF3F103FB110302EB88
:100C78008C0CDEED001A02EB83029CED001A92ED5B
:100C8800000A00F03BFCD4ED057A94ED097AF8EE01
:100C9800677AD4ED066A84ED030AF8EE666A77EEA1
:100CA800C77AF5EEC07AF1EE10FA06D577EEA67A95
:100CB800F5EEC07AF1EE10FAF8D4D4ED075AB7EE93
:100CC800005A77EEE57A87EEA56A36EE056A77EE82
:100CD800067A84ED086AF4EEE67AC4ED097AF1EE54
:100CE80010FA08DB77EEE67AF4EEE67AF1EE10FA1F
:100CF800F8DAC4ED097AB5EE400AF1EE10FA08BF49
:100D08009FED010A10BD00BF0000000010B5046887
:100D1800F0EE400AB7EE000AD4ED067AB8EE671A8C
:100D280000F0E0FB84ED070A10BD00BF2DE9F04F8D
:100D3800D0F800A014469AB28846BAF81060174650
:100D48002DED048B85B0AAF8122003900292002E94
:100D580000F02681CFB1C8EB86060AF10800B94633
:100D680045460435DAF82C3015ED010AA5F1040BD7
:100D78000190B3449B4400F061FBB9F1010901986B
:100D88008BED000AEDD108EB87080AF104004FF05B
:100D9800FF31019001F010F94146019801F010F976
:100DA800002840F0E180BAF81200F7EE003ADAEDD8
:100DB800052AF4EEE32AF1EE10FA40F30481DFEDA0
:100DC800D67A22EEA20ADAED070A72EEE33A72EE5A
:100DD800E77ADAED066ABAF81050DAF80C1087EEFE
:100DE800808A9AED084A6B18DAED0A5ADAED091A80
:100DF80004EE903AF8EEE44A20EE882A32EE027ABF
:100E080070EE877AF4EE676AF1EE10FA17DDF5EE08
:100E1800C05AF1EE10FA12D536EEC77AF0EE607AC3
:100E2800B0EE674A77EEA77AF4EEC77AF1EE10FAD9
:100E3800F6D4F7EE005A76EEC46A70EEE51A80EE44
:100E4800211A002800F06681013904EB8000DAF8E5
:100E58002C60F7EE002AF1EE608AB4EEE62AF1EE95
:100E680010FA09DDF5EEC05AF1EE10FA68D4F5EE85
:100E7800406AF1EE10FA63D434EEE67AF5EEC05A21
:100E8800FDEEC77AF1EE10FA17EE903AF8EEE77A2F
:100E980003EA010377EE677A06EB830393ED006AB2
:100EA80093ED015A35EE465AA7EE856A3BDD37EEDB
:100EB800447AB4EC015A32EEE59A844274EEA24ABE
:100EC800FDEEC77A76EEE36A17EE903AF8EEE77A27
:100ED80003EA010337EE677A06EB8303D3ED007A62
:100EE80093ED013A33EE673AE7EE037A65EEA77AB7
:100EF80075EEC15AE6EE097A75EE277A44ED017A65
:100F0800ABD1CAED066A8AED084ACAED091ACAEDDC
:100F18000A5A029B2B441940AAF8101005B0BDECE0
:100F2800048BBDE8F08FF4EC017A74EEA24A76EEF9
:100F3800E36A37EE866A844204ED016A8DD1E0E700
:100F4800C6EE881AB0EE401AF7EE005A76EEA06A9E
:100F5800B0EE684AF4EEE21AF1EE10FA54BF80EEF1
:100F6800211AF7EE001A87E7BAF81200039B07EE7A
:100F7800900A1B68B8EE677AD3ED067AB4EEE77A82
:100F8800F1EE10FA7FF511AF77EEC77A4FF07E5188
:100F980083ED067A83ED097AC3ED087A996204E74E
:100FA800B8EC010A0AF10800571E00F047FADAF80F
:100FB8002C300126DAF80C1083ED000A03EB8103CC
:100FC80083ED000AC6E6F6EE007ADAF80C10BAF8F5
:100FD800105073EEE21ADAED090AF4EEE72A6B18FC
:100FE8009AED072A013904EE103ADAED066AF1EEB5
:100FF80010FADAED084AB8EEC44ADAED0A5A72FE77
:10100800A12A82EEA01A002852D004EB8000DAF858
:101018002C60B4EEE62AF1EE10FA04D5F5EEC05ACB
:10102800F1EE10FA62D934EE667AF5EEC05AFDEEAA
:10103800C77AF1EE10FA17EE903AF8EEE77A03EA7B
:10104800010377EE677A06EB830393ED006A93ED6D
:10105800015A35EE465AA7EE856A32DD37EE647AD4
:10106800B4EC015A33EEE50A844234EE234AFDEE2D
:10107800C77A76EEA16A17EE903AF8EEE77A03EAB5
:10108800010337EE677A06EB8303D3ED007A93ED1D
:10109800013A33EE673AE7EE037A65EEA77A75EE22
:1010A800C15AE6EE007A75EE277A44ED017AB0D19E
:1010B800CAED084ACAED066ACAED0A5ACAED090A13
:1010C80027E7F4EC017A34EE234A76EEA16A37EE8C
:1010D800866A844204ED016A9BD1CAED084ACAEDCA
:1010E800066ACAED0A5ACAED090A12E7F0EE427A10
:1010F800F0EE674A77EEA77AF4EEE67AF1EE10FAA8
:10110800F6D472EE630A76EEE46AF7EE005A82EEDF
:10111800A01A88E70139F4E6A4707D3F10B5046889
:101128002DED028B201D84B0F0EE408A03910292CF
:10113800019002F07BF8B0EE408A019802F07AF84C
:10114800B5EEC08ADDE90221F1EE10FA35DDD4ED05
:10115800077AF4EEC07AF1EE10FA2ED5D4ED087ABB
:10116800F2EE006AA06887EE887A9FED196AB0F8F7
:1011780012C0C368A3EB0C0307EE903AF8EEE77AC7
:1011880067EE867AB4EE677AF1EE10FA37FE877A60
:10119800B4EEE67AF1EE10FAF5EEC08AC8BF80ED3B
:1011A800077AF1EE10FA08D9DFED0A7AF4EEE78A49
:1011B800F1EE10FAD8BFC0ED058A636904F10800A2
:1011C80004B0BDEC028BBDE81040FFF7AFBD00BF17
:1011D800CDCC4C3F00007A442DE9F0471F681446F7
:1011E80084B080468946242039461E4600F0F4F92A
:1011F80007EE904AD9F8002005467B68B8EEE70B61
:10120800C8F800004FF07E5A42601A680023076051
:1012180030EE000B0262C361446112F07DFFB0EE54
:10122800406BB0EE000B9FED1E7B86EE071BBAFEEF
:10123800411B13F039F9FDEEC07B3168302017EE01
:10124800907A039100F03CFA03990446A860016083
:10125800C760781CC4F814A0800000F031FA124B63
:10126800E0624021A3624FF08543201DE361A36142
:101278004FF480032361052300961A4600F042FECE
:10128800B3EE040A314604F1080000F0B7F8AB6881
:10129800C3F814A004B0BDE8F08700BFAFF3008026
:1012A800EF39FAFE422EE63F000080BF2DE9F043F9
:1012B8001E460F46196881463420904600252DEDBC
:1012C800028B83B0F0EE408AB0EE608A019100F0A4
:1012D800F7F933680446C9F8000001990360076309
:1012E800271DC0F820804FF4005000F075F96061A8
:1012F800206A0199800000F0E3F9A061206A019951
:10130800800000F0DDF9E061206B019980006562E2
:1013180000F0D6F92061206B0199800000F0D0F927
:101328003346E062F0EE480AB0EE680A4FF4006215
:1013380061693846C4ED028A84ED038A01F02EFD06
:10134800236BAB420BDD20693346226A394600EB3A
:1013580085000135FFF740FF226BAA42F3DC034BFF
:10136800A36203B0BDEC028BBDE8F0832511000831
:101378001833FFF79BBF00BF38B504682DED028B0B
:10138800201DB0EE408A01F067FD636A256A4FF0C0
:10139800000CD4E9061201EB830080ED008A02EB11
:1013A8008300013390ED008AAB42C0F800C063624D
:1013B80016DB236B002B11DD002501E0D4E90612B2
:1013C800E36A206903EB850300EB8500013593EDA3
:1013D800000AA36A9847236BAB42EFDC00236362E1
:1013E800B0EE480ABDEC028B38BD00BF0368DB6A6B
:1013F80003EB810181ED000A704700BF38B50C6826
:101408000546182021462DED028BB0EE408A00F0EB
:1014180057F96268F7EE007A002392ED037A2860A4
:10142800E7EE487A80ED048A046080ED057A8360EF
:101438004360BDEC028BC0ED037A38BD0368D3ED81
:10144800016A83ED010A30EE660AD3ED027A93ED64
:10145800037AA7EE270A83ED020A70476FF040432C
:10146800B0EE005AF4EE007A0B4400EB830090EDE6
:10147800007A90ED016AF0EE476AD0ED025A35EE37
:10148800C77AD6EE056A67EE277A67EE877A76EE30
:10149800E56A87EEA60A30EE060A70476FF0404309
:1014A800B0EE006AF6EE006A0B4400EB830090EDA4
:1014B800000AD0ED015AF0EE407A90ED027A37EE4C
:1014C800400AD5EE867A20EE260A77EEC77A80EEB5
:1014D800270A704710EE103A23F0004300EE103A46
:1014E800704700BFF4EEC00AF1EE10FA05D4F4EE2E
:1014F800C10AF1EE10FA31FE200A704770EE607AE8
:1015080030EEC16AF6EE005A71EEE76A31EE407AC3
:1015180076EEC11AF0EE466AE7EE257AE1EEA56AA4
:1015280077EEE67AE6EE827A67EE827AE7EE257A59
:10153800E7EE820AB0EE600A704700BF9FED0F7AAF
:10154800DFED0F7A06E0B4EEE70AF1EE10FA09DDF6
:10155800B0EE670AB4EEC70AF1EE10FAF3D89FEDC1
:10156800090A7047DFED087A08B520EE270A13F05C
:1015780065FADFED067A20EE270A08BD0080BBC4B5
:101588000060BB440000000020986C3D13D002416D
:10159800F0EE400ADFED037AB2EE040A60EEA70A25
:1015A80013F022BBCDCC4C3D30B41025046A002387
:1015B800AA42656301EB050438BF2A46C0E909134E
:1015C800C262103A0C6000F11C04CA60C1E9013320
:1015D8008461016330BC70472DE9F8434D684E695A
:1015E800AB6C0133AB64002E56D0C21D344622F0DA
:1015F800070202E06468002C3DD0E3689342F9D307
:101608009F1A686BE260B84242D2D1F808C03B1A10
:101618000244A4EB0C073A440CEB0207D4E9018E10
:1016280007EB00094CF80290FB60E368C7E9018EFC
:101638006268A64208BF4F610AB1A6689660A668AC
:1016480006B17260CA686D69024400201A44854276
:10165800C4E90100CA600ADD256873B36A1E13462F
:1016680002F8010FE16802335B1B9942F7D824683E
:101678002046BDE8F883D1E903239B1A8342284614
:101688008CBF0121214600F0B1F82046BDE8F8835F
:101698006768E3603A46CCE7D1E903239B1A8342A3
:1016A80005D901212846344600F0A0F8E0E7314684
:1016B8002846344600F09AF8DAE72C46D8E700BF07
:1016C8002DE9F0414E684D69B36C0133B364002DC8
:1016D8004ED0C21D2C4622F0070202E06468002C9E
:1016E80035D0E3689342F9D3706B9E1AE260B0423A
:1016F8003AD28F68331A0244E61B3244BE18D4E942
:1017080001EC06EB000847F80280F360E368C6E9DD
:1017180001EC6268A54208BF4E610AB1A5689560F0
:10172800A56805B16A60CD68002228441844C4E958
:101738000122C8603BB1134611462268D1540133D7
:10174800E2689A42F9D824682046BDE8F081D1E9D8
:1017580003239B1A834230468CBF0121214600F0A7
:1017680045F82046BDE8F0816668E3603246D1E777
:10177800D1E903239B1A834205D9012130462C461F
:1017880000F034F8E0E7294630462C4600F02EF801
:10179800DAE700BF704700BF38B5006204461D464F
:1017A8002DED028BB0EE408AFFF7FEFEF7EE006AE1
:1017B800DFED0C7A00220C4B84ED008A86EE887AE5
:1017C80025616261BDEC028BC4E90E32C4E91022C6
:1017D800C4E9122267EE277A84ED017AC4ED037A10
:1017E80038BD00BFDB0FC9409D17000810B400EBDF
:1017F80081020124836BD4635DF8044B184700BF52
:10180800C38A9FED207A07EE903AF8EEE77A70B532
:1018180067EE877A04462DED048BFDEEE77AD0ED6E
:10182800098A17EE906A331F00EE103AB8EEC00A24
:1018380013F076F925690023052E88EE808A2B603F
:101848006B60AB60EB602B6118DDB1EE488A143534
:10185800B1EE009A0524F7EE008A07EE904A0134AB
:10186800B8EEE70A30EE490A13F05AF9F0EE687A52
:10187800A642E8EE007AE5EC017AEED1BDEC048BE5
:1018880070BD00BF9A99593F0368D98A2DE9F04F76
:101898004FEA410B07469C8A01F1FF3807EE90BAE0
:1018A800B8EEE70A2DED028BB5EE400A85B0F1EEF1
:1018B80010FA00F11C82F1EEC07A5D460E468946A8
:1018C8009A46F7EE006AD3E9012086EEA77A79B145
:1018D800034600EB810C02EB840E0134DEED007A46
:1018E80008EA040467EE877AE3EC017A9C45F2D1B2
:1018F800594507DAABEB010200EB810000219200A9
:1019080013F072FB2846DAE90284414608EB89099C
:1019180001F018FFD8ED007A012E67EEA77AC8ED1E
:10192800007AD9ED007A67EEA77AC9ED007A1EDD54
:1019380008F1040308EB850208EB8600002172ED2C
:10194800017A93ED007A67EEA77AE7EE077AE3EC7F
:10195800017A98421160F2D176102246404600235F
:10196800013350F8044BB34242F8044BF8DB2846E5
:10197800414601F011FF3E68B7EE007A9FEDCC8A30
:10198800B6F816A0B28A07EE90AAD6ED0A8A02EB3C
:101998000A030AF1FF34F8EEE77AD6E9010B87EE7D
:1019A800270A67EE887AFDEEE77A17EE909AB5EE89
:1019B800400AF1EE10FA00F18181B1EEC07AD84602
:1019C80017EE905A9BED006A4FF07E51CBF800104D
:1019D800C8EE877A67EEA77AF4EE467AF1EE10FA47
:1019E80037FE866AB7EEC66AB9F1010F36EE066BA6
:1019F8002BDD02F1FF3CB6EE005A5A1EA3EB090E8E
:101A08009C440BF1040102EA0403D1ED005A00EBF7
:101A1800830393ED007AACEB0203013A234027EEEF
:101A2800077A964500EB8303D3ED007AA7EEA77AF1
:101A3800B7EEC77A36EE476BF7EEC67B67EE857A68
:101A480085EEA77AA1EC017ADDD1CA4507DDAAEBBC
:101A580009020BEB89000021920013F0C5FA012D51
:101A6800336940F31D8108F10402012402E00134C6
:101A7800AC4206D0F2EC017AF5EEC07AF1EE10FA3B
:101A8800F5D5013DAC425CDA03EB840A9FED898A07
:101A980008EB84094FF0000B04E001340AF1040A52
:101AA800AC4224D0F9EC017A19ED027AF4EEC77A47
:101AB800F1EE10FAF1DB99ED007AF4EEC77AF1EE67
:101AC80010FAEADD21464046FFF7C8FCDAED007A55
:101AD80020EE270AB4EEC80AF1EE10FADDDDA346BF
:101AE8000134B0EE408A0AF1040AAC42DAD13D680A
:101AF8001FFA8BFBA6F81AB06C8B24B905B0BDECA5
:101B0800028BBDE8F08F2146A868FFF7C7FC07EEF7
:101B1800904AB2EE007AF8EE677A37EE800AB4EEB1
:101B2800C70AF1EE10FA10D4698BA86885ED070A88
:101B3800FFF794FC85ED080A05B0BDEC028BBDE803
:101B4800F08F35464FF0000BD4E7F1EE007AB4EE93
:101B5800E70AF1EE10FAE7D43F68B6EE007ADFED57
:101B6800565AB7EE046AFB8AD7F80C8007EE903A0B
:101B78005B08F8EEE77A5A1E77EEA77AC7EE806A16
:101B8800F0EE477AE6EEA57AA6EE867AFDEEE77ADB
:101B980017EE903AFDEEC77A012B17EE904AB8BFC0
:101BA80001239442A8BF1446A3427BDADFED416AC1
:101BB80008EB83020026F2EC017A12ED027AF4EEC9
:101BC800C77AF1EE10FA0EDB92ED007AF4EEC77ADE
:101BD800F1EE10FA07DDF4EEE67AF1EE10FA02DD26
:101BE800F0EE676A1E4601339C42E4D1741E06F18A
:101BF800010B08EB840A4FEA84099AED000AB5EE56
:101C0800400AF1EE10FA00F18280F1EEC07A631C0E
:101C1800CAED007A5B452FDC09F1040AC2449AED4B
:101C2800000AB5EE400AF1EE10FA7FD4F1EEC07A60
:101C3800A31CCAED007A9B451EDB09F1080AC244C1
:101C48009AED000AB5EE400AF1EE10FA69D4F1EE09
:101C5800C07A0334CAED007AA3450DDB09F10C0400
:101C6800444494ED000AB5EE400AF1EE10FA53D45C
:101C7800F1EEC07AC4ED007A31464046FFF70EFC1B
:101C8800FB8A07EE906A07EE103AF8EEE77AB8EEAC
:101C9800C77A77EE807A37EE077A87EE270A43E726
:101CA8000124EEE600264FF0010B4FF0FF34A0E7C9
:101CB8009A99593F00000000CDCC4C3FCDE9023045
:101CC800019213F025F93E68B0EE407A019AF38A42
:101CD800D6F8088007EE903AF8EEE77ADDE90230A8
:101CE80027EE888AFDEEC87A17EE905A6AE6CDE9A3
:101CF800011313F00DF9D7F800A0F0EE407ABAF806
:101D08001690DDE901134E464FEA4905D9E513F06F
:101D1800FFF8F0EE407A7AE713F0FAF8F0EE407A3E
:101D2800A8E713F0F5F8F0EE407A92E713F0F0F830
:101D3800F0EE407A7CE700BF2DE9F84F2DED048BDB
:101D48000E9C0D4617469A462668044641F2AC108A
:101D58003146FFF7B5FC002D20608146066069DD3D
:101D680007EE905A9FED380A6C1105F13F0BB8EE5B
:101D7800E78A80EE080A12F0EFF8B0EE409A002FDA
:101D880009F580584FF00001F7EE008AD8BF6F10B0
:101D980041F218108022C8F81051A7424844C8F8E8
:101DA800A4A1D8BF671CC8F80411C8F80871C8E90D
:101DB800675713F019F978EEC97A012D87EE887AFA
:101DC80089ED017A19D09FED219A09F108060124BD
:101DD80007EE904A0134B8EEE70A20EE090A80EED1
:101DE800080A12F0B9F8A54238EEC00AC0EE087A1F
:101DF800E6EC017AECD15D4509DC0BF1010200212A
:101E0800521B0135920009EB850013F0EDF8002212
:101E180097FBFAF3C8F8982140220AFB1373C8F815
:101E2800A8210BB15744FF1AC8F80C71BDEC048BFC
:101E3800BDE8F88FB7EE009A40F23F4B9FED048A59
:101E480020244FF480659AE700000000DB0FC940AA
:101E58000000804403682DE9F04F03F5805A41F2F1
:101E68001815DAF804B11D44DAF81061DAF8A4415B
:101E7800B34501EB840742DADAF80C810BF1010E65
:101E8800AC46594603EB8E0E4FEA8809002C724681
:101E9800BCEC017A0CDD3846002370ED017A013381
:101EA800F2EC016A67EEA77A9C42A6EEA77AF4D113
:101EB80041446346CE440CED017AB142E6DBABEB1C
:101EC80004020021002A1960CAF8042101DBBDE8D8
:101ED800F08FDAF80C11DAF81831B142CAF8143177
:101EE80006DA0B460B446A68B34245F8042BF9DB63
:101EF8000023091B2B60CAF80411BDE8F08F2B469C
:101F0800DDE700BF2DE9F8432DED048B0C9C074657
:101F180088462820D4F8009016461D46DFED238A0F
:101F28004946B7EE008AFFF757FBD9F80430386006
:101F38000446D3ED007A9FED1E9AFDEEE77A86609F
:101F4800B0EE490AC0F80090C0F8188017EE903A31
:101F5800C0ED077A03FB06F2164B00EE902A4362A7
:101F68000023F8EEE00A4360036260EEA80AC8EEB8
:101F7800200A12F039FE3E68F36903FB05F3F0EE20
:101F8800407AB0EE490A00EE903AC4ED047AF8EED1
:101F9800E00AF56060EEA80AC8EE200A12F024FEF6
:101FA80086ED050ABDEC048BBDE8F8836F12833A11
:101FB8000AD7233C0000C04003689961704700BFFE
:101FC80070B50468A369002B28DD0E460025B6EC21
:101FD800010A0135FFF77EFAD4ED017AA369B4EE60
:101FE800E70A77EEC07AF1EE10FACCBF94ED047AE6
:101FF80094ED057A9D42A7EE270A84ED010AE6DBF7
:10200800D4ED087A84ED080A77EEA77AF4EEC07A60
:10201800F1EE10FA94BF0120002070BD94ED010A82
:10202800EEE700BFF8B5166807460D462C20314686
:10203800FFF7D2FA1C4B386004464362002331464E
:10204800066043830023C3610362184B83624FF029
:10205800806343614FF48050FFF732FB3146606084
:102068004FF40050FFF72CFB3146A0604FF400609E
:10207800FFF726FB3146E0604FF48050FFF720FB66
:10208800034638682361FFF7BBFB082D3B6807D878
:102098004FF48B72EA40D20702D5ADB21D83F8BD6A
:1020A80001251D83F8BD00BFCDCC4C3EA69B443B0B
:1020B8002DE9F04F83B0834688466C200C9F1E465E
:1020C80015464FF0010AD7F800904946FFF7F8FA8D
:1020D800D9F804300022CBF800005B68044642635C
:1020E8008561C0F80090C0F80C808366334646616D
:1020F800C0E908A24FF0401204308263142295FB15
:10210800F6F580F83C204022856111460097FFF7DC
:1021180013FE3A46514604F10800FFF783FFA38FE8
:10212800DFED106A002207EE903A94ED1A7A4FF02C
:102138007E539FED0D0AF8EEE77AE2652366636643
:1021480067EEA67A84ED110A67EE877A87EE800A31
:1021580012F074FC054B84ED120AA36503B0BDE8C8
:10216800F08F00BF00007AC40000C8423333733FC9
:102178002DE9F84F0468636B6069226A616A00FBA5
:1021880002F201FB00319D1801332163E168984296
:10219800A26201EB850585ED000A6363E36203DD56
:1021A80094ED0E0ABDE8F88F002301EB8201201D93
:1021B80095006363FFF74EFED4F814A0D4E90296A5
:1021C800B9F816702E44B9F81830B9F814B0D9F81F
:1021D80004805D46B7FBF3F3013B013F13EA0B0FA5
:1021E80028D048460AF1FF33BAF1000F0CD008EBAB
:1021F800850256F8041B013B013511605A1C05EA9B
:102208000705F4D11FFA85FB236AE269013390EDD3
:10221800070AA9F814B0934284ED0E0A236201DB81
:1022280000232362636A01339A42D8BF00236362A2
:10223800BDE8F88F04F10800FFF726FBA068D1E796
:102248002DE9F047166807460D4638203146914675
:102258002DED028B82B0B0EE008B8DED010AFFF7F9
:10226800BBF99DED010A044638600660FFF790F956
:1022780015F11F03B1EE400A48BF05F13E035B119B
:1022880084ED060A07EE103A9FED2B6BB8EEC77B7C
:1022980088FE077B27EE067BFDEEC77B17EE903A9C
:1022A800C4ED097A5A1000EE102AB8EEC00B11F0EE
:1022B80033FFB0EE406BB0EE480B9FED217B86EE0E
:1022C800071BBAFE411B12F0EFF8FCEEC07B31464B
:1022D80017EE900AC4ED027A431E80002361FFF7CF
:1022E800EFF9A36807466060BBB100254FF00048CE
:1022F8004FF0000A00E06768D9F800601C203146FA
:10230800FFF7DEF9A36847F8250001350660AB4200
:10231800C0F818A0C0E90488EDD800230022E360C3
:10232800626122636263C4E90733C4E90A3302B015
:10233800BDEC028BBDE8F0870000000000004040C3
:10234800EF39FAFE422EE63F0368F6EE007A2DE9F1
:10235800F0431C6AD3F8088093ED067A4445A7EE4B
:10236800270A4FDB00225D6A9542AC469A62B8BFE5
:1023780005F1010C5FEA6C0CC3E907224FD0002479
:10238800DA6A002A51D1A04500F38A80B5EEC00A66
:102398000022C3E90722F1EE10FA9A6222DD596899
:1023A8004FF00044D3E90320013A0240586951F83C
:1023B8002210DA609A6A4860186A4C61002481ED3C
:1023C800020A013081ED030A0A618C610121186259
:1023D800D961D3ED0C7AB4EEE70AF1EE10FA01DD1B
:1023E80083ED0C0AB2EB450F00F38B800132D869FC
:1023F80083ED050A95429A6202DC002800F08B8082
:10240800BDE8F0835D6A996A002D2A46B8BF6A1C48
:10241800B1EB620F4FEA620CB2D1002CB0D10024AC
:10242800DA6ADC619C62002AADD05E68D869D3E9BB
:10243800037E07EA0E0256F822100A69A2EB0C0284
:102448000A61002800F09480012C1ED04FF0010989
:1024580003E009F10109A14517D009EB070202EAD7
:102468000E0256F82220D2E90401A1EB0C01A0EBE0
:102478000C0007EE901AF8EEE77AC2E90401F5EECF
:10248800C07AF1EE10FAE4D54C460022A0451C6251
:10249800DA621A6B5A634FF000021A637FF776AF5D
:1024A800B5EEC00AF1EE10FA43DDDA69002A3FF40E
:1024B80076AF58689A6AD3E90314214050F821107E
:1024C80091ED067AD1ED037AB5EE407AC0FE277A0F
:1024D800C1ED037AF1EE10FA7FF47BAF9FED2A7A13
:1024E80067EE877AB4EEE70AF1EE10FA7FF571AF7E
:1024F8000869101A07EE900AF8EEE77AC1ED067A35
:1025080067E70122002083ED050A95429A62C3E934
:1025180007003FF775AF002D196AB8BF01350129CB
:10252800A2EB65029A6228DD01220020DA62BDE88A
:10253800F083D9699A6A00293FF454AFB4EEC07A9F
:10254800F1EE10FA7FF74EAFD3ED0D7A0020D3E904
:102558000314F5EE407AD86121405868F1EE10FA7C
:1025680050F821104A617FF43DAF196B596339E780
:102578004A69A2EB0C024A6166E7002210469A6299
:10258800C3E90722BDE8F0839A99993E70B50468BB
:10259800E068884246D38D18A84238BF421A60685E
:1025A800B1FBF0FE451EF446294019D0401A4FF001
:1025B800FF35824225FA00F16FEA010102DA861A34
:1025C800F5402940266956F82E5063BB25EA0101DB
:1025D80046F82E10824225DB121A0EF1010C6068B3
:1025E800824211D31D1E6FF04040216918BF01259A
:1025F80060446D4201EB800141F8045F0CF1010C6D
:102608006068121A9042F7D962B101382169024014
:10261800012000FA02F253B151F82C30013A1A4362
:1026280041F82C2070BD294346F82E10D2E751F806
:102638002C3052421A4041F82C2070BD0268506874
:102648002DE9F84F4368066991FBF3F403FB14176F
:1026580006EB84049FB9D2F80880B8F1000F2ED099
:102668003D4654F8043B013756F8040B5840FEF732
:1026780003F847450544F4D12846BDE8F88FD2F859
:102688000890A3EB0708B9F1000F1AD04FF0000A21
:10269800D4F800B055462BFA07F254F804BF56F8A0
:1026A800040B0AF1010A0BFA08F313435840FDF72B
:1026B800E3FFCA450544EED12846BDE8F88F4546F4
:1026C800DAE74D46D8E700BFF0B50D680F46064675
:1026D8004C2029462DED048BB0EE408A83B0B7EE2E
:1026E800009AF0EE608A8DED011AFEF775FF6B68AF
:1026F800C9EE087A044693ED007A3A463060043011
:1027080040F8045C9DED010A84ED0F7A84ED108A8F
:10271800C4ED118A67EE877A77EEA77AFDEEE77A3D
:1027280017EE901AFFF78CFDC9EE287AD4ED0F6AE0
:102738001420636839685D6A88EE887A019167EECB
:10274800A67AFCEEE77ABDEEC77AC4ED047A84ED8A
:10275800057AFEF741FF0199A0610646016005F17F
:102768001F0040094301B0608000F36020237360BC
:10277800FEF7A6FF07EE905AF0EE006A002DB8EEBD
:10278800E77A3061B8BF01353E680023144AC6EEC7
:10279800877A6D109FED137A3146A2620C2025626C
:1027A800C4E90B33C4E90D33C4ED077A07EE905A38
:1027B800F8EE677A67EE877AC4ED097AFEF70CFFC0
:1027C800A269D3685168A06406604260B3FBF1F364
:1027D8005B08013B836003B0BDEC048BF0BD00BF18
:1027E800000080BF6F12033C2DE9F04F046880465B
:1027F800204650F8043F2DED0C8B93B0DD69FFF7B0
:10280800A3FD30B9A84204D0E36AC14A0133A262E9
:10281800E36263689A6A1AB9BD4A0021A260E1605E
:10282800D86A20B913B0BDEC0C8BBDE8F08FD8F88E
:1028380000500023DFEDB77A6968AC6991ED0D8A25
:1028480091ED0C7AA2684F6A88FE078A6B6328EEBE
:10285800278A42B122691E46043A013342F8046FBE
:10286800A0689842F9D80A6A002A00F082820869AA
:102878000026D1F80CC002F1FF3E82463446496872
:1028880005F1180960469FEDA06BAEEB0403013417
:10289800034403EA0A0351F82330D3ED037AB4EE74
:1028A800E78AF1EE10FA40F23D819442EDD1D8F872
:1028B80000A0DFED987ADAF8041091ED0D8A91ED19
:1028C8000C7A88FE078A28EE278A2B6AB34298BFBB
:1028D8009F428CBF01230023AB63DAF83830002B0A
:1028E80040F0EF81DAF83420012A40F2EA810A6ADE
:1028F800501E03920A9000F01082C8684FF0FF340F
:102908000B93BFEE009ADAF81430D346D1ED097A6A
:1029180011930319F8EEE77A9FED7F7A13449FED40
:102928007FAAF0EE499A9AED09BA049387EE27CA6E
:102938004B68DFED7B8A01930B69F0EE4ABA109081
:10294800029301230C94059383180D9409930AF1BB
:1029580048030DEE903A08E00792059B079A013369
:1029680005930A9B934200F00782059A099B0299F6
:102978009B1A0B40019951F82390531ED9ED037A05
:102988000893F4EEC87AF1EE10FAE5DB039B1446DF
:1029980007929342E1D0F7EE00AADA46F6EE00CAB3
:1029A80004E00134039BA34200F08981049B1A1BB5
:1029B800029B1A40019B53F82260D6ED037AF4EE8D
:1029C800C87AF1EE10FAECDBD9F810203569AD1AA7
:1029D800DAF82020AA42C0F07281DAF810309D425D
:1029E8000693DED329461DEE900AFFF727FEB4EEC4
:1029F800699A0746F1EE10FA02D1002800F06A81C0
:102A08001F2D40F31A812A467B1C38D0B4EE699AF0
:102A180007EE907AF0EE6A6A9AED077AF8EEE77AAE
:102A2800F1EE10FAE7EE676A40F0A38007EE905ADD
:102A3800B8EEE7DA07EE902A99ED016AD6ED015A69
:102A4800B0EE66AAB8EEE79A96ED027AD9ED027A68
:102A5800B1EE465A37EE657AF1EE654A77EEC67AF8
:102A6800C4EE878A85EE277A78EEC78A78EE8D8A53
:102A7800089B0C940D9301230B93002F91D1FFEE2B
:102A8800007AB4EE679AF1EE10FA00F046810A9BDC
:102A98000C990D9ADDED0B7A9A1A5B1A1099F8EEDB
:102AA800677A0A440B4402990A400B40019951F88D
:102AB800222051F82330D2ED015A93ED016A92EDAC
:102AC800027AB1EE655AD3ED026A37EE657A1B6970
:102AD80076EEC66A1269F1EE465A8AED03AA85EEC9
:102AE800076A9B1A85EEA67A06EE903AF8EEE66A31
:102AF80037EE467A37EE267AC7EE276A0120CAED06
:102B0800026A8FE6AFF300800000000000000000BA
:102B1800000080BF9A99193F0000004200000000A1
:102B28000AD7233CD3E904126B6B484607EE901A88
:102B38008F4203F10103B8EEE77B28BF0F469642A8
:102B48006B634FF0010387FE067BFDEEC77B38BF42
:102B5800164617EE901A521AFFF718FD6B681A6A94
:102B680094423FF4A4AE02F1FF3E5968D3E9030A48
:102B78008BE607EE902AF8EEE75AF4EEE85AF1EE03
:102B880010FA31D4D6ED017A96ED027A99ED016A00
:102B9800F1EE674A37EE677AD9ED027AB1EE465A16
:102BA80077EEC67A84EE876A85EE277A07EE905A22
:102BB800F8EEE77A36EE476A36EE276A86EE287A26
:102BC800B8FE477A8AFE877ABDEEC77AB8EEC75A4A
:102BD800C6EE057A77EEE87AF0EEE77AB4EEE7BA71
:102BE800F1EE10FA00F39C80F4EECA6AF1EE10FAE6
:102BF8007FF743AF07EE905A99ED016AD6ED015A77
:102C0800B0EE66AAB8EEE75A07EE902A96ED027A79
:102C1800B1EE654AB8EEE79AD9ED027A37EE657AF1
:102C2800F1EE464A77EEC67AC4EE078A84EEA77AB2
:102C380078EEC78A78EE858A1AE7DAF8482005F12F
:102C4800010B9268BBEB421F4FEA421380F2988057
:102C58000E941DEE908A3C461F4602E08F4258D0E3
:102C68008B4659464046FFF7E9FCA4460BF10101A3
:102C7800044660450BF1FF32F0DDE0460E9C05F19D
:102C8800FF3B069B5B4579D20E951DEE907A454633
:102C98000F9490465C469B4603E09345A046144635
:102CA80032D221463846FFF7C9FCAC46621E0546BB
:102CB8006045F2DD0E9D67460F9C4246A4E6D3466A
:102CC8004BE6344B0120CAF80C3013B0BDEC0C8B2A
:102CD800BDE8F08F07EE905A1DEE900AB8EEE7DADD
:102CE8006DEE2C7AFDEEE77A17EE901AFFF7A6FC48
:102CF80000283FF4C4AEF0EE6A6ADAED077A2A4695
:102D08000027E7EEEB6A95E60F9C42460E9D0746C4
:102D18007AE60E9C5A468046B1E7DFED1F6AEDE67B
:102D2800F4EECA6AF1EE10FA7FF7A7AE9DED115ADC
:102D3800B8EEC77B0B9BB8EEC54B84FE477BFDEE18
:102D4800C77B17EE902A9A423FF497AE76EECA7A7E
:102D5800F0EEE77AB4EEE7CAF1EE10FA13DB089B5F
:102D6800B0EE66AA0B920C940D93002F7FF419AE67
:102D780085E6AA461646A8E5DA4680E6474643E6CB
:102D8800B8462A467BE7B0EE66AAF0EE468AB0EE71
:102D9800659A6DE6000080BF000000002DE9F04351
:102DA8001F68164681468846302039461D462DED57
:102DB800028B83B0B0EE408AF0EE608AFEF70CFC1E
:102DC800002E04463246C9F80000B4BF731C3346CF
:102DD800076041467F685B1000950430FFF768F98B
:102DE8002E6818203146FEF7F7FB2946A0600546F5
:102DF800F0EE680A40F8046BB0EE480A9FED131A2B
:102E08007668FFF761FC78EEC86A0022B6EE007AB1
:102E18003368F0EE487A38686B6101212A61002333
:102E2800E6EE877A0A4AAB60EB60E062E360236112
:102E3800C4ED057AA361E161A26284ED098AC4ED5B
:102E4800088A03B0BDEC028BBDE8F0830000F0C235
:102E580048E17A3F0000000038B504682DED028B88
:102E6800201DB0EE408AFFF783F9A568B0EE480A46
:102E7800281DFFF7B9FC6A685368996A11B90021DF
:102E8800A960E960D86A002800F0BE80FFEE007AE9
:102E980092ED037AB4EE677AF1EE10FA00F0B7809B
:102EA800D5ED027AF5EE407AF1EE10FA00F0B68030
:102EB800DFEDCB7AB4EEE77AF1EE10FA01D5002314
:102EC8002B61A3685A68D2ED026AF5EEC06AF1EE8A
:102ED80010FA00F3E880D3ED027AF5EE407AF1EECD
:102EE80010FA14BF01210021626892ED0E6AB5EE56
:102EF800406AF1EE10FA00F08780002900F0848023
:102F0800D4ED0B4A94ED057AC4EE865ADFEDB56A26
:102F180093ED035A67EE266A35EEE76AB0EEC66AA5
:102F2800B4EEE66AF1EE10FA61DD37EEC76AB0EE8C
:102F3800C66AF4EEC66AF1EE10FA58DC35EEC76AD6
:102F48009368D3ED084AB0EEC66AF4EEC66AF1EEAD
:102F580010FA00F3FC80D4ED0A6AF4EEE46AF1EEAC
:102F680010FA51DCF4EEC75AF1EE10FA0FDDB4EEA8
:102F7800E77AF1EE10FA0AD5F4EEE75AF1EE10FA14
:102F880005D5B4EEE65AF1EE10FA00F3D480F4EE6B
:102F9800C75AF1EE10FA0FD5B4EEE77AF1EE10FA4F
:102FA8000ADDF4EEE75AF1EE10FA05DDB4EEE65A62
:102FB800F1EE10FA00F33781D4ED086AF4EEE65A20
:102FC800F1EE10FA00F3E080D4ED096AF4EEE65A67
:102FD800F1EE10FA18D5C7EEA56AF8FE666AB7EEE4
:102FE800006AF4EEC66AF1EE10FA40F3B080E369C5
:102FF800002B3FD000220023C4ED037A84ED045A4D
:10300800C4ED057AE261A361BDEC028B38BD0023F3
:103018000020BDEC028BAB60EB6038BDDFED727A4F
:10302800A368B4EEE77AF1EE10FAFFF654AF5A68E7
:10303800D2ED027AF5EEC07AF1EE10FA7FF74BAFD7
:1030480093ED056AC6EE276AF5EEC06AF1EE10FA4E
:103058007FF741AFC5ED026A0022D3ED027A85ED14
:10306800037AF5EE407A2A61F1EE10FA14BF0121D5
:10307800114639E7B7EEC76AC4ED037AB7EEE73A07
:10308800002384ED045AA3619FED512B9FED524B11
:10309800BDEC028B26EE027BA3EE047BB7EEC77B6A
:1030A80084ED057A38BD93ED056AC6EE267AF5EE0D
:1030B800C07AF1EE10FA7FF70EAF93ED026ADFEDFA
:1030C8004B6A76EE675A196966EE266A0131F0EEA8
:1030D800E55A1961F4EEE56AF1EE10FA1FDC0129F0
:1030E8003ADDF4EEC67AF1EE10FA55D5C6EE275A57
:1030F800F8FE655AFDEEE55A15EE901A01292BDD0A
:10310800F8EEE55A65EEA75A36EE655AB0EEC55A9E
:10311800F4EEC56AF1EE10FA1EDDF0EE657AF5EE12
:10312800407AC3ED027A83ED037AF1EE10FA14BF08
:1031380001210021D8E6C7EEA56AF8FE666AB7EE57
:10314800006AF4EEC66AF1EE10FA7FF750AFB0EEFF
:10315800645AF0EE657A4AE7D2ED036ADFED205A49
:10316800F4EEE56AF1EE10FA11DD9FED1F5AF4EE68
:10317800C56AF1EE10FA3DDB00220121C3ED027AA7
:1031880083ED037A1A61AFE6C5EEA76A25E7F0EE8C
:10319800467A93ED037AC2E7C7EE865AF8FE655A77
:1031A800FDEEE55A15EE901A0129D5DDF8EEE55A3F
:1031B80087EEA55A76EE455AF0EEE55AF4EEE56A42
:1031C800F1EE10FAC8DDF0EE457AA8E7AFF300801B
:1031D80028C1D1448EE3E83F5FFBB8ECC671CC3F11
:1031E8006666663F0000003D3333733F0000803C55
:1031F80000000000F4EEE56AF1EE10FA09D4B5EE2D
:10320800406AF0EE467AF1EE10FA14BF012100216F
:103218006AE61FED097A0021F0EE477A83ED027A1B
:1032280083ED037A60E6C5EEA76A86E7036893ED47
:10323800030A7047036893ED040A70470000000012
:103248002DE9F04F01292DED028B8DB008910490E6
:1032580040F33D82049B48101C1D014601230133A5
:10326800089A9A4216D04140084204D102465210A8
:1032780051401142FBD0994204F10404EFDA049A58
:103288000133256802EB8102166826601560089AEA
:103298009A42E8D100220120013200FA02F1994253
:1032A800FADB12F00102009200F01182049901EB9E
:1032B8008306B14264D2CA4301F12003403132444B
:1032C80022F01F029FEDDE3B0A4413ED014A203332
:1032D80013ED0C7A13ED0B1A13ED0A5A37EE412A47
:1032E80053ED0F1A35EE446A53ED107A53ED0E4A3A
:1032F80035EE045AB7EEC22A53ED0D0AB7EEC66A88
:103308009A4277EEE15A22EE032B26EE036B77EE14
:10331800A17A37EE017A74EEE01A74EEA04AB7EE9D
:10332800C22BB7EEC66B37EEE44A77EEA47A75EE99
:10333800E14A75EEA15A77EE451A37EE057A75EE31
:10334800C26A34EE615A77EEC72A34EE214A43ED59
:103358000B6A77EE877A03ED0A5A34EEC67A43EDA4
:103368000C2A75EE825A03ED0E4A74EE864A43ED36
:10337800107A03ED097A43ED0F5A43ED0D4AA4D1B3
:10338800089B0F2B40F35581009B049A01330432AC
:103398009B000B920593043BAB4A1A440792AB4A35
:1033A8009FEDA78BD3180693009B01254FF00408C7
:1033B80002339D4008FA03F80093AB0005EB450281
:1033C80069100993E800049B03912C0103EB810128
:1033D8000190900003EB080903EB820C01EB08074E
:1033E800029003EBC50E01EB820201EBC50099EDDB
:1033F800006ADCED005AD3ED007A9EED007A77EE94
:10340800C66A77EE867A37EE656A37EE257A76EE03
:10341800C65A37EEC75A76EE866A77EE877A8EED09
:10342800005AA644C3ED007A2344CCED005AA444C4
:10343800C9ED006AB34292ED006AA14490ED007AAA
:10344800B7EEC66AD1ED005AB7EEC77AD7ED004A93
:1034580026EE086B27EE087B35EEE45AB7EEC66B0E
:1034680075EEA45AB7EEC77B75EE467A35EE066A56
:1034780075EEC76A35EE877AC0ED006A204481EDA3
:10348800007A2144C2ED007A224487ED006A27447D
:10349800ADD3059F013D6E494FF001093A466D488D
:1034A80011F094FD3A466C496C4811F08FFD049B6D
:1034B800DDF82CB003EB850A009B9B000A9319F0FA
:1034C800010340F0FA801946013349FA03F2D007A4
:1034D800F9D5009AD31A5C4A02EB8302012B4FEA12
:1034E8008300D2ED001A594A02EB830292ED002ABA
:1034F80000F3A48061EEE12A029A21EE823A5B464B
:1035080002EB0B0502EB0A00E2EE022A019A33EE07
:10351800033AD64602EB0B0108EB0B0C08EB0A0743
:10352800524490ED005A97ED007A62EEC54A95ED47
:10353800006A67EE037ADCED006A25EE035A92ED25
:10354800004AE6EE034AD1ED003AE6EEA27AA6EE8C
:10355800225A22EEC77AA6EE837A34EE646AB0EE77
:10356800671AD3ED007A73EEC56A66EE210A33EE68
:10357800855AF0EE475A9EED007A77EE813A77EE5B
:10358800C17A21EEE61AE5EE020A74EE244A22EE2A
:10359800466A37EE654A66EE826A37EE257AF0EEBD
:1035A800415AE4EEA16AA5EE216AE4EE825A33EEAE
:1035B800E01A73EEA03A81ED001A37EE665AC3EDB1
:1035C800003A234474EE464A214437EE267AB34241
:1035D80077EEE56A34EE066AC0ED004A77EEA57A22
:1035E800204487ED006A274482ED005A22448EED7C
:1035F800007AA644C5ED006A2544CCED007AA444BF
:103608008FD309F10109039B0BF1040BAAF1040AFA
:103618004B457FF454AF059B08330593079B08334C
:103628000793069B08330693DDE9083293423FF778
:10363800BBAE0DB0BDEC028BBDE8F08FCA1C10E02C
:10364800CD3B7F669EA0F63F540000240400002472
:103658004C5001080C000024EC5001085C000024C8
:10366800013249FA02F1C907FAD40099013B324DF7
:103678008A1A3249324F0144D1ED006A05EB8301C1
:1036880007EB830391ED007AD3ED007A05EB820313
:1036980007EB8202D3ED005A2B1892ED006A3844EA
:1036A80037EE257A77EE867A27EE267A67EEA67ABF
:1036B80083ED007AC0ED007A1CE7079B02220A9886
:1036C800D3ED021A069B93ED022A009BC9E7049BDF
:1036D800089A03EB8206B3422AD2DA4303F12001A7
:1036E8001033324422F00F020A4413ED036A1033F8
:1036F80053ED055A53ED087A13ED067A9A4277EEA0
:10370800C66A77EE867A37EE656A37EE257A77EEFF
:10371800C75A77EE877A36EEC67A76EE866A43ED32
:10372800065A43ED087A03ED057A43ED076ADCD1C2
:103738000023009324E600BF54000024945001089D
:103748000400002438B50C46054601462046FFF71C
:1037580077FD002DB4BF05F1010CAC46032D4FEAEF
:103768006C0C18DDB6EE006A221D04EB85010123FE
:10377800D2ED007A013371ED016A9C4537EEE67AA5
:1037880077EEA67A27EE067A67EE867A81ED007ADA
:10379800E2EC017AECDC38BD002810B5B4BF00F1CA
:1037A800010E864603280C464FEA6E0E13DD01F122
:1037B800040C01EB80020123DCED007A013332EDC9
:1037C800017A9E4577EEC76A77EE877AC2ED006A7E
:1037D800ECEC017AF0DC01462046BDE81040FFF72A
:1037E8002FBD00BF00F09EB938B5044600F0BAF905
:1037F800D4F8A450204600F0D1F9284601F028FC5E
:10380800D4F8A850204600F0C9F92846BDE8384049
:1038180001F01EBC38B5044600F088F9D4F8A4506D
:10382800204600F0BBF9284601F012FCD4F8A85055
:10383800204600F0B3F92846BDE8384001F008BC3E
:10384800183001F025BF00BF10B50446643001F000
:10385800DBFB04F18400BDE8104001F0D5BB00BFDC
:1038680010B504463C3001F04FFC04F1AC0001F007
:10387800EFFC04F1BC00BDE8104001F0E9BC00BF5A
:1038880010B50446D43001F0BBFC04F59470BDE8D3
:10389800104001F0B5BC00BFF0B504468DB014204F
:1038A800012500F029F90346132004F1D407ADF8E7
:1038B8000C3000F021F90346122004F5947406AE8A
:1038C800ADF8103000F018F90399ADF81400384637
:1038D8000095DDE9042301F055FC112000F00CF9F6
:1038E80003461820ADF80C3000F006F9ADF81000CA
:1038F800172000F001F9ADF81400059B2046049A42
:103908000399009509AD01F03DFC3046072104F00C
:103918004BFC96E8070085E807002946384601F081
:1039280059FC96E8070085E807002946204601F07B
:1039380051FC384601F064FC20460DB0BDE8F0406B
:1039480001F05EBC2DE9F04104461520002504F184
:10395800180704F1A4062DED028B8EB09FED1E8A88
:1039680000F0CAF8034605A8ADF80C30039901F039
:103978009DFC0F2000F0C0F803460DF12500ADF8BE
:103988001030049901F092FC0423022205A938465C
:1039980001F09AFC04F1640204F18403C4E92923C8
:1039A8002946384656F8048B01F088FE0146204621
:1039B800019100F0F3F80023F0EE480A019940461F
:1039C8001A4601F0EFFA25B10EB0BDEC028BBDE846
:1039D800F0810125E4E700BF6F12033B70B59FED4E
:1039E800420A8EB004468DED010A009100F082F87B
:1039F8000099204600F03EF91B2000F07DF80346B0
:103A080004F1AC069DED010AADF8143004F1BC05D3
:103A1800059930468DED000A01F000FC1C2000F0ED
:103A28006BF8ADF818009DED000A2846069901F0DC
:103A3800F5FB1A20C4E9336500F05EF80346192047
:103A48000025ADF80C3000F057F803460D2004F5BA
:103A58001046ADF8103000F04FF8ADF81C0004F136
:103A68003C009DED000A049A0399079B01F01CFB9A
:103A78002046FFF711FF2046FFF764FF01231B4A8A
:103A880049F22C20099307A90C9347F612232044E6
:103A98000A950D93022308950B93154BC6E9895295
:103AA800079303F09FFE0A23C6F818523021C6F880
:103AB8001452204684F8843184F8805100F052F87A
:103AC800D4F8A450204600F069F8284601F0C0FA5E
:103AD800D4F8A850204600F061F828460EB0BDE89A
:103AE800704001F0B5BA00BF0000000001070106F0
:103AF80001060107704700BF202882B009D8084B8B
:103B080003EB400213F81030507843EA002002B06B
:103B1800704701230C2043EA002002B0704700BF21
:103B280034510108143001F009BA00BF38B500F16A
:103B3800140504462DED028B284601F0BBF92846F2
:103B480001F0B4F92846B0EE408A01F09DF9D0EDB5
:103B5800007AF8EE677A88EE277ABDEC028B84ED5E
:103B68000E7A38BD38B500F1140504462DED028BE8
:103B7800284601F08DF9284601F098F92846B0EE5C
:103B8800408A01F081F9D0ED007AF8EE677A88EE84
:103B9800277ABDEC028B84ED0E7A38BD90ED0E0AC3
:103BA800704700BFF0B5032399B000270125129391
:103BB80006462C4B09A81595CDE90E7340F204531F
:103BC800ADF84030284BCDE91357099301F078FE42
:103BD80009A801F051FF002836D1244B04AF044650
:103BE8000090CDF842301023394604958DF82030E6
:103BF8001F4BCDE91650CDE906506846059302F0F3
:103C0800C9F80823009A01A909A8ADF804508DF84D
:103C1800064009940295039300F0E4F800230EA9E6
:103C280038463024049302F0C7FE03224FF07E5337
:103C380009A906F114000B930C93CDE90942049AE3
:103C480001F0EAF819B0F0BD40F60132074B1697BB
:103C580004AFADF824200998CDF84230179500F04C
:103C680081F8DBE7040204040303000104060403EB
:103C78000704010B2DE9F04304462DED028B83B0B8
:103C8800002948D0012140F2011200230091ADF82B
:103C980004208DF80630304A0126304B271D304964
:103CA80004F12908626040F20272A36040F60663DC
:103CB800E16004F125092682A4F8252084F827600C
:103CC800A4F8293084F82B6004F0EAF86946054620
:103CD80048B304F130008DF8066004F03FF8072D72
:103CE80034D104F114052046FFF75CFF284601F0A3
:103CF800DDF82846B0EE408A01F0C6F8D0ED007A2B
:103D0800F8EE677A88EE277A84ED0E7A03B0BDEC78
:103D1800028BBDE8F08340F2011300918DF8061084
:103D2800ADF80430B7E704F1300004F017F839466D
:103D3800204602F079FA484601F0C2FD404601F0FB
:103D4800BFFD04F1120000F077F9CAE739462046B2
:103D580002F06AFAC5E700BF050805090507050668
:103D6800050A060610B584B003460124ADF8040020
:103D780003A8ADF80C30ADF80E4001F0A1FD2146C6
:103D880003A801F087FE204603F01CFF002103A8CA
:103D980001F080FE204603F015FF214603A801F03C
:103DA80079FE04B010BD00BF10B5C2F3002384B083
:103DB8000C46017C8DF80D2043EA4402FA240223C4
:103DC8008DF80C2003AA009402F07AF818B10124A7
:103DD800204604B010BD04460A2003F0F3FE204636
:103DE80004B010BD034670B543F8042B044684B0F4
:103DF80007C983E80700A37983B91A210B461E2255
:103E0800FA2523742046ADF80C20022303AA009556
:103E180002F056F828B1012004B070BD1B210B46F2
:103E2800EDE70A2003F0CEFE4FF4B85200950223C6
:103E3800ADF80C20204603AA217C02F041F80028A6
:103E4800E9D10A2003F0BEFE41F202720095022376
:103E5800ADF80C20204603AA217C02F031F8002896
:103E6800D9D10A2003F0AEFE042200950223ADF852
:103E78000C20204603AA217C02F022F80028CAD18F
:103E88000A2003F09FFE062200950223ADF80C20BD
:103E9800204603AA217C02F013F80028BBD10A208F
:103EA80003F090FE41F2082200950223ADF80C20A1
:103EB800204603AA217C02F003F80028ABD10A208F
:103EC800064603F07FFE0095022303AA217C2046C4
:103ED800ADF80C6001F0F4FF00289CD1304603F0E7
:103EE80071FE009522790C232046002A8DF80C30AB
:103EF80003AA4FF0020314BF622142218DF80D106E
:103F0800217C01F0DDFF002885D1304603F05AFE00
:103F18002279D4E902310B43DBB20AB943F04003FA
:103F280062790AB143F020030E22FA258DF80D308C
:103F38002046009502238DF80C2003AA217C01F06D
:103F4800BFFF00287FF467AF0A2003F03BFE102272
:103F580000950223ADF80C20204603AA217C01F02D
:103F6800AFFF00287FF457AF0A2003F02BFE122181
:103F780000950223ADF80C1003AA217C204601F01D
:103F88009FFF00287FF447AF0A2003F01BFE0122A1
:103F980009212046FFF708FF003818BF01203BE73A
:103FA800F0B5102387B0234C0122002501260027F5
:103FB80002A920460195CDE902234FF48052CDE9AC
:103FC80004670AF035FD642004F020FA02A94FF4D2
:103FD80080522046CDE9046702261027CDE9026702
:103FE8000AF026FD0322102302A92046CDE9022368
:103FF80000230422CDE904234FF480520AF018FD6F
:1040080040F23223042202A9019310232046CDE96D
:104018000223019A012305924FF4805204930AF077
:1040280007FD40F6060120460AF022FD284607B0A3
:10403800F0BD00BFF48907241C4B00221C494FF037
:10404800400C30B5054689B00220596007219A60B6
:104058001A620124DA620A224FF4006EDC600692CA
:104068002022CDE9000104200821CDE90201032026
:104078001021CDE9040108206946C3E904024FF480
:10408800C072181DC3E906C24FF48052C3E909E2A1
:104098000AF0A4FC38B92846FFF782FF003818BF99
:1040A800012009B030BD204609B030BDF089072491
:1040B80040410052614A0021D0B513688EB00A9180
:1040C800002B40F0B9805E4B01214FF683700C2421
:1040D80011600221D3F8D4200026032742F480522D
:1040E800C3F8D420D3F8D42002F480520092009A66
:1040F800D3F8E02042F01002C3F8E020D3F8E02023
:1041080002F010020192019AD3F8E02042F0400236
:10411800C3F8E020D3F8E02002F040020292029AAD
:10412800D3F8E02042F00802C3F8E020D3F8E020FA
:1041380002F008020392039AD3F8E02042F4807256
:10414800C3F8E020D3F8E02002F480720492049AC5
:10415800D3F8E02042F08002C3F8E020D3F8E02052
:1041680002F080020592059AD3F8E02042F020027E
:10417800C3F8E020D3F8E02002F020020692069A65
:10418800D3F8E02042F00402C3F8E020D3F8E0308E
:104198000C9403F0040307930323079A0B93CDE9C8
:1041A800080108A9274805F0B7FF48F2371202238B
:1041B80008A925480C94CDE90823CDE90A6705F03C
:1041C800ABFF4CF20372022308A920480C94CDE9F6
:1041D8000823CDE90A6705F09FFF40F2FF6202233A
:1041E80008A91B480C94CDE90823CDE90A6705F016
:1041F80093FF4FF60C72022308A916480C94CDE9D8
:104208000823CDE90A6705F087FF4FF63F0202232E
:1042180008A911480C94CDE90823CDE90A6705F0EF
:104228007BFF2022022308A90A480C94CDE90A67DB
:10423800CDE9082305F070FF0EB0D0BDEC89072446
:10424800004402580010025800180258000C025886
:1042580000200258001C0258001402582DE9F04FA3
:10426800DFF8108406460D46144608F118002DEDB7
:10427800028B89B000AF02F097FCD8F8183073B3FE
:10428800D8F81C30D8F80490002B43690BBF4FF0C6
:10429800080A4FF0100A4FF0020B4FF0040BB9F167
:1042A800000F2AD0A200EA46012B02F1070222F0F1
:1042B8000702ADEB020D6846ADEB020D694600F052
:1042C8003F81022B00F0D680002B6FD02246C847D2
:1042D800D5462437BD46BDEC028BBDE8F08FD8F833
:1042E8001C30002BF5D0D8F804904FF0080A4FF096
:1042F800020B4369B9F1000FD4D1FB61D8F8003043
:10430800BB61002BE5D0D54802F0C0FC6B46BBF181
:10431800020F786108EE103AFB6900F083816A4663
:104328005146A2EBC40295466200EA46B2FBFBF294
:10433800AAEBC40085460AEB8200EE46F861ADEBB5
:10434800010DF8690EEB820CC7F810C0EC46ADEB16
:10435800010D00EB8201CCF80400CCF8081001EB49
:1043680082013869E946CCF80C1000EB8201CCF8E0
:1043780000A001EB8202C9E900E0C9E90212012BA1
:1043880000F06483022B00F06C82002B00F0808127
:10439800620849466046BB69984718EE103A2437C8
:1043A8009D46BD46BDEC028BBDE8F08F002C8DD03C
:1043B8001A46D8ED0C6A9FEDB27A8446331D36F959
:1043C80022E00CF1080C07EE90EA33F922E0023201
:1043D800F8EEE77A944267EE877A67EEA67A4CEDB4
:1043E800027A07EE90EAF8EEE77A67EE877A67EEE8
:1043F800A67A4CED017AE2D8F9612246C847984E70
:10440800D8ED0D6A0020F9692B1D9FED9E7A9FED6E
:104418009E6ADFED9E5A22E0F4EEC67AF1EE10FABB
:10442800C0F2C88447F6FE72D1ED017A45F8202023
:1044380066EEA77AF4EEC77AF1EE10FA40F2F08051
:10444800F4EEC67AF1EE10FAC0F2D58447F6FE72A1
:1044580043F820200230083184427FF639AFD1ED8D
:10446800007A66EEA77AF4EEC77AF1EE10FAD3D89E
:104478003246D9E7002C3FF429AFD8ED0C6A8446C0
:104488009FED787A0022331D8E4656F822100CF1E3
:10449800080C07EE901A53F822100232F8EEE77A69
:1044A800944267EE877A67EEA67A4CED027A07EEB9
:1044B800901AF8EEE77A67EE877A67EEA67A4CEDFF
:1044C800017AE2D871462246C7F81CE0C847664E12
:1044D800D8ED0D6A0020F9692B1D9FED6A7A9FEDD2
:1044E8006A6ADFF894C120E0F4EEC67AF1EE10FAB9
:1044F800C0F279843246D1ED017A45F8202066EE83
:10450800A77AF4EEC77AF1EE10FA40F28780F4EE5B
:10451800C67AF1EE10FAC0F25E84324643F82020E3
:104528000230083184427FF6D3AED1ED007A66EED0
:10453800A77AF4EEC77AF1EE10FAD5D86246DAE730
:10454800002C3FF4C3AED8ED0C6A86469FED477A3F
:104558004FF0000C331D56F82C200EF1080E82F493
:104568000002A2F5000207EE902A53F82C200CF165
:10457800020CF8EEE77A82F400026445A2F5000224
:1045880067EE877A67EEA67A4EED027A07EE902AF2
:10459800F8EEE77A67EE877A67EEA67A4EED017A4B
:1045A800D9D8F9612246C847314ED8ED0D6A0020A6
:1045B800F9692B1D9FED337A9FED336ADFF8BCC094
:1045C8001FE0F4EEC67AF1EE10FAC0F2FC83324630
:1045D800D1ED017A45F8202066EEA77AF4EEC77A85
:1045E800F1EE10FA18D9F4EEC67AF1EE10FAC0F22C
:1045F800DA83324643F820200230083184427FF6BD
:1046080067AED1ED007A66EEA77AF4EEC77AF1EEDE
:1046180010FAD6D86246DBE76246EBE762467DE7EA
:10462800324615E7A100D6466208073121F0070196
:10463800ADEB010DEA46ADEB010D6946ADEB0E0D94
:104648000AEB8200EC46ADEB0E0D01EB8202F8613D
:10465800E946CCE900A0C9E9001290E6448A07249B
:104668000280FFFF000000300082FF7F000000345E
:1046780082FF7F00288A0724007E00807E0080FF5A
:104688000000003804FF7FBF04FF7F3F00FEFF46A5
:10469800002C00F0C982BBF1020FD8F8242000F0EA
:1046A800FA827969C7F8049002EB810E5FED0C5A23
:1046B8008A00DCF808100EF104007A611A46DCF86A
:1046C8000C303B61331DD7F810903D61FD69C7E997
:1046D80002CB8C46834636F92210D8ED0C7A06EECA
:1046E800101A33F9221006EE901A3EF92210B8EE8D
:1046F800C66A07EE101AF8EEE66A3BF92210B8EE21
:10470800C77A26EE256A66EEA56A27EE257A26EE92
:10471800276A66EEA76A27EE277A07EE901A5108ED
:104728000232F8EEE77A0AEB8100944280ED006AE3
:1047380005EB810067EEA57AC0ED006A0CEB8100FD
:1047480009EB810180ED007A98ED0C7A67EE877AA3
:10475800C1ED007ABFD8D7F804903D69D7E902CBFC
:1047680060466208BB6949469847D8F82C307A6990
:10477800D8ED0D6A1A441FED3D7A1FED3D6A2B1DD9
:10478800904602F1040A5FED3F5A0022A84ED9E98B
:1047980000EC51E0F4EEC67AF1EE10FAC0F2C782EE
:1047A80047F6FE7045F822000CEB0100D0ED007AC8
:1047B80066EEA77AF4EEC77AF1EE10FA4BD9F4EE6A
:1047C800C67AF1EE10FAC0F2BA8247F6FE70BBF173
:1047D800020F43F822002BD0D9F808000844D0ED86
:1047E800007A66EEA77AF4EEC77AF1EE10FA36D9B7
:1047F800F4EEC67AF1EE10FAC0F2CD8247F6FE70FA
:1048080048F82200D9F80C000144D1ED007A66EE90
:10481800A77AF4EEC77AF1EE10FA1ED9F4EEC67A4A
:10482800F1EE10FAC0F2AF8247F6FE714AF8221094
:10483800023294427FF6B1AD51080EEB8100890037
:10484800D0ED007A66EEA77AF4EEC77AF1EE10FAA8
:10485800A0D83046A6E73046B9E73146E6E7304605
:10486800CEE7002C00F0E081BBF1020FD8F824302D
:1048780000F0E1817A69DCF8081003EB820EC7F8D2
:1048880004909300DFED6B5A0EF1040000227B6167
:10489800DCF80C303B61331DD7F810903D61FD69A1
:1048A800C7E902CB8C46834656F82210D8ED0C7A1D
:1048B80007EE101A53F82210B8EEC76A07EE101A5E
:1048C8005EF82210F8EEC76A07EE101A26EE256A7F
:1048D8005BF82210B8EEC77A66EEA56A26EE276A5C
:1048E80027EE257A66EEA76A27EE277A07EE901A52
:1048F80051080232F8EEE77A0AEB8100944280ED23
:10490800006A05EB810067EEA57AC0ED006A0CEB42
:10491800810009EB810180ED007A98ED0C7A67EE51
:10492800877AC1ED007ABFD8D7F804903D69D7E9F6
:1049380002CB60466208BB6949469847D8F82C30D4
:104948007A69D8ED0D6A1A449FED3E7A9FED3E6A6A
:10495800131D9246DFF8E4C00022FB612B1D364E82
:10496800D9E9008E4EE0F4EEC67AF1EE10FAC0F204
:10497800FC81304645F822000EEB0100D0ED007AAC
:1049880066EEA77AF4EEC77AF1EE10FA49D9F4EE9A
:10499800C67AF1EE10FAC0F2EF813046BBF1020F91
:1049A80043F822002AD0D9F808000844D0ED007A4C
:1049B80066EEA77AF4EEC77AF1EE10FA35D9F4EE7E
:1049C800C67AF1EE10FAC0F2C98130464AF82200E0
:1049D800D9F80C000144D1ED007A66EEA77AF4EE1E
:1049E800C77AF1EE10FA1ED9F4EEC67AF1EE10FA93
:1049F800C0F2AD813146F86940F822100232944283
:104A08007FF6CBAC510808EB81008900D0ED007A25
:104A180066EEA77AF4EEC77AF1EE10FAA3D86046EC
:104A2800A8E76046BAE76146E5E76046CEE700BF1B
:104A38000280FFFF000000300082FF7F007E0080C0
:104A48000000003404FF7FBF04FF7F3F002C00F00C
:104A5800EB807A690021D8F82430C7F8109003EB6E
:104A6800820ED7F81C909300FD610EF104021FED31
:104A78000C6A7B61331D154656F821204808D8ED8D
:104A88000C6ABBF1020F82F40002A2F5000207EEE5
:104A9800902A53F8212082F40002B8EEE77AA2F5B2
:104AA800000227EE067A07EE902A0AEB8002F8EE5B
:104AB800E77A27EE267A67EE867A82ED007A09EBA6
:104AC80080024FEA800067EEA67AC2ED007A27D00E
:104AD8005EF8212082F40002A2F5000207EE902A77
:104AE80055F8212082F40002B8EEE77AA2F5000218
:104AF80027EE067A07EE902ADCF80820F8EEE77A27
:104B0800024427EE267A67EE867A82ED007A98EDDF
:104B18000C7ADCF80C2067EE877A0244C2ED007A42
:104B280002318C42A8D8D7F8109060466208BB6959
:104B38004946FD699847D8F82C307A69D8ED0D6A4E
:104B48001A441FED407A1FED406A131D9246DFF8A4
:104B5800C4C20022FB612B1DAB4ED9E9008E4EE08A
:104B6800F4EEC67AF1EE10FAC0F2C580304645F888
:104B780022000EEB0100D0ED007A66EEA77AF4EE83
:104B8800C77AF1EE10FA49D9F4EEC67AF1EE10FAC6
:104B9800C0F2BF803046BBF1020F43F822002AD092
:104BA800D9F808000844D0ED007A66EEA77AF4EE4A
:104BB800C77AF1EE10FA35D9F4EEC67AF1EE10FAAA
:104BC800C0F2AE8030464AF82200D9F80C00014401
:104BD800D1ED007A66EEA77AF4EEC77AF1EE10FA14
:104BE8001ED9F4EEC67AF1EE10FAC0F28B80314687
:104BF800F86940F82210023294427FF6CEAB510891
:104C080008EB81008900D0ED007A66EEA77AF4EE11
:104C1800C77AF1EE10FAA3D86046A8E76046BAE76B
:104C28006146E5E76046CEE7224649466046BB69ED
:104C38009847FFF7B2BBC7F810B0002298ED0C6A8E
:104C4800331DDFED726AD7F81CB0786956F8221068
:104C580007EE901A53F82210B8EEE77A07EE901A8A
:104C680051080232F8EEE77A27EE267A0AEB810E2F
:104C780094420BEB810167EEA67A27EE067A67EE7F
:104C8800867A8EED007AC1ED007ADFD88300D7F8F6
:104C980010B07B614DE61A46C7F810B098ED0C6A63
:104CA800331DDFED5B6AD7F81CB0786936F922103E
:104CB80007EE101A33F9221007EE901AB8EEC77AE9
:104CC80051080232F8EEE77A27EE267A0AEB810ECF
:104CD80094420BEB810167EEA67A27EE067A67EE1F
:104CE800867A8EED007AC1ED007ADFD88300D7F896
:104CF80010B07B6134E5F0EE675AFEEEE45A15EE2B
:104D0800900A34E7F0EE675AFEEEE45A15EE901A70
:104D18006EE7F0EE675AFEEEE45A15EE900A3AE7AF
:104D2800F0EE675AFEEEE45A15EE900A4BE767EE8E
:104D3800A57AFDEEE77A17EE900A00B232E567EE43
:104D4800A57AFDEEE77A17EE900A00B23FE5F0EE9D
:104D5800675AFEEEE05A15EE901A4CE6F0EE675AE6
:104D6800FEEEE05A15EE900A30E6F0EE675AFEEED7
:104D7800E05A15EE900AFDE5F0EE675AFEEEE05AAD
:104D880015EE900A0AE667EEA57AFDEEE77A17EEC9
:104D9800901A09B24AE567EEA57AFDEEE77A17EEB2
:104DA800900A00B22CE5F0EE675AFEEEE45A15EED2
:104DB800902A1FE467EEA57AFDEEE77A17EE902AAF
:104DC80012B2FFF731BBF0EE675AFEEEE45A15EE69
:104DD800902AFFF7FDBBF0EE675AFEEEE05A15EE9B
:104DE800902AFFF79BBBF0EE675AFEEEE05A15EEED
:104DF800902AFFF780BB67EEA57AFDEEE77A17EEFB
:104E0800902A12B2FFF724BB82FF7F000000003017
:104E1800000000387E0080FF30B5184C154685B07C
:104E2800046004F1080EEC460FC98EE80F00D4EDBB
:104E3800047AF5EEC07A8CE80F00F1EE10FA1ADD6C
:104E4800B7EE006A94ED057A27EE277AC6EE276A50
:104E580084ED0D7AC4ED0C6A6DB1204640F8185FF8
:104E680001F0A2FE064903690020064A2162A262F7
:104E7800E36005B030BD012005B030BD288A0724A5
:104E8800002000300000003000680830704700BF84
:104E9800B1F5807F03680A4628BF4FF48072B1F5E8
:104EA800807F9A6094BF0020012070470068183006
:104EB80001F0DABE70B504688AB0A369E160CBB1CD
:104EC80004F11805284601F06FFE8446EE46E668B0
:104ED800BCE80F00AEE80F00BCE80F00AEE80F001A
:104EE8009CE803008EE8030069462846049601F012
:104EF80063FDF8B9E069D8B104F11C05284601F052
:104F080053FE8446EE46E468BCE80F00AEE80F00A6
:104F1800BCE80F00AEE80F009CE803008EE8030031
:104F280069462846049401F047FD003818BF01205F
:104F38000AB070BD01200AB070BD00BF30B504686A
:104F480083B00D46E3694BB1A3680020E26A616A49
:104F58009B00009004F11C0001F028FEA36807489C
:104F6800A26A9B00216A009004F1180001F01EFE5D
:104F78000020C4E9005003B030BD00BF65420008FE
:104F880010B4074B4FF07E513024002203201961E2
:104F98009C60D8605DF8044B5961C3E906227047EC
:104FA800288A0724F6EE007A9FED166A20EE207A0A
:104FB8000160F7EE006A80ED036A80ED020A27EED1
:104FC800277AC6EE877AF4EEE67AF1EE10FA11DD6A
:104FD800F0EE667A4FF07E514FF0000C0276002218
:104FE800C0ED017AC0F814C0016143768276C0ED45
:104FF800070A7047F4EEC67AF1EE10FAEAD5F0EE39
:10500800467AE7E7000000000268037E128807EE90
:10501800902AFBEEC87A1BB1B7EE007A77EE677A72
:10502800D0ED056A90ED047A77EEE67A437E67EE76
:10503800877A0BB1F1EE677A90ED030A90ED017A69
:1050480077EEC07AA7EE270A80ED030A704700BF03
:10505800837E80ED020AABB9D0ED077A27EE800A8D
:10506800F6EE007AB7EE007A20EE270AC7EE007A4D
:10507800F4EEC77AF1EE10FA07DDF0EE477AC0EDEC
:10508800017A7047DFED067AE8E7F5EEC07AF1EECF
:1050980010FAF4D5DFED037AC0ED017A704700BF4E
:1050A8006F12033B0000000030B585B004460025B0
:1050B800ADF80C10ADF80820ADF8043002F080FD12
:1050C800BDF80C204FF48073206004F1180022838F
:1050D800BDF808206383E383A283257100F0F0FB09
:1050E80004F11C0000F0ECFB9FED060A019904F1A5
:1050F800080000F093F84FF6FF736562238405B04B
:1051080030BD00BF00000000F8B5044602F058FDAD
:10511800002623682671834205D104F10800BDE802
:10512800F84000F095B8012794F82050206004F169
:105138001800BD40277100F09FFC6DB2284394F819
:105148002150BD4084F8200004F11C0000F094FCBC
:1051580094F820306DB2666203F003032843022BF3
:10516800C0B284F8210009D000F003000228D4D18D
:10517800002BD2D14FF0FF336362CEE78307CCD147
:105188006762CAE730B585B004469FED110A9DF8FD
:105198002050ADF80C100399ADF808202A46ADF858
:1051A80004308DED000A0CF059FD9DED000A2A46E9
:1051B800029904F11C000CF051FD9DED000A2A46ED
:1051C800019904F1380005B0BDE830400CF046BD47
:1051D80000007A4438B50C46054691ED000A0CF0FB
:1051E80061FD94ED010A05F11C000CF05BFD94EDE6
:1051F800020A05F13800BDE838400CF053BD00BF85
:1052080010B504460CF060FD04F11C000CF05CFDC8
:1052180004F13800BDE810400CF056BD70B50446E6
:1052280082B0C1F30726CDB2ADF8041002F0C8FC75
:105238004FF480724FF001232060A01DA571A28059
:10524800E671A36002B0BDE8704000F039BB00BF52
:1052580038B5044602F0B4FC002223682271834268
:1052680010D00122A57AE37A954020602271A01D12
:105278006DB243B900F000FC40B22843C0B27F28A9
:10528800A0720AD038BD00F0F7FBB0FA80F04009F0
:105298002843C0B27F28A072F4D102F091FC07EE37
:1052A800900AF8EE677AC4ED037A38BD82B04FF001
:1052B800000C0323ADF80410BDF8042080F810C0DA
:1052C8000280438002B070472DE9F04FBE4E0025A2
:1052D8008FB0BE4C037006F140034260074601924E
:1052E8008846202229463046C4F85831C4F854610B
:1052F800CDE90355CDE90555CDE90755CDE9095562
:10530800CDE90B550FF070FE2022294604F599705F
:10531800C4F82151C4F82551C4F82951C4F82D51B5
:105328000FF062FE019B84F8385284F820317A68C5
:10533800002A5FD02B464146B64604F5907599463B
:105348004FF0010A03EB0310D1F800B0D1F8048044
:105358000133D1F808C02218CE6844F800B0C2F86A
:105368000480C2F808C0D660087C2EF8029B10742E
:105378000A7C05F8012F002A69D07A68113184F86F
:1053880038A29A42DED84FF4802291489DF8043022
:1053980008214FF000084FF00009C4F874310023C9
:1053A800C4E957020122C4F8643184F87031C4E9B1
:1053B8005A2194F83812C4E9608981B3C4F8882165
:1053C800002284F8713184F878313B78C4E963228B
:1053D800A3B3012200200121013B84F89421C4E9F0
:1053E8006801082B2CD8DFE803F0ABB0B5BABFC40E
:1053F800C9CFD6009DF804300121C4F86421C4F84F
:1054080074314FF4802384F87021714AC4E957231A
:1054180008230022C4E95A130023C4E960230123A6
:10542800002284F87131002384F878310323C4F80A
:1054380088313B78C4E96322002BCAD184F89431BF
:10544800644803F01BFC034638B1FFBEFEE77A68E8
:1054580011319A423FF676AF95E703A95D48039369
:1054680003F06AFD0546002868D1022240F2FF7366
:10547800CDE9082300230422CDE90A2394F820313A
:10548800002B00F0D5804FF0060921E0022B00F038
:105498008980012B40F0C4809AF80130012B00F07C
:1054A800C180002B4C4B18BF002306A94948CDE901
:1054B800063903F00FF8002840F0BF80013594F852
:1054C8002031EDB2AB4240F2B380444B53F8259003
:1054D8002FB207EB071704EB070A504600F0F0F964
:1054E80005EB051323441B7C042B7DDC022B00F306
:1054F800918000F08D806319002283F81021E35D0C
:10550800002BC3D19AF80130062B00F08580072BB9
:1055180000F08A80022B00F09680032B00F0958023
:10552800002B00F09680012B00F09180042B00F0F6
:105538009280052B2A4B18BF0023B6E7FFBEFEE773
:1055480003224023C4E966237AE707226023C4E9DB
:10555800662375E70F228023C4E9662370E71F22BC
:10556800A023C4E966236BE73F22C023C4E966236E
:1055780066E77F22E023C4E9662361E7FF224FF450
:105588008073C4E966235BE740F2FF124FF490731F
:10559800C4E9662354E740F2FF324FF4A073C4E92C
:1055A80066234DE79AF80130042B37D0052B3DD000
:1055B800002B40D0012B42D0022B42D0032B094BA9
:1055C80018BF002371E700BF00400030608A07243D
:1055D80000200240BC8B07240002B0257851010846
:1055E8000000B84F0020903603233E1D04EB050849
:1055F8004FF0000B264488F8103130460BF1010BB0
:1056080000F05EF998F8103104365B45F5DC76E772
:105618000123EAE70223E8E7104B46E7104B44E78B
:10562800002342E70F4B40E70F4B3EE70F4B3CE7A9
:105638000FB0BDE8F08F0E4B37E7FFBEFEE70D4B0E
:1056480033E70D4B31E70D4B2FE70D4B2DE70D4B96
:105658002BE70D4B29E70D4B27E700BF0800900CFF
:105668001000C0102000F0148000501D000180219F
:105678000004002A0008302E001060320040C03AB2
:105688000080F03E00005247000021430000844B98
:1056980038B5094C40F2FF724FF0011104F5AE75B0
:1056A800284603F0F7FB94F82021D4F85411284633
:1056B800BDE8384003F062B9608A0724034B0F291C
:1056C800D3F8540198BF00EB41007047608A072463
:1056D800214B02689A4200D07047204A0023204894
:1056E800D2F8D81030B51F4C41F0200183B0C4F86F
:1056F800C001092004F5E075C4E971034FF4806026
:10570800C2F8D810D2F8D8204FF40061C4E9733039
:1057180094F8380202F02002C4F8D4114FF4005172
:10572800984201922846C4F8D811C4E97833019BFD
:1057380014BF00234FF48073C4F8DC3103F022FE59
:1057480008B1FFBEFEE704F5AE73C4F8A851C4F86B
:10575800F83103B030BD00BF0020024000440258B9
:1057680040000240608A0724014804F083B900BF62
:10577800208C072402682DE9F84F4B4B9A4201D040
:10578800BDE8F88F494D95F83832002BF8D095F8D8
:105798002031002B77D0002405F10C0905F5997606
:1057A80005F59077A04613E003F0010117F811BC46
:1057B800A9F1080000F06EF9BBF1010F25D895F8A2
:1057C8002031013409F111090236A2B293422BD9D2
:1057D80017F8012F002AF4D0D5F854310021327877
:1057E80033F81400D5F8583103EB041323F81200EA
:1057F800338801339BB233805FFA83FA3A789A424E
:10580800D2D88A46A6F80080D0E7CAF34001A9F1A9
:10581800040000F03FF9BBF1020FCAF38001CED0BB
:10582800484600F037F9CAE7002395F838022049BE
:1058380009229842C5F8C8314FF48060C5F8C011F4
:10584800C5F8C4214FF400614FF40052C5F8CC31BB
:1058580008BF4FF48073C5F8D821C5E97401002248
:105868001448C5E97732C5F8E42103F08BFD08B187
:10587800FFBEFEE795F82021D5F854110E48BDE883
:10588800F84F03F07BB80A4909224FF48060C5F845
:10589800C831C5E970124FF400614FF40052C5E9F0
:1058A8007330C5E97512DAE700200240608A0724E0
:1058B80040000240208C0724BC8B0724704700BF9F
:1058C8008378022B30B504468FB037D0032B33D002
:1058D800012B31D000230A93E378012B2AD0022B25
:1058E80028D000230B93002320460C9302F06CFC75
:1058F8000546204602F070FC23780990082B13D83F
:10590800DFE803F01F3245586B7E91A40500594B20
:10591800D3F8E02042F48072C3F8E020D3F8E030F6
:1059280003F480730893089B09A9284604F0F4FB44
:105938000FB030BD0B93D6E70A93CDE711230A9336
:10594800CAE74C4B09A92846D3F8E02042F00102E7
:10595800C3F8E020D3F8E03003F001030093009B84
:1059680004F0DAFB0FB030BD424B09A92846D3F842
:10597800E02042F00202C3F8E020D3F8E03003F060
:1059880002030193019B04F0C7FB0FB030BD394BF4
:1059980009A92846D3F8E02042F00402C3F8E02021
:1059A800D3F8E03003F004030293029B04F0B4FB45
:1059B8000FB030BD2F4B09A92846D3F8E02042F09C
:1059C8000802C3F8E020D3F8E03003F0080303939B
:1059D800039B04F0A1FB0FB030BD264B09A9284654
:1059E800D3F8E02042F01002C3F8E020D3F8E0300A
:1059F80003F010030493049B04F08EFB0FB030BD3A
:105A08001C4B09A92846D3F8E02042F02002C3F82D
:105A1800E020D3F8E03003F020030593059B04F061
:105A28007BFB0FB030BD134B09A92846D3F8E02003
:105A380042F04002C3F8E020D3F8E03003F040031E
:105A48000693069B04F068FB0FB030BD094B09A90B
:105A58002846D3F8E02042F08002C3F8E020D3F8CB
:105A6800E03003F080030793079B04F055FB0FB069
:105A780030BD00BF0044025838B5054602F0A4FB0B
:105A88000446284602F0A8FB01462046BDE83840F7
:105A980004F04ABD70B506460D4602F095FB044673
:105AA800304602F099FB2A1E0146204618BF012203
:105AB800BDE8704004F03EBD0023122270B586B0E8
:105AC800CDE9022304930368032B01D8042305932B
